{
  "contractName": "Casino",
  "abi": [
    {
      "inputs": [
        {
          "internalType": "uint256",
          "name": "_mininumBet",
          "type": "uint256"
        }
      ],
      "stateMutability": "payable",
      "type": "constructor"
    },
    {
      "anonymous": false,
      "inputs": [
        {
          "indexed": false,
          "internalType": "bool",
          "name": "_status",
          "type": "bool"
        },
        {
          "indexed": false,
          "internalType": "address",
          "name": "_address",
          "type": "address"
        },
        {
          "indexed": false,
          "internalType": "uint256",
          "name": "_amount",
          "type": "uint256"
        }
      ],
      "name": "Won",
      "type": "event"
    },
    {
      "stateMutability": "payable",
      "type": "fallback"
    },
    {
      "inputs": [],
      "name": "maxmunBetsNr",
      "outputs": [
        {
          "internalType": "uint256",
          "name": "",
          "type": "uint256"
        }
      ],
      "stateMutability": "view",
      "type": "function"
    },
    {
      "inputs": [],
      "name": "minimumBet",
      "outputs": [
        {
          "internalType": "uint256",
          "name": "",
          "type": "uint256"
        }
      ],
      "stateMutability": "view",
      "type": "function"
    },
    {
      "inputs": [],
      "name": "numberOfBets",
      "outputs": [
        {
          "internalType": "uint256",
          "name": "",
          "type": "uint256"
        }
      ],
      "stateMutability": "view",
      "type": "function"
    },
    {
      "inputs": [],
      "name": "numberWinner",
      "outputs": [
        {
          "internalType": "uint256",
          "name": "",
          "type": "uint256"
        }
      ],
      "stateMutability": "view",
      "type": "function"
    },
    {
      "inputs": [],
      "name": "owner",
      "outputs": [
        {
          "internalType": "address payable",
          "name": "",
          "type": "address"
        }
      ],
      "stateMutability": "view",
      "type": "function"
    },
    {
      "inputs": [
        {
          "internalType": "address",
          "name": "",
          "type": "address"
        }
      ],
      "name": "playerInfo",
      "outputs": [
        {
          "internalType": "uint256",
          "name": "amountBet",
          "type": "uint256"
        },
        {
          "internalType": "uint256",
          "name": "numberSelected",
          "type": "uint256"
        }
      ],
      "stateMutability": "view",
      "type": "function"
    },
    {
      "inputs": [
        {
          "internalType": "uint256",
          "name": "",
          "type": "uint256"
        }
      ],
      "name": "players",
      "outputs": [
        {
          "internalType": "address",
          "name": "",
          "type": "address"
        }
      ],
      "stateMutability": "view",
      "type": "function"
    },
    {
      "inputs": [],
      "name": "totalBet",
      "outputs": [
        {
          "internalType": "uint256",
          "name": "",
          "type": "uint256"
        }
      ],
      "stateMutability": "view",
      "type": "function"
    },
    {
      "stateMutability": "payable",
      "type": "receive"
    },
    {
      "inputs": [],
      "name": "kill",
      "outputs": [],
      "stateMutability": "nonpayable",
      "type": "function"
    },
    {
      "inputs": [],
      "name": "withdraw",
      "outputs": [
        {
          "internalType": "bool",
          "name": "",
          "type": "bool"
        }
      ],
      "stateMutability": "nonpayable",
      "type": "function"
    },
    {
      "inputs": [
        {
          "internalType": "address",
          "name": "player",
          "type": "address"
        }
      ],
      "name": "checkPlayerExists",
      "outputs": [
        {
          "internalType": "bool",
          "name": "",
          "type": "bool"
        }
      ],
      "stateMutability": "view",
      "type": "function"
    },
    {
      "inputs": [
        {
          "internalType": "uint256",
          "name": "numberSelected",
          "type": "uint256"
        }
      ],
      "name": "bet",
      "outputs": [],
      "stateMutability": "payable",
      "type": "function"
    },
    {
      "inputs": [],
      "name": "generateNumberWinner",
      "outputs": [],
      "stateMutability": "nonpayable",
      "type": "function"
    },
    {
      "inputs": [
        {
          "internalType": "uint256",
          "name": "numberWin",
          "type": "uint256"
        }
      ],
      "name": "distributePrizes",
      "outputs": [],
      "stateMutability": "nonpayable",
      "type": "function"
    }
  ],
  "bytecode": "0x608060405260026004556040516111bf3803806111bf833981810160405281019061002a9190610095565b336000806101000a81548173ffffffffffffffffffffffffffffffffffffffff021916908373ffffffffffffffffffffffffffffffffffffffff1602179055506000811461007a57806001819055505b506100df565b60008151905061008f816100c8565b92915050565b6000602082840312156100a757600080fd5b60006100b584828501610080565b91505092915050565b6000819050919050565b6100d1816100be565b81146100dc57600080fd5b50565b6110d1806100ee6000396000f3fe6080604052600436106100e15760003560e01c80637365870b1161007f5780639a6a68e9116100595780639a6a68e914610284578063c38a8afd146102af578063f71d96cb146102da578063fe5e185314610317576100e8565b80637365870b146102125780638da5cb5b1461022e5780639130471c14610259576100e8565b80634081d916116100bb5780634081d9161461015757806341c0e1b5146101945780634b114691146101ab5780636ca3fc3b146101e9576100e8565b80630a50e361146100ea5780632ca8c6d3146101015780633ccfd60b1461012c576100e8565b366100e857005b005b3480156100f657600080fd5b506100ff610342565b005b34801561010d57600080fd5b50610116610372565b6040516101239190610e5e565b60405180910390f35b34801561013857600080fd5b50610141610378565b60405161014e9190610dd5565b60405180910390f35b34801561016357600080fd5b5061017e60048036038101906101799190610d02565b610441565b60405161018b9190610dd5565b60405180910390f35b3480156101a057600080fd5b506101a9610516565b005b3480156101b757600080fd5b506101d260048036038101906101cd9190610d02565b6105a5565b6040516101e0929190610e79565b60405180910390f35b3480156101f557600080fd5b50610210600480360381019061020b9190610d2b565b6105c9565b005b61022c60048036038101906102279190610d2b565b610ac7565b005b34801561023a57600080fd5b50610243610c3a565b6040516102509190610dba565b60405180910390f35b34801561026557600080fd5b5061026e610c5e565b60405161027b9190610e5e565b60405180910390f35b34801561029057600080fd5b50610299610c64565b6040516102a69190610e5e565b60405180910390f35b3480156102bb57600080fd5b506102c4610c6a565b6040516102d19190610e5e565b60405180910390f35b3480156102e657600080fd5b5061030160048036038101906102fc9190610d2b565b610c70565b60405161030e9190610d9f565b60405180910390f35b34801561032357600080fd5b5061032c610caf565b6040516103399190610e5e565b60405180910390f35b60006001600a436103539190610fde565b61035d9190610ea2565b90508060068190555061036f816105c9565b50565b60035481565b60008060009054906101000a900473ffffffffffffffffffffffffffffffffffffffff1673ffffffffffffffffffffffffffffffffffffffff163373ffffffffffffffffffffffffffffffffffffffff16146103d357600080fd5b60008054906101000a900473ffffffffffffffffffffffffffffffffffffffff1673ffffffffffffffffffffffffffffffffffffffff166108fc479081150290604051600060405180830381858888f19350505050158015610439573d6000803e3d6000fd5b506001905090565b600080600090505b60058054905081101561050b578273ffffffffffffffffffffffffffffffffffffffff16600582815481106104a7577f4e487b7100000000000000000000000000000000000000000000000000000000600052603260045260246000fd5b9060005260206000200160009054906101000a900473ffffffffffffffffffffffffffffffffffffffff1673ffffffffffffffffffffffffffffffffffffffff1614156104f8576001915050610511565b808061050390610f95565b915050610449565b50600090505b919050565b60008054906101000a900473ffffffffffffffffffffffffffffffffffffffff1673ffffffffffffffffffffffffffffffffffffffff163373ffffffffffffffffffffffffffffffffffffffff1614156105a35760008054906101000a900473ffffffffffffffffffffffffffffffffffffffff1673ffffffffffffffffffffffffffffffffffffffff16ff5b565b60076020528060005260406000206000915090508060000154908060010154905082565b6105d1610cb5565b6105d9610cb5565b60008060005b60058054905081101561080957600060058281548110610628577f4e487b7100000000000000000000000000000000000000000000000000000000600052603260045260246000fd5b9060005260206000200160009054906101000a900473ffffffffffffffffffffffffffffffffffffffff16905086600760008373ffffffffffffffffffffffffffffffffffffffff1673ffffffffffffffffffffffffffffffffffffffff16815260200190815260200160002060010154141561072357808685606481106106d9577f4e487b7100000000000000000000000000000000000000000000000000000000600052603260045260246000fd5b602002019073ffffffffffffffffffffffffffffffffffffffff16908173ffffffffffffffffffffffffffffffffffffffff1681525050838061071b90610f95565b9450506107a3565b8085846064811061075d577f4e487b7100000000000000000000000000000000000000000000000000000000600052603260045260246000fd5b602002019073ffffffffffffffffffffffffffffffffffffffff16908173ffffffffffffffffffffffffffffffffffffffff1681525050828061079f90610f95565b9350505b600760008273ffffffffffffffffffffffffffffffffffffffff1673ffffffffffffffffffffffffffffffffffffffff1681526020019081526020016000206000808201600090556001820160009055505050808061080190610f95565b9150506105df565b50600082146109b4576000826002546108229190610ef8565b905060005b838110156109b157600073ffffffffffffffffffffffffffffffffffffffff16868260648110610880577f4e487b7100000000000000000000000000000000000000000000000000000000600052603260045260246000fd5b602002015173ffffffffffffffffffffffffffffffffffffffff161461099e578581606481106108d9577f4e487b7100000000000000000000000000000000000000000000000000000000600052603260045260246000fd5b602002015173ffffffffffffffffffffffffffffffffffffffff166108fc839081150290604051600060405180830381858888f19350505050158015610923573d6000803e3d6000fd5b507fea7d9b91a9071528af290e91f77561555136fe4d4917c1eefb0868215ddc59386001878360648110610980577f4e487b7100000000000000000000000000000000000000000000000000000000600052603260045260246000fd5b60200201518460405161099593929190610e27565b60405180910390a15b80806109a990610f95565b915050610827565b50505b60005b6064811015610abf57600073ffffffffffffffffffffffffffffffffffffffff16848260648110610a11577f4e487b7100000000000000000000000000000000000000000000000000000000600052603260045260246000fd5b602002015173ffffffffffffffffffffffffffffffffffffffff1614610aac577fea7d9b91a9071528af290e91f77561555136fe4d4917c1eefb0868215ddc59386000858360648110610a8d577f4e487b7100000000000000000000000000000000000000000000000000000000600052603260045260246000fd5b60200201516000604051610aa393929190610df0565b60405180910390a15b8080610ab790610f95565b9150506109b7565b505050505050565b610ad033610441565b15610ada57600080fd5b6001811480610ae95750600081145b610af257600080fd5b600154341015610b0157600080fd5b34600760003373ffffffffffffffffffffffffffffffffffffffff1673ffffffffffffffffffffffffffffffffffffffff1681526020019081526020016000206000018190555080600760003373ffffffffffffffffffffffffffffffffffffffff1673ffffffffffffffffffffffffffffffffffffffff1681526020019081526020016000206001018190555060036000815480929190610ba290610f95565b91905055506005339080600181540180825580915050600190039060005260206000200160009091909190916101000a81548173ffffffffffffffffffffffffffffffffffffffff021916908373ffffffffffffffffffffffffffffffffffffffff1602179055503460026000828254610c1c9190610ea2565b9250508190555060045460035410610c3757610c36610342565b5b50565b60008054906101000a900473ffffffffffffffffffffffffffffffffffffffff1681565b60045481565b60065481565b60015481565b60058181548110610c8057600080fd5b906000526020600020016000915054906101000a900473ffffffffffffffffffffffffffffffffffffffff1681565b60025481565b60405180610c800160405280606490602082028036833780820191505090505090565b600081359050610ce78161106d565b92915050565b600081359050610cfc81611084565b92915050565b600060208284031215610d1457600080fd5b6000610d2284828501610cd8565b91505092915050565b600060208284031215610d3d57600080fd5b6000610d4b84828501610ced565b91505092915050565b610d5d81610f3b565b82525050565b610d6c81610f29565b82525050565b610d7b81610f4d565b82525050565b610d8a81610f83565b82525050565b610d9981610f79565b82525050565b6000602082019050610db46000830184610d63565b92915050565b6000602082019050610dcf6000830184610d54565b92915050565b6000602082019050610dea6000830184610d72565b92915050565b6000606082019050610e056000830186610d72565b610e126020830185610d63565b610e1f6040830184610d81565b949350505050565b6000606082019050610e3c6000830186610d72565b610e496020830185610d63565b610e566040830184610d90565b949350505050565b6000602082019050610e736000830184610d90565b92915050565b6000604082019050610e8e6000830185610d90565b610e9b6020830184610d90565b9392505050565b6000610ead82610f79565b9150610eb883610f79565b9250827fffffffffffffffffffffffffffffffffffffffffffffffffffffffffffffffff03821115610eed57610eec61100f565b5b828201905092915050565b6000610f0382610f79565b9150610f0e83610f79565b925082610f1e57610f1d61103e565b5b828204905092915050565b6000610f3482610f59565b9050919050565b6000610f4682610f59565b9050919050565b60008115159050919050565b600073ffffffffffffffffffffffffffffffffffffffff82169050919050565b6000819050919050565b6000610f8e82610f79565b9050919050565b6000610fa082610f79565b91507fffffffffffffffffffffffffffffffffffffffffffffffffffffffffffffffff821415610fd357610fd261100f565b5b600182019050919050565b6000610fe982610f79565b9150610ff483610f79565b9250826110045761100361103e565b5b828206905092915050565b7f4e487b7100000000000000000000000000000000000000000000000000000000600052601160045260246000fd5b7f4e487b7100000000000000000000000000000000000000000000000000000000600052601260045260246000fd5b61107681610f29565b811461108157600080fd5b50565b61108d81610f79565b811461109857600080fd5b5056fea2646970667358221220d28bed2a2815742f78a2ecf85c2449adedc2919e2c852204119f0c82b477549264736f6c63430008000033",
  "immutableReferences": {},
  "source": "//SPDX-License-Identifier: UNLICENSED\n\npragma solidity ^0.8.0;\n\ncontract Casino {\n  address payable public owner;\n  uint256 public minimumBet;\n  uint256 public totalBet;\n  uint256 public numberOfBets;\n  uint256 public maxmunBetsNr = 2;\n  address[] public players;\n  uint public numberWinner;\n\n  struct Player {\n    uint256 amountBet;\n    uint256 numberSelected;\n  }\n\n  struct Bet {\n    address winner;\n    uint totalBet;\n  }\n\n  mapping(address => Player) public playerInfo;\n  event Won(bool _status, address _address, uint _amount);\n\n  modifier onlyOwner() {\n    require(msg.sender == owner);\n    _;\n  }\n\n  constructor(uint256 _mininumBet) payable {\n    owner = payable(msg.sender);\n    if (_mininumBet != 0) \n      minimumBet = _mininumBet;\n  }\n\n  fallback() external payable {}\n  receive() external payable {}\n\n  function kill() public {\n    if (msg.sender == owner)\n      selfdestruct(owner);\n  }\n\n  function withdraw() public onlyOwner returns(bool) {\n    owner.transfer(address(this).balance);\n    return true;\n  }\n\n  function checkPlayerExists(address player) public view returns(bool) {\n    for (uint256 i = 0; i < players.length; i++) {\n      if (players[i] == player)\n        return true;\n    }\n    return false;\n  }\n\n  function bet(uint256 numberSelected) public payable {\n    require(!checkPlayerExists(msg.sender));\n    require(numberSelected == 1 || numberSelected == 0);\n    require(msg.value >= minimumBet);\n\n    playerInfo[msg.sender].amountBet = msg.value;\n    playerInfo[msg.sender].numberSelected = numberSelected;\n    numberOfBets++;\n    players.push(msg.sender);\n    totalBet += msg.value;\n    if (numberOfBets >= maxmunBetsNr)\n      generateNumberWinner();\n  }\n\n   function generateNumberWinner() public {\n    uint256 numberGenerated = block.number % 10 + 1;\n    numberWinner = numberGenerated;\n    distributePrizes(numberGenerated);\n  }\n\n  function distributePrizes(uint256 numberWin) public {\n    address[100] memory winners;\n    address[100] memory losers;\n    uint256 countWin = 0;\n    uint256 countLose = 0;\n\n    for (uint256 i = 0; i < players.length; i++) {\n      address playerAddress = players[i];\n      if (playerInfo[playerAddress].numberSelected == numberWin) {\n        winners[countWin] = playerAddress;\n        countWin++;\n      } else {\n        losers[countLose] = playerAddress;\n        countLose++;\n      }\n      delete playerInfo[playerAddress];\n    }\n\n    if (countWin !=0) {\n      uint256 winnerEtherAmount = totalBet/countWin;\n\n      for (uint256 j = 0; j < countWin; j++) {\n        if (winners[j] != address(0)) {\n          payable(winners[j]).transfer(winnerEtherAmount);\n          emit Won(true, winners[j], winnerEtherAmount);\n        }\n      }\n    }\n\n    for (uint256 l =0; l < losers.length; l++) {\n      if (losers[l] != address(0))\n        emit Won(false, losers[l], 0);\n    }\n  }\n}\n\n",
  "sourcePath": "/Volumes/Data/Projects/blocks/weave_test/contracts/Casino.sol",
  "compiler": {
    "name": "solc",
    "version": "0.8.0+commit.c7dfd78e.Emscripten.clang"
  },
  "schemaVersion": "3.4.0",
  "updatedAt": "2021-09-23T10:56:39.505Z",
  "devdoc": {
    "kind": "dev",
    "methods": {},
    "version": 1
  },
  "userdoc": {
    "kind": "user",
    "methods": {},
    "version": 1
  }
}