{
  "contractName": "ChoHanCasino",
  "abi": [
    {
      "inputs": [
        {
          "internalType": "uint256",
          "name": "_mininumBet",
          "type": "uint256"
        }
      ],
      "stateMutability": "nonpayable",
      "type": "constructor"
    },
    {
      "anonymous": false,
      "inputs": [
        {
          "indexed": false,
          "internalType": "bool",
          "name": "_status",
          "type": "bool"
        }
      ],
      "name": "BetEnded",
      "type": "event"
    },
    {
      "anonymous": false,
      "inputs": [
        {
          "indexed": false,
          "internalType": "bool",
          "name": "_status",
          "type": "bool"
        },
        {
          "indexed": false,
          "internalType": "uint256",
          "name": "totalBet",
          "type": "uint256"
        },
        {
          "indexed": false,
          "internalType": "uint256",
          "name": "numberOfPlayers",
          "type": "uint256"
        }
      ],
      "name": "BetPlaced",
      "type": "event"
    },
    {
      "anonymous": false,
      "inputs": [
        {
          "indexed": false,
          "internalType": "bool",
          "name": "_status",
          "type": "bool"
        },
        {
          "indexed": false,
          "internalType": "address",
          "name": "_address",
          "type": "address"
        },
        {
          "indexed": false,
          "internalType": "uint256",
          "name": "_amount",
          "type": "uint256"
        }
      ],
      "name": "Won",
      "type": "event"
    },
    {
      "stateMutability": "payable",
      "type": "fallback"
    },
    {
      "inputs": [
        {
          "internalType": "uint256",
          "name": "",
          "type": "uint256"
        }
      ],
      "name": "bets",
      "outputs": [
        {
          "internalType": "uint256",
          "name": "numberWinner",
          "type": "uint256"
        },
        {
          "internalType": "uint256",
          "name": "totalBet",
          "type": "uint256"
        },
        {
          "internalType": "uint256",
          "name": "numberOfPlayers",
          "type": "uint256"
        }
      ],
      "stateMutability": "view",
      "type": "function"
    },
    {
      "inputs": [],
      "name": "fee",
      "outputs": [
        {
          "internalType": "uint256",
          "name": "",
          "type": "uint256"
        }
      ],
      "stateMutability": "view",
      "type": "function"
    },
    {
      "inputs": [],
      "name": "minNumberPlayer",
      "outputs": [
        {
          "internalType": "uint256",
          "name": "",
          "type": "uint256"
        }
      ],
      "stateMutability": "view",
      "type": "function"
    },
    {
      "inputs": [],
      "name": "minimumBet",
      "outputs": [
        {
          "internalType": "uint256",
          "name": "",
          "type": "uint256"
        }
      ],
      "stateMutability": "view",
      "type": "function"
    },
    {
      "inputs": [],
      "name": "numberOfPlayers",
      "outputs": [
        {
          "internalType": "uint256",
          "name": "",
          "type": "uint256"
        }
      ],
      "stateMutability": "view",
      "type": "function"
    },
    {
      "inputs": [],
      "name": "numberWinner",
      "outputs": [
        {
          "internalType": "uint256",
          "name": "",
          "type": "uint256"
        }
      ],
      "stateMutability": "view",
      "type": "function"
    },
    {
      "inputs": [],
      "name": "owner",
      "outputs": [
        {
          "internalType": "address payable",
          "name": "",
          "type": "address"
        }
      ],
      "stateMutability": "view",
      "type": "function"
    },
    {
      "inputs": [
        {
          "internalType": "uint256",
          "name": "",
          "type": "uint256"
        }
      ],
      "name": "players",
      "outputs": [
        {
          "internalType": "uint256",
          "name": "id",
          "type": "uint256"
        },
        {
          "internalType": "uint256",
          "name": "amountBet",
          "type": "uint256"
        },
        {
          "internalType": "uint256",
          "name": "numberSelected",
          "type": "uint256"
        },
        {
          "internalType": "address payable",
          "name": "playerAddress",
          "type": "address"
        }
      ],
      "stateMutability": "view",
      "type": "function"
    },
    {
      "inputs": [],
      "name": "totalBet",
      "outputs": [
        {
          "internalType": "uint256",
          "name": "",
          "type": "uint256"
        }
      ],
      "stateMutability": "view",
      "type": "function"
    },
    {
      "stateMutability": "payable",
      "type": "receive"
    },
    {
      "inputs": [],
      "name": "kill",
      "outputs": [],
      "stateMutability": "nonpayable",
      "type": "function"
    },
    {
      "inputs": [
        {
          "internalType": "uint256",
          "name": "_fee",
          "type": "uint256"
        }
      ],
      "name": "setFee",
      "outputs": [
        {
          "internalType": "uint256",
          "name": "",
          "type": "uint256"
        }
      ],
      "stateMutability": "nonpayable",
      "type": "function"
    },
    {
      "inputs": [
        {
          "internalType": "address payable",
          "name": "reciever",
          "type": "address"
        },
        {
          "internalType": "uint256",
          "name": "_amount",
          "type": "uint256"
        }
      ],
      "name": "withdraw",
      "outputs": [
        {
          "internalType": "bool",
          "name": "",
          "type": "bool"
        }
      ],
      "stateMutability": "nonpayable",
      "type": "function"
    },
    {
      "inputs": [
        {
          "internalType": "address",
          "name": "player",
          "type": "address"
        }
      ],
      "name": "checkPlayerExists",
      "outputs": [
        {
          "internalType": "bool",
          "name": "",
          "type": "bool"
        }
      ],
      "stateMutability": "view",
      "type": "function"
    },
    {
      "inputs": [
        {
          "internalType": "uint256",
          "name": "_numberSelected",
          "type": "uint256"
        }
      ],
      "name": "bet",
      "outputs": [
        {
          "internalType": "bool",
          "name": "",
          "type": "bool"
        }
      ],
      "stateMutability": "payable",
      "type": "function"
    },
    {
      "inputs": [],
      "name": "betEnd",
      "outputs": [],
      "stateMutability": "nonpayable",
      "type": "function"
    },
    {
      "inputs": [],
      "name": "generateNumberWinner",
      "outputs": [],
      "stateMutability": "nonpayable",
      "type": "function"
    },
    {
      "inputs": [
        {
          "internalType": "uint256",
          "name": "numberWin",
          "type": "uint256"
        }
      ],
      "name": "distributePrizes",
      "outputs": [],
      "stateMutability": "nonpayable",
      "type": "function"
    },
    {
      "inputs": [],
      "name": "resetData",
      "outputs": [],
      "stateMutability": "nonpayable",
      "type": "function"
    }
  ],
  "bytecode": "0x60806040526002600355600260045560036006553480156200002057600080fd5b5060405162001b0c38038062001b0c8339818101604052810190620000469190620000b5565b336000806101000a81548173ffffffffffffffffffffffffffffffffffffffff021916908373ffffffffffffffffffffffffffffffffffffffff160217905550600081146200009757806001819055505b5062000105565b600081519050620000af81620000eb565b92915050565b600060208284031215620000c857600080fd5b6000620000d8848285016200009e565b91505092915050565b6000819050919050565b620000f681620000e1565b81146200010257600080fd5b50565b6119f780620001156000396000f3fe60806040526004361061010d5760003560e01c80637365870b11610095578063ddca3f4311610064578063ddca3f4314610344578063f3fef3a31461036f578063f61845be146103ac578063f71d96cb146103c3578063fe5e18531461040357610114565b80637365870b146102935780638da5cb5b146102c35780639a6a68e9146102ee578063c38a8afd1461031957610114565b806341c0e1b5116100dc57806341c0e1b5146101d4578063478c4e0e146101eb57806369fe0e2d146102025780636ca3fc3b1461023f5780636f4bda171461026857610114565b80630a50e3611461011657806316cbfc821461012d57806322af00fa146101585780634081d9161461019757610114565b3661011457005b005b34801561012257600080fd5b5061012b61042e565b005b34801561013957600080fd5b50610142610461565b60405161014f9190611645565b60405180910390f35b34801561016457600080fd5b5061017f600480360381019061017a9190611410565b610467565b60405161018e93929190611660565b60405180910390f35b3480156101a357600080fd5b506101be60048036038101906101b991906113ab565b6104a1565b6040516101cb9190611545565b60405180910390f35b3480156101e057600080fd5b506101e9610590565b005b3480156101f757600080fd5b5061020061061f565b005b34801561020e57600080fd5b5061022960048036038101906102249190611410565b6106b3565b6040516102369190611645565b60405180910390f35b34801561024b57600080fd5b5061026660048036038101906102619190611410565b610763565b005b34801561027457600080fd5b5061027d610e47565b60405161028a9190611645565b60405180910390f35b6102ad60048036038101906102a89190611410565b610e4d565b6040516102ba9190611545565b60405180910390f35b3480156102cf57600080fd5b506102d8610fbb565b6040516102e5919061152a565b60405180910390f35b3480156102fa57600080fd5b50610303610fdf565b6040516103109190611645565b60405180910390f35b34801561032557600080fd5b5061032e610fe5565b60405161033b9190611645565b60405180910390f35b34801561035057600080fd5b50610359610feb565b6040516103669190611645565b60405180910390f35b34801561037b57600080fd5b50610396600480360381019061039191906113d4565b610ff1565b6040516103a39190611545565b60405180910390f35b3480156103b857600080fd5b506103c16110a4565b005b3480156103cf57600080fd5b506103ea60048036038101906103e59190611410565b611220565b6040516103fa9493929190611697565b60405180910390f35b34801561040f57600080fd5b50610418611280565b6040516104259190611645565b60405180910390f35b60006002600160244361044191906118ed565b61044b91906116ed565b61045591906118ed565b90508060048190555050565b60035481565b6008818154811061047757600080fd5b90600052602060002090600302016000915090508060000154908060010154908060020154905083565b60008060078054905014156104b9576000905061058b565b60005b600780549050811015610585578273ffffffffffffffffffffffffffffffffffffffff166007828154811061051a577f4e487b7100000000000000000000000000000000000000000000000000000000600052603260045260246000fd5b906000526020600020906004020160030160009054906101000a900473ffffffffffffffffffffffffffffffffffffffff1673ffffffffffffffffffffffffffffffffffffffff16141561057257600191505061058b565b808061057d906118a4565b9150506104bc565b50600090505b919050565b60008054906101000a900473ffffffffffffffffffffffffffffffffffffffff1673ffffffffffffffffffffffffffffffffffffffff163373ffffffffffffffffffffffffffffffffffffffff16141561061d5760008054906101000a900473ffffffffffffffffffffffffffffffffffffffff1673ffffffffffffffffffffffffffffffffffffffff16ff5b565b6007600061062d9190611286565b600860405180606001604052806004548152602001600254815260200160055481525090806001815401808255809150506001900390600052602060002090600302016000909190919091506000820151816000015560208201518160010155604082015181600201555050600060028190555060026004819055506000600581905550565b60008060009054906101000a900473ffffffffffffffffffffffffffffffffffffffff1673ffffffffffffffffffffffffffffffffffffffff163373ffffffffffffffffffffffffffffffffffffffff161461070e57600080fd5b6064821115610752576040517f08c379a000000000000000000000000000000000000000000000000000000000815260040161074990611605565b60405180910390fd5b816006819055506006549050919050565b61076b6112aa565b6107736112aa565b6000806000805b600780549050811015610b025786600782815481106107c2577f4e487b7100000000000000000000000000000000000000000000000000000000600052603260045260246000fd5b906000526020600020906004020160020154141561094e5760078181548110610814577f4e487b7100000000000000000000000000000000000000000000000000000000600052603260045260246000fd5b90600052602060002090600402016040518060800160405290816000820154815260200160018201548152602001600282015481526020016003820160009054906101000a900473ffffffffffffffffffffffffffffffffffffffff1673ffffffffffffffffffffffffffffffffffffffff1673ffffffffffffffffffffffffffffffffffffffff16815250508685606481106108da577f4e487b7100000000000000000000000000000000000000000000000000000000600052603260045260246000fd5b60200201819052506007818154811061091c577f4e487b7100000000000000000000000000000000000000000000000000000000600052603260045260246000fd5b9060005260206000209060040201600101548261093991906116ed565b91508380610946906118a4565b945050610a65565b60078181548110610988577f4e487b7100000000000000000000000000000000000000000000000000000000600052603260045260246000fd5b90600052602060002090600402016040518060800160405290816000820154815260200160018201548152602001600282015481526020016003820160009054906101000a900473ffffffffffffffffffffffffffffffffffffffff1673ffffffffffffffffffffffffffffffffffffffff1673ffffffffffffffffffffffffffffffffffffffff1681525050858460648110610a4e577f4e487b7100000000000000000000000000000000000000000000000000000000600052603260045260246000fd5b60200201819052508280610a61906118a4565b9350505b60078181548110610a9f577f4e487b7100000000000000000000000000000000000000000000000000000000600052603260045260246000fd5b9060005260206000209060040201600080820160009055600182016000905560028201600090556003820160006101000a81549073ffffffffffffffffffffffffffffffffffffffff021916905550508080610afa906118a4565b91505061077a565b50600060641115610d2c5760005b83811015610d2a57600073ffffffffffffffffffffffffffffffffffffffff16868260648110610b69577f4e487b7100000000000000000000000000000000000000000000000000000000600052603260045260246000fd5b60200201516060015173ffffffffffffffffffffffffffffffffffffffff1614610d1757600060646006546064610ba091906117ce565b600254858a8660648110610bdd577f4e487b7100000000000000000000000000000000000000000000000000000000600052603260045260246000fd5b602002015160200151610bf09190611743565b610bfa9190611774565b610c049190611774565b610c0e9190611743565b9050868260648110610c49577f4e487b7100000000000000000000000000000000000000000000000000000000600052603260045260246000fd5b60200201516060015173ffffffffffffffffffffffffffffffffffffffff166108fc829081150290604051600060405180830381858888f19350505050158015610c97573d6000803e3d6000fd5b507fea7d9b91a9071528af290e91f77561555136fe4d4917c1eefb0868215ddc59386001888460648110610cf4577f4e487b7100000000000000000000000000000000000000000000000000000000600052603260045260246000fd5b60200201516060015183604051610d0d93929190611597565b60405180910390a1505b8080610d22906118a4565b915050610b10565b505b60005b82811015610e3e57600073ffffffffffffffffffffffffffffffffffffffff16858260648110610d88577f4e487b7100000000000000000000000000000000000000000000000000000000600052603260045260246000fd5b60200201516060015173ffffffffffffffffffffffffffffffffffffffff1614610e2b577fea7d9b91a9071528af290e91f77561555136fe4d4917c1eefb0868215ddc59386000868360648110610e08577f4e487b7100000000000000000000000000000000000000000000000000000000600052603260045260246000fd5b6020020151606001516000604051610e2293929190611560565b60405180910390a15b8080610e36906118a4565b915050610d2f565b50505050505050565b60055481565b6000610e58336104a1565b15610e6257600080fd5b6001821115610e7057600080fd5b600154341015610e7f57600080fd5b6007604051806080016040528060078054905081526020013481526020018481526020013373ffffffffffffffffffffffffffffffffffffffff16815250908060018154018082558091505060019003906000526020600020906004020160009091909190915060008201518160000155602082015181600101556040820151816002015560608201518160030160006101000a81548173ffffffffffffffffffffffffffffffffffffffff021916908373ffffffffffffffffffffffffffffffffffffffff16021790555050506007805490506005819055503460026000828254610f6b91906116ed565b925050819055507f73f48c8b3a6136b86375970c55bc7990989b4fc0fc7cc26eccdca9e464f9e2b86001600254600554604051610faa939291906115ce565b60405180910390a160019050919050565b60008054906101000a900473ffffffffffffffffffffffffffffffffffffffff1681565b60045481565b60015481565b60065481565b60008060009054906101000a900473ffffffffffffffffffffffffffffffffffffffff1673ffffffffffffffffffffffffffffffffffffffff163373ffffffffffffffffffffffffffffffffffffffff161461104c57600080fd5b6000821115611099578273ffffffffffffffffffffffffffffffffffffffff166108fc839081150290604051600060405180830381858888f1935050505015611098576001905061109e565b5b600090505b92915050565b60008054906101000a900473ffffffffffffffffffffffffffffffffffffffff1673ffffffffffffffffffffffffffffffffffffffff163373ffffffffffffffffffffffffffffffffffffffff16146110fc57600080fd5b600060055411611141576040517f08c379a000000000000000000000000000000000000000000000000000000000815260040161113890611625565b60405180910390fd5b600160055414156111ca576111c4600760008154811061118a577f4e487b7100000000000000000000000000000000000000000000000000000000600052603260045260246000fd5b906000526020600020906004020160030160009054906101000a900473ffffffffffffffffffffffffffffffffffffffff16600254610ff1565b506111de565b6111d261042e565b6111dd600454610763565b5b6111e661061f565b7f2df0b936b8d4b17610e33161ffadaeaf61b91cc2d2a1855c5f43f8febbc9dd0460016040516112169190611545565b60405180910390a1565b6007818154811061123057600080fd5b90600052602060002090600402016000915090508060000154908060010154908060020154908060030160009054906101000a900473ffffffffffffffffffffffffffffffffffffffff16905084565b60025481565b50805460008255600402906000526020600020908101906112a791906112d8565b50565b60405180610c8001604052806064905b6112c261132e565b8152602001906001900390816112ba5790505090565b5b8082111561132a57600080820160009055600182016000905560028201600090556003820160006101000a81549073ffffffffffffffffffffffffffffffffffffffff0219169055506004016112d9565b5090565b6040518060800160405280600081526020016000815260200160008152602001600073ffffffffffffffffffffffffffffffffffffffff1681525090565b60008135905061137b8161197c565b92915050565b60008135905061139081611993565b92915050565b6000813590506113a5816119aa565b92915050565b6000602082840312156113bd57600080fd5b60006113cb8482850161136c565b91505092915050565b600080604083850312156113e757600080fd5b60006113f585828601611381565b925050602061140685828601611396565b9150509250929050565b60006020828403121561142257600080fd5b600061143084828501611396565b91505092915050565b6114428161185c565b82525050565b61145181611814565b82525050565b61146081611826565b82525050565b61146f8161186e565b82525050565b60006114826022836116dc565b91507f70657263656e746167652073686f756c64206265206c657373207468616e203160008301527f30300000000000000000000000000000000000000000000000000000000000006020830152604082019050919050565b60006114e8601c836116dc565b91507f73686f756c64206265206d6f7265207468616e203120706c61796572000000006000830152602082019050919050565b61152481611852565b82525050565b600060208201905061153f6000830184611448565b92915050565b600060208201905061155a6000830184611457565b92915050565b60006060820190506115756000830186611457565b6115826020830185611439565b61158f6040830184611466565b949350505050565b60006060820190506115ac6000830186611457565b6115b96020830185611439565b6115c6604083018461151b565b949350505050565b60006060820190506115e36000830186611457565b6115f0602083018561151b565b6115fd604083018461151b565b949350505050565b6000602082019050818103600083015261161e81611475565b9050919050565b6000602082019050818103600083015261163e816114db565b9050919050565b600060208201905061165a600083018461151b565b92915050565b6000606082019050611675600083018661151b565b611682602083018561151b565b61168f604083018461151b565b949350505050565b60006080820190506116ac600083018761151b565b6116b9602083018661151b565b6116c6604083018561151b565b6116d36060830184611448565b95945050505050565b600082825260208201905092915050565b60006116f882611852565b915061170383611852565b9250827fffffffffffffffffffffffffffffffffffffffffffffffffffffffffffffffff038211156117385761173761191e565b5b828201905092915050565b600061174e82611852565b915061175983611852565b9250826117695761176861194d565b5b828204905092915050565b600061177f82611852565b915061178a83611852565b9250817fffffffffffffffffffffffffffffffffffffffffffffffffffffffffffffffff04831182151516156117c3576117c261191e565b5b828202905092915050565b60006117d982611852565b91506117e483611852565b9250828210156117f7576117f661191e565b5b828203905092915050565b600061180d82611832565b9050919050565b600061181f82611832565b9050919050565b60008115159050919050565b600073ffffffffffffffffffffffffffffffffffffffff82169050919050565b6000819050919050565b600061186782611880565b9050919050565b600061187982611852565b9050919050565b600061188b82611892565b9050919050565b600061189d82611832565b9050919050565b60006118af82611852565b91507fffffffffffffffffffffffffffffffffffffffffffffffffffffffffffffffff8214156118e2576118e161191e565b5b600182019050919050565b60006118f882611852565b915061190383611852565b9250826119135761191261194d565b5b828206905092915050565b7f4e487b7100000000000000000000000000000000000000000000000000000000600052601160045260246000fd5b7f4e487b7100000000000000000000000000000000000000000000000000000000600052601260045260246000fd5b61198581611802565b811461199057600080fd5b50565b61199c81611814565b81146119a757600080fd5b50565b6119b381611852565b81146119be57600080fd5b5056fea2646970667358221220da5ae55e685ad2eca1d89ebf0eb8314a49a4668c445a1209df2fa0608205232f64736f6c63430008000033",
  "immutableReferences": {},
  "source": "//SPDX-License-Identifier: UNLICENSED\npragma solidity ^0.8.0;\n\ncontract ChoHanCasino {\n    address payable public owner;\n    uint256 public minimumBet;\n    uint256 public totalBet;\n    uint256 public minNumberPlayer = 2;\n    uint256 public numberWinner = 2;\n    uint256 public numberOfPlayers;\n    uint256 public fee = 3; // percentage of winners\n\n    struct Player {\n        uint256 id;\n        uint256 amountBet;\n        uint256 numberSelected;\n        address payable playerAddress;\n    }\n\n    struct Bet {\n        uint256 numberWinner;\n        uint256 totalBet;\n        uint256 numberOfPlayers;\n    }\n\n    Player[] public players;\n    Bet[] public bets;\n\n    event Won(bool _status, address _address, uint256 _amount);\n    event BetPlaced(bool _status, uint256 totalBet, uint256 numberOfPlayers);\n    event BetEnded(bool _status);\n\n    modifier onlyOwner() {\n        require(msg.sender == owner);\n        _;\n    }\n\n    constructor(uint256 _mininumBet) {\n        owner = payable(msg.sender);\n        if (_mininumBet != 0) minimumBet = _mininumBet;\n    }\n\n    fallback() external payable {}\n\n    receive() external payable {}\n\n    function kill() public {\n        if (msg.sender == owner) selfdestruct(owner);\n    }\n\n    function setFee(uint256 _fee) public onlyOwner returns (uint256) {\n        require(_fee <= 100, \"percentage should be less than 100\");\n        fee = _fee;\n        return fee;\n    }\n\n    function withdraw(address payable reciever, uint256 _amount)\n        public\n        onlyOwner\n        returns (bool)\n    {\n        if (_amount > 0) {\n            if (reciever.send(_amount)) {\n                return true;\n            }\n        }\n        return false;\n    }\n\n    function checkPlayerExists(address player) public view returns (bool) {\n        if (players.length == 0) return false;\n        for (uint256 i = 0; i < players.length; i++) {\n            if (players[i].playerAddress == player) return true;\n        }\n        return false;\n    }\n\n    function bet(uint256 _numberSelected) public payable returns (bool) {\n        //selected number has to be 1 or 0\n        // 1 for even 0 for odd\n        require(!checkPlayerExists(msg.sender));\n        require(_numberSelected <= 1);\n        require(msg.value >= minimumBet);\n\n        players.push(\n            Player(\n                players.length,\n                msg.value,\n                _numberSelected,\n                payable(msg.sender)\n            )\n        );\n        numberOfPlayers = players.length;\n\n        totalBet += msg.value;\n        emit BetPlaced(true, totalBet, numberOfPlayers);\n        return true;\n    }\n\n    function betEnd() public onlyOwner {\n        require(numberOfPlayers > 0, \"should be more than 1 player\");\n\n        if (numberOfPlayers == 1) {\n            withdraw(players[0].playerAddress, totalBet);\n        } else {\n            generateNumberWinner();\n            distributePrizes(numberWinner);\n        }\n        resetData();\n        emit BetEnded(true);\n    }\n\n    function generateNumberWinner() public {\n        uint256 numberGenerated = ((block.number % 36) + 1) % 2;\n        numberWinner = numberGenerated;\n    }\n\n    function distributePrizes(uint256 numberWin) public {\n        Player[100] memory winners;\n        Player[100] memory losers;\n        uint256 numberOfWinners = 0;\n        uint256 numberOfLosers = 0;\n\n        uint256 totalAmountFromWinners = 0; //will be used for caculating weight\n\n        for (uint256 i = 0; i < players.length; i++) {\n            if (players[i].numberSelected == numberWin) {\n                winners[numberOfWinners] = players[i];\n                totalAmountFromWinners += players[i].amountBet;\n                numberOfWinners++;\n            } else {\n                losers[numberOfLosers] = players[i];\n                numberOfLosers++;\n            }\n            delete players[i];\n        }\n\n        if (winners.length > 0) {\n            for (uint256 j = 0; j < numberOfWinners; j++) {\n                if (winners[j].playerAddress != address(0)) {\n                    uint256 winnerEtherAmount = ((winners[j].amountBet /\n                        totalAmountFromWinners) *\n                        totalBet *\n                        (100 - fee)) / 100;\n\n                    payable(winners[j].playerAddress).transfer(\n                        winnerEtherAmount\n                    );\n                    emit Won(true, winners[j].playerAddress, winnerEtherAmount);\n                }\n            }\n        }\n\n        for (uint256 l = 0; l < numberOfLosers; l++) {\n            if (losers[l].playerAddress != address(0))\n                emit Won(false, losers[l].playerAddress, 0);\n        }\n    }\n\n    function resetData() public {\n        delete players;\n        bets.push(Bet(numberWinner, totalBet, numberOfPlayers));\n        totalBet = 0;\n        numberWinner = 2;\n        numberOfPlayers = 0;\n    }\n}\n",
  "sourcePath": "/Volumes/Data/Projects/blocks/weave_test/contracts/ChoHanCasino.sol",
  "compiler": {
    "name": "solc",
    "version": "0.8.0+commit.c7dfd78e.Emscripten.clang"
  },
  "schemaVersion": "3.4.3",
  "updatedAt": "2021-10-05T12:08:32.340Z",
  "devdoc": {
    "kind": "dev",
    "methods": {},
    "version": 1
  },
  "userdoc": {
    "kind": "user",
    "methods": {},
    "version": 1
  }
}