{
  "contractName": "ChoHanCasino",
  "abi": [
    {
      "inputs": [
        {
          "internalType": "uint256",
          "name": "_mininumBet",
          "type": "uint256"
        }
      ],
      "stateMutability": "nonpayable",
      "type": "constructor"
    },
    {
      "anonymous": false,
      "inputs": [
        {
          "indexed": false,
          "internalType": "bool",
          "name": "_status",
          "type": "bool"
        }
      ],
      "name": "BetEnded",
      "type": "event"
    },
    {
      "anonymous": false,
      "inputs": [
        {
          "indexed": false,
          "internalType": "bool",
          "name": "_status",
          "type": "bool"
        },
        {
          "indexed": false,
          "internalType": "uint256",
          "name": "totalBet",
          "type": "uint256"
        },
        {
          "indexed": false,
          "internalType": "uint256",
          "name": "numberOfPlayers",
          "type": "uint256"
        }
      ],
      "name": "BetPlaced",
      "type": "event"
    },
    {
      "anonymous": false,
      "inputs": [
        {
          "indexed": false,
          "internalType": "bool",
          "name": "_status",
          "type": "bool"
        },
        {
          "indexed": false,
          "internalType": "address",
          "name": "_address",
          "type": "address"
        },
        {
          "indexed": false,
          "internalType": "uint256",
          "name": "_amount",
          "type": "uint256"
        }
      ],
      "name": "Won",
      "type": "event"
    },
    {
      "stateMutability": "payable",
      "type": "fallback",
      "payable": true
    },
    {
      "inputs": [
        {
          "internalType": "uint256",
          "name": "",
          "type": "uint256"
        }
      ],
      "name": "bets",
      "outputs": [
        {
          "internalType": "uint256",
          "name": "id",
          "type": "uint256"
        },
        {
          "internalType": "uint256",
          "name": "numberWinner",
          "type": "uint256"
        },
        {
          "internalType": "uint256",
          "name": "totalBet",
          "type": "uint256"
        },
        {
          "internalType": "uint256",
          "name": "numberOfPlayers",
          "type": "uint256"
        },
        {
          "internalType": "bool",
          "name": "ended",
          "type": "bool"
        }
      ],
      "stateMutability": "view",
      "type": "function",
      "constant": true
    },
    {
      "inputs": [],
      "name": "currentBetId",
      "outputs": [
        {
          "internalType": "uint256",
          "name": "",
          "type": "uint256"
        }
      ],
      "stateMutability": "view",
      "type": "function",
      "constant": true
    },
    {
      "inputs": [],
      "name": "fee",
      "outputs": [
        {
          "internalType": "uint256",
          "name": "",
          "type": "uint256"
        }
      ],
      "stateMutability": "view",
      "type": "function",
      "constant": true
    },
    {
      "inputs": [],
      "name": "minNumberPlayer",
      "outputs": [
        {
          "internalType": "uint256",
          "name": "",
          "type": "uint256"
        }
      ],
      "stateMutability": "view",
      "type": "function",
      "constant": true
    },
    {
      "inputs": [],
      "name": "minimumBet",
      "outputs": [
        {
          "internalType": "uint256",
          "name": "",
          "type": "uint256"
        }
      ],
      "stateMutability": "view",
      "type": "function",
      "constant": true
    },
    {
      "inputs": [],
      "name": "numberOfPlayers",
      "outputs": [
        {
          "internalType": "uint256",
          "name": "",
          "type": "uint256"
        }
      ],
      "stateMutability": "view",
      "type": "function",
      "constant": true
    },
    {
      "inputs": [],
      "name": "owner",
      "outputs": [
        {
          "internalType": "address payable",
          "name": "",
          "type": "address"
        }
      ],
      "stateMutability": "view",
      "type": "function",
      "constant": true
    },
    {
      "inputs": [
        {
          "internalType": "uint256",
          "name": "",
          "type": "uint256"
        }
      ],
      "name": "players",
      "outputs": [
        {
          "internalType": "uint256",
          "name": "id",
          "type": "uint256"
        },
        {
          "internalType": "uint256",
          "name": "amountBet",
          "type": "uint256"
        },
        {
          "internalType": "uint256",
          "name": "numberSelected",
          "type": "uint256"
        },
        {
          "internalType": "address payable",
          "name": "playerAddress",
          "type": "address"
        }
      ],
      "stateMutability": "view",
      "type": "function",
      "constant": true
    },
    {
      "stateMutability": "payable",
      "type": "receive",
      "payable": true
    },
    {
      "inputs": [],
      "name": "kill",
      "outputs": [],
      "stateMutability": "nonpayable",
      "type": "function"
    },
    {
      "inputs": [
        {
          "internalType": "uint256",
          "name": "_fee",
          "type": "uint256"
        }
      ],
      "name": "setFee",
      "outputs": [
        {
          "internalType": "uint256",
          "name": "",
          "type": "uint256"
        }
      ],
      "stateMutability": "nonpayable",
      "type": "function"
    },
    {
      "inputs": [
        {
          "internalType": "address payable",
          "name": "reciever",
          "type": "address"
        },
        {
          "internalType": "uint256",
          "name": "_amount",
          "type": "uint256"
        }
      ],
      "name": "withdraw",
      "outputs": [
        {
          "internalType": "bool",
          "name": "",
          "type": "bool"
        }
      ],
      "stateMutability": "nonpayable",
      "type": "function"
    },
    {
      "inputs": [
        {
          "internalType": "address",
          "name": "player",
          "type": "address"
        }
      ],
      "name": "checkPlayerExists",
      "outputs": [
        {
          "internalType": "bool",
          "name": "",
          "type": "bool"
        }
      ],
      "stateMutability": "view",
      "type": "function",
      "constant": true
    },
    {
      "inputs": [
        {
          "internalType": "uint256",
          "name": "_numberSelected",
          "type": "uint256"
        }
      ],
      "name": "bet",
      "outputs": [
        {
          "internalType": "bool",
          "name": "",
          "type": "bool"
        }
      ],
      "stateMutability": "payable",
      "type": "function",
      "payable": true
    },
    {
      "inputs": [],
      "name": "endBet",
      "outputs": [],
      "stateMutability": "nonpayable",
      "type": "function"
    },
    {
      "inputs": [],
      "name": "generateNumberWinner",
      "outputs": [],
      "stateMutability": "nonpayable",
      "type": "function"
    },
    {
      "inputs": [
        {
          "internalType": "uint256",
          "name": "numberWin",
          "type": "uint256"
        }
      ],
      "name": "distributePrizes",
      "outputs": [],
      "stateMutability": "nonpayable",
      "type": "function"
    },
    {
      "inputs": [],
      "name": "resetData",
      "outputs": [],
      "stateMutability": "nonpayable",
      "type": "function"
    }
  ],
  "bytecode": "0x608060405260028055600380553480156200001957600080fd5b5060405162001f3938038062001f3983398181016040528101906200003f919062000151565b336000806101000a81548173ffffffffffffffffffffffffffffffffffffffff021916908373ffffffffffffffffffffffffffffffffffffffff160217905550600081146200009057806001819055505b60076040518060a00160405280600081526020016003815260200160008152602001600081526020016000151581525090806001815401808255809150506001900390600052602060002090600502016000909190919091506000820151816000015560208201518160010155604082015181600201556060820151816003015560808201518160040160006101000a81548160ff021916908315150217905550505050620001a1565b6000815190506200014b8162000187565b92915050565b6000602082840312156200016457600080fd5b600062000174848285016200013a565b91505092915050565b6000819050919050565b62000192816200017d565b81146200019e57600080fd5b50565b611d8880620001b16000396000f3fe6080604052600436106101025760003560e01c80636ca3fc3b116100955780639ada30ac116100645780639ada30ac14610310578063c38a8afd14610327578063ddca3f4314610352578063f3fef3a31461037d578063f71d96cb146103ba57610109565b80636ca3fc3b146102615780636f4bda171461028a5780637365870b146102b55780638da5cb5b146102e557610109565b806341c0e1b5116100d157806341c0e1b5146101cb578063478c4e0e146101e25780635b4a9b51146101f957806369fe0e2d1461022457610109565b80630a50e3611461010b57806316cbfc821461012257806322af00fa1461014d5780634081d9161461018e57610109565b3661010957005b005b34801561011757600080fd5b506101206103fa565b005b34801561012e57600080fd5b50610137610478565b60405161014491906119ba565b60405180910390f35b34801561015957600080fd5b50610174600480360381019061016f9190611785565b61047e565b604051610185959493929190611a1a565b60405180910390f35b34801561019a57600080fd5b506101b560048036038101906101b09190611720565b6104d1565b6040516101c291906118ba565b60405180910390f35b3480156101d757600080fd5b506101e06105c0565b005b3480156101ee57600080fd5b506101f761064f565b005b34801561020557600080fd5b5061020e610788565b60405161021b91906119ba565b60405180910390f35b34801561023057600080fd5b5061024b60048036038101906102469190611785565b61078e565b60405161025891906119ba565b60405180910390f35b34801561026d57600080fd5b5061028860048036038101906102839190611785565b61083e565b005b34801561029657600080fd5b5061029f610f6d565b6040516102ac91906119ba565b60405180910390f35b6102cf60048036038101906102ca9190611785565b610f73565b6040516102dc91906118ba565b60405180910390f35b3480156102f157600080fd5b506102fa611177565b604051610307919061189f565b60405180910390f35b34801561031c57600080fd5b5061032561119b565b005b34801561033357600080fd5b5061033c6114dc565b60405161034991906119ba565b60405180910390f35b34801561035e57600080fd5b506103676114e2565b60405161037491906119ba565b60405180910390f35b34801561038957600080fd5b506103a4600480360381019061039f9190611749565b6114e8565b6040516103b191906118ba565b60405180910390f35b3480156103c657600080fd5b506103e160048036038101906103dc9190611785565b61159b565b6040516103f194939291906119d5565b60405180910390f35b60006002600160244361040d9190611c7e565b6104179190611a7e565b6104219190611c7e565b905080600760055481548110610460577f4e487b7100000000000000000000000000000000000000000000000000000000600052603260045260246000fd5b90600052602060002090600502016001018190555050565b60025481565b6007818154811061048e57600080fd5b90600052602060002090600502016000915090508060000154908060010154908060020154908060030154908060040160009054906101000a900460ff16905085565b60008060068054905014156104e957600090506105bb565b60005b6006805490508110156105b5578273ffffffffffffffffffffffffffffffffffffffff166006828154811061054a577f4e487b7100000000000000000000000000000000000000000000000000000000600052603260045260246000fd5b906000526020600020906004020160030160009054906101000a900473ffffffffffffffffffffffffffffffffffffffff1673ffffffffffffffffffffffffffffffffffffffff1614156105a25760019150506105bb565b80806105ad90611c35565b9150506104ec565b50600090505b919050565b60008054906101000a900473ffffffffffffffffffffffffffffffffffffffff1673ffffffffffffffffffffffffffffffffffffffff163373ffffffffffffffffffffffffffffffffffffffff16141561064d5760008054906101000a900473ffffffffffffffffffffffffffffffffffffffff1673ffffffffffffffffffffffffffffffffffffffff16ff5b565b6006600061065d91906115fb565b600160076005548154811061069b577f4e487b7100000000000000000000000000000000000000000000000000000000600052603260045260246000fd5b906000526020600020906005020160040160006101000a81548160ff02191690831515021790555060076040518060a00160405280600081526020016003815260200160008152602001600081526020016000151581525090806001815401808255809150506001900390600052602060002090600502016000909190919091506000820151816000015560208201518160010155604082015181600201556060820151816003015560808201518160040160006101000a81548160ff02191690831515021790555050506005600081548092919061077990611c35565b91905055506000600481905550565b60055481565b60008060009054906101000a900473ffffffffffffffffffffffffffffffffffffffff1673ffffffffffffffffffffffffffffffffffffffff163373ffffffffffffffffffffffffffffffffffffffff16146107e957600080fd5b606482111561082d576040517f08c379a00000000000000000000000000000000000000000000000000000000081526004016108249061197a565b60405180910390fd5b816003819055506003549050919050565b61084661161f565b61084e61161f565b6000806000805b600680549050811015610bdd57866006828154811061089d577f4e487b7100000000000000000000000000000000000000000000000000000000600052603260045260246000fd5b9060005260206000209060040201600201541415610a2957600681815481106108ef577f4e487b7100000000000000000000000000000000000000000000000000000000600052603260045260246000fd5b90600052602060002090600402016040518060800160405290816000820154815260200160018201548152602001600282015481526020016003820160009054906101000a900473ffffffffffffffffffffffffffffffffffffffff1673ffffffffffffffffffffffffffffffffffffffff1673ffffffffffffffffffffffffffffffffffffffff16815250508685606481106109b5577f4e487b7100000000000000000000000000000000000000000000000000000000600052603260045260246000fd5b6020020181905250600681815481106109f7577f4e487b7100000000000000000000000000000000000000000000000000000000600052603260045260246000fd5b90600052602060002090600402016001015482610a149190611a7e565b91508380610a2190611c35565b945050610b40565b60068181548110610a63577f4e487b7100000000000000000000000000000000000000000000000000000000600052603260045260246000fd5b90600052602060002090600402016040518060800160405290816000820154815260200160018201548152602001600282015481526020016003820160009054906101000a900473ffffffffffffffffffffffffffffffffffffffff1673ffffffffffffffffffffffffffffffffffffffff1673ffffffffffffffffffffffffffffffffffffffff1681525050858460648110610b29577f4e487b7100000000000000000000000000000000000000000000000000000000600052603260045260246000fd5b60200201819052508280610b3c90611c35565b9350505b60068181548110610b7a577f4e487b7100000000000000000000000000000000000000000000000000000000600052603260045260246000fd5b9060005260206000209060040201600080820160009055600182016000905560028201600090556003820160006101000a81549073ffffffffffffffffffffffffffffffffffffffff021916905550508080610bd590611c35565b915050610855565b50600060641115610e525760005b83811015610e5057600073ffffffffffffffffffffffffffffffffffffffff16868260648110610c44577f4e487b7100000000000000000000000000000000000000000000000000000000600052603260045260246000fd5b60200201516060015173ffffffffffffffffffffffffffffffffffffffff1614610e3d57600060646003546064610c7b9190611b5f565b600760055481548110610cb7577f4e487b7100000000000000000000000000000000000000000000000000000000600052603260045260246000fd5b906000526020600020906005020160020154858a8660648110610d03577f4e487b7100000000000000000000000000000000000000000000000000000000600052603260045260246000fd5b602002015160200151610d169190611ad4565b610d209190611b05565b610d2a9190611b05565b610d349190611ad4565b9050868260648110610d6f577f4e487b7100000000000000000000000000000000000000000000000000000000600052603260045260246000fd5b60200201516060015173ffffffffffffffffffffffffffffffffffffffff166108fc829081150290604051600060405180830381858888f19350505050158015610dbd573d6000803e3d6000fd5b507fea7d9b91a9071528af290e91f77561555136fe4d4917c1eefb0868215ddc59386001888460648110610e1a577f4e487b7100000000000000000000000000000000000000000000000000000000600052603260045260246000fd5b60200201516060015183604051610e339392919061190c565b60405180910390a1505b8080610e4890611c35565b915050610beb565b505b60005b82811015610f6457600073ffffffffffffffffffffffffffffffffffffffff16858260648110610eae577f4e487b7100000000000000000000000000000000000000000000000000000000600052603260045260246000fd5b60200201516060015173ffffffffffffffffffffffffffffffffffffffff1614610f51577fea7d9b91a9071528af290e91f77561555136fe4d4917c1eefb0868215ddc59386000868360648110610f2e577f4e487b7100000000000000000000000000000000000000000000000000000000600052603260045260246000fd5b6020020151606001516000604051610f48939291906118d5565b60405180910390a15b8080610f5c90611c35565b915050610e55565b50505050505050565b60045481565b6000610f7e336104d1565b15610f8857600080fd5b6001821115610f9657600080fd5b600154341015610fa557600080fd5b6006604051806080016040528060068054905081526020013481526020018481526020013373ffffffffffffffffffffffffffffffffffffffff16815250908060018154018082558091505060019003906000526020600020906004020160009091909190915060008201518160000155602082015181600101556040820151816002015560608201518160030160006101000a81548173ffffffffffffffffffffffffffffffffffffffff021916908373ffffffffffffffffffffffffffffffffffffffff1602179055505050600680549050600481905550346007600554815481106110bc577f4e487b7100000000000000000000000000000000000000000000000000000000600052603260045260246000fd5b906000526020600020906005020160020160008282546110dc9190611a7e565b925050819055507f73f48c8b3a6136b86375970c55bc7990989b4fc0fc7cc26eccdca9e464f9e2b86001600760055481548110611142577f4e487b7100000000000000000000000000000000000000000000000000000000600052603260045260246000fd5b90600052602060002090600502016002015460045460405161116693929190611943565b60405180910390a160019050919050565b60008054906101000a900473ffffffffffffffffffffffffffffffffffffffff1681565b60008054906101000a900473ffffffffffffffffffffffffffffffffffffffff1673ffffffffffffffffffffffffffffffffffffffff163373ffffffffffffffffffffffffffffffffffffffff16146111f357600080fd5b600060045411611238576040517f08c379a000000000000000000000000000000000000000000000000000000000815260040161122f9061199a565b60405180910390fd5b6001600454141561143b576113066006600081548110611281577f4e487b7100000000000000000000000000000000000000000000000000000000600052603260045260246000fd5b906000526020600020906004020160030160009054906101000a900473ffffffffffffffffffffffffffffffffffffffff166007600554815481106112ef577f4e487b7100000000000000000000000000000000000000000000000000000000600052603260045260246000fd5b9060005260206000209060050201600201546114e8565b506001600760055481548110611345577f4e487b7100000000000000000000000000000000000000000000000000000000600052603260045260246000fd5b906000526020600020906005020160040160006101000a81548160ff0219169083151502179055506006600061137b91906115fb565b60076040518060a00160405280600081526020016003815260200160008152602001600081526020016000151581525090806001815401808255809150506001900390600052602060002090600502016000909190919091506000820151816000015560208201518160010155604082015181600201556060820151816003015560808201518160040160006101000a81548160ff02191690831515021790555050506005600081548092919061143190611c35565b919050555061149a565b6114436103fa565b611499600760055481548110611482577f4e487b7100000000000000000000000000000000000000000000000000000000600052603260045260246000fd5b90600052602060002090600502016001015461083e565b5b6114a261064f565b7f2df0b936b8d4b17610e33161ffadaeaf61b91cc2d2a1855c5f43f8febbc9dd0460016040516114d291906118ba565b60405180910390a1565b60015481565b60035481565b60008060009054906101000a900473ffffffffffffffffffffffffffffffffffffffff1673ffffffffffffffffffffffffffffffffffffffff163373ffffffffffffffffffffffffffffffffffffffff161461154357600080fd5b6000821115611590578273ffffffffffffffffffffffffffffffffffffffff166108fc839081150290604051600060405180830381858888f193505050501561158f5760019050611595565b5b600090505b92915050565b600681815481106115ab57600080fd5b90600052602060002090600402016000915090508060000154908060010154908060020154908060030160009054906101000a900473ffffffffffffffffffffffffffffffffffffffff16905084565b508054600082556004029060005260206000209081019061161c919061164d565b50565b60405180610c8001604052806064905b6116376116a3565b81526020019060019003908161162f5790505090565b5b8082111561169f57600080820160009055600182016000905560028201600090556003820160006101000a81549073ffffffffffffffffffffffffffffffffffffffff02191690555060040161164e565b5090565b6040518060800160405280600081526020016000815260200160008152602001600073ffffffffffffffffffffffffffffffffffffffff1681525090565b6000813590506116f081611d0d565b92915050565b60008135905061170581611d24565b92915050565b60008135905061171a81611d3b565b92915050565b60006020828403121561173257600080fd5b6000611740848285016116e1565b91505092915050565b6000806040838503121561175c57600080fd5b600061176a858286016116f6565b925050602061177b8582860161170b565b9150509250929050565b60006020828403121561179757600080fd5b60006117a58482850161170b565b91505092915050565b6117b781611bed565b82525050565b6117c681611ba5565b82525050565b6117d581611bb7565b82525050565b6117e481611bff565b82525050565b60006117f7602283611a6d565b91507f70657263656e746167652073686f756c64206265206c657373207468616e203160008301527f30300000000000000000000000000000000000000000000000000000000000006020830152604082019050919050565b600061185d601c83611a6d565b91507f73686f756c64206265206d6f7265207468616e203120706c61796572000000006000830152602082019050919050565b61189981611be3565b82525050565b60006020820190506118b460008301846117bd565b92915050565b60006020820190506118cf60008301846117cc565b92915050565b60006060820190506118ea60008301866117cc565b6118f760208301856117ae565b61190460408301846117db565b949350505050565b600060608201905061192160008301866117cc565b61192e60208301856117ae565b61193b6040830184611890565b949350505050565b600060608201905061195860008301866117cc565b6119656020830185611890565b6119726040830184611890565b949350505050565b60006020820190508181036000830152611993816117ea565b9050919050565b600060208201905081810360008301526119b381611850565b9050919050565b60006020820190506119cf6000830184611890565b92915050565b60006080820190506119ea6000830187611890565b6119f76020830186611890565b611a046040830185611890565b611a1160608301846117bd565b95945050505050565b600060a082019050611a2f6000830188611890565b611a3c6020830187611890565b611a496040830186611890565b611a566060830185611890565b611a6360808301846117cc565b9695505050505050565b600082825260208201905092915050565b6000611a8982611be3565b9150611a9483611be3565b9250827fffffffffffffffffffffffffffffffffffffffffffffffffffffffffffffffff03821115611ac957611ac8611caf565b5b828201905092915050565b6000611adf82611be3565b9150611aea83611be3565b925082611afa57611af9611cde565b5b828204905092915050565b6000611b1082611be3565b9150611b1b83611be3565b9250817fffffffffffffffffffffffffffffffffffffffffffffffffffffffffffffffff0483118215151615611b5457611b53611caf565b5b828202905092915050565b6000611b6a82611be3565b9150611b7583611be3565b925082821015611b8857611b87611caf565b5b828203905092915050565b6000611b9e82611bc3565b9050919050565b6000611bb082611bc3565b9050919050565b60008115159050919050565b600073ffffffffffffffffffffffffffffffffffffffff82169050919050565b6000819050919050565b6000611bf882611c11565b9050919050565b6000611c0a82611be3565b9050919050565b6000611c1c82611c23565b9050919050565b6000611c2e82611bc3565b9050919050565b6000611c4082611be3565b91507fffffffffffffffffffffffffffffffffffffffffffffffffffffffffffffffff821415611c7357611c72611caf565b5b600182019050919050565b6000611c8982611be3565b9150611c9483611be3565b925082611ca457611ca3611cde565b5b828206905092915050565b7f4e487b7100000000000000000000000000000000000000000000000000000000600052601160045260246000fd5b7f4e487b7100000000000000000000000000000000000000000000000000000000600052601260045260246000fd5b611d1681611b93565b8114611d2157600080fd5b50565b611d2d81611ba5565b8114611d3857600080fd5b50565b611d4481611be3565b8114611d4f57600080fd5b5056fea26469706673582212208bb4b11599828342f8b56ac22b42f5d0f9fb5bee0c64b76ff55c09597e83e3c564736f6c63430008000033",
  "immutableReferences": {},
  "source": "//SPDX-License-Identifier: UNLICENSED\npragma solidity ^0.8.0;\n\ncontract ChoHanCasino {\n    address payable public owner;\n    uint256 public minimumBet;\n    uint256 public minNumberPlayer = 2;\n    uint256 public fee = 3; // percentage of winners\n    uint256 public numberOfPlayers;\n    uint256 public currentBetId; //also current bet\n\n    struct Player {\n        uint256 id;\n        uint256 amountBet;\n        uint256 numberSelected;\n        address payable playerAddress;\n    }\n\n    struct Bet {\n        uint256 id;\n        uint256 numberWinner;\n        uint256 totalBet;\n        uint256 numberOfPlayers;\n        bool ended;\n    }\n\n    Player[] public players;\n    Bet[] public bets;\n\n    event Won(bool _status, address _address, uint256 _amount);\n    event BetPlaced(bool _status, uint256 totalBet, uint256 numberOfPlayers);\n    event BetEnded(bool _status);\n\n    modifier onlyOwner() {\n        require(msg.sender == owner);\n        _;\n    }\n\n    constructor(uint256 _mininumBet) {\n        owner = payable(msg.sender);\n        if (_mininumBet != 0) minimumBet = _mininumBet;\n        bets.push(Bet(0, 3, 0, 0, false));\n    }\n\n    fallback() external payable {}\n\n    receive() external payable {}\n\n    function kill() public {\n        if (msg.sender == owner) selfdestruct(owner);\n    }\n\n    function setFee(uint256 _fee) public onlyOwner returns (uint256) {\n        require(_fee <= 100, \"percentage should be less than 100\");\n        fee = _fee;\n        return fee;\n    }\n\n    function withdraw(address payable reciever, uint256 _amount)\n        public\n        onlyOwner\n        returns (bool)\n    {\n        if (_amount > 0) {\n            if (reciever.send(_amount)) {\n                return true;\n            }\n        }\n        return false;\n    }\n\n    function checkPlayerExists(address player) public view returns (bool) {\n        if (players.length == 0) return false;\n        for (uint256 i = 0; i < players.length; i++) {\n            if (players[i].playerAddress == player) return true;\n        }\n        return false;\n    }\n\n    function bet(uint256 _numberSelected) public payable returns (bool) {\n        //selected number has to be 1 or 0\n        // 1 for even 0 for odd\n        require(!checkPlayerExists(msg.sender));\n        require(_numberSelected <= 1);\n        require(msg.value >= minimumBet);\n\n        players.push(\n            Player(\n                players.length,\n                msg.value,\n                _numberSelected,\n                payable(msg.sender)\n            )\n        );\n        numberOfPlayers = players.length;\n\n        bets[currentBetId].totalBet += msg.value;\n        emit BetPlaced(true, bets[currentBetId].totalBet, numberOfPlayers);\n        return true;\n    }\n\n    function endBet() public onlyOwner {\n        require(numberOfPlayers > 0, \"should be more than 1 player\");\n\n        if (numberOfPlayers == 1) {\n            withdraw(players[0].playerAddress, bets[currentBetId].totalBet);\n            bets[currentBetId].ended = true;\n            delete players;\n            bets.push(Bet(0, 3, 0, 0, false));\n            currentBetId++;\n        } else {\n            generateNumberWinner();\n            distributePrizes(bets[currentBetId].numberWinner);\n        }\n        resetData();\n        emit BetEnded(true);\n    }\n\n    function generateNumberWinner() public {\n        uint256 numberGenerated = ((block.number % 36) + 1) % 2;\n        bets[currentBetId].numberWinner = numberGenerated;\n    }\n\n    function distributePrizes(uint256 numberWin) public {\n        Player[100] memory winners;\n        Player[100] memory losers;\n        uint256 numberOfWinners = 0;\n        uint256 numberOfLosers = 0;\n\n        uint256 totalAmountFromWinners = 0; //will be used for caculating weight\n\n        for (uint256 i = 0; i < players.length; i++) {\n            if (players[i].numberSelected == numberWin) {\n                winners[numberOfWinners] = players[i];\n                totalAmountFromWinners += players[i].amountBet;\n                numberOfWinners++;\n            } else {\n                losers[numberOfLosers] = players[i];\n                numberOfLosers++;\n            }\n            delete players[i];\n        }\n\n        if (winners.length > 0) {\n            for (uint256 j = 0; j < numberOfWinners; j++) {\n                if (winners[j].playerAddress != address(0)) {\n                    uint256 winnerEtherAmount = ((winners[j].amountBet /\n                        totalAmountFromWinners) *\n                        bets[currentBetId].totalBet *\n                        (100 - fee)) / 100;\n\n                    payable(winners[j].playerAddress).transfer(\n                        winnerEtherAmount\n                    );\n                    emit Won(true, winners[j].playerAddress, winnerEtherAmount);\n                }\n            }\n        }\n\n        for (uint256 l = 0; l < numberOfLosers; l++) {\n            if (losers[l].playerAddress != address(0))\n                emit Won(false, losers[l].playerAddress, 0);\n        }\n    }\n\n    function resetData() public {\n        delete players;\n        bets[currentBetId].ended = true;\n        bets.push(Bet(0, 3, 0, 0, false));\n        currentBetId++;\n        numberOfPlayers = 0;\n    }\n}\n",
  "sourcePath": "/Volumes/Data/Projects/blocks/weave_test/contracts/ChoHanCasino.sol",
  "compiler": {
    "name": "solc",
    "version": "0.8.0+commit.c7dfd78e.Emscripten.clang"
  },
  "schemaVersion": "3.4.3",
  "updatedAt": "2021-10-05T13:11:08.493Z",
  "networkType": "ethereum",
  "devdoc": {
    "kind": "dev",
    "methods": {},
    "version": 1
  },
  "userdoc": {
    "kind": "user",
    "methods": {},
    "version": 1
  }
}