{
  "contractName": "ChoHanCasino",
  "abi": [
    {
      "inputs": [
        {
          "internalType": "uint256",
          "name": "_mininumBet",
          "type": "uint256"
        }
      ],
      "stateMutability": "nonpayable",
      "type": "constructor"
    },
    {
      "anonymous": false,
      "inputs": [
        {
          "indexed": false,
          "internalType": "bool",
          "name": "_status",
          "type": "bool"
        }
      ],
      "name": "BetEnded",
      "type": "event"
    },
    {
      "anonymous": false,
      "inputs": [
        {
          "indexed": false,
          "internalType": "bool",
          "name": "_status",
          "type": "bool"
        }
      ],
      "name": "BetPlaced",
      "type": "event"
    },
    {
      "anonymous": false,
      "inputs": [
        {
          "indexed": false,
          "internalType": "bool",
          "name": "_status",
          "type": "bool"
        },
        {
          "indexed": false,
          "internalType": "address",
          "name": "_address",
          "type": "address"
        },
        {
          "indexed": false,
          "internalType": "uint256",
          "name": "_amount",
          "type": "uint256"
        }
      ],
      "name": "Won",
      "type": "event"
    },
    {
      "stateMutability": "payable",
      "type": "fallback",
      "payable": true
    },
    {
      "inputs": [
        {
          "internalType": "uint256",
          "name": "",
          "type": "uint256"
        }
      ],
      "name": "bets",
      "outputs": [
        {
          "internalType": "uint256",
          "name": "numberWinner",
          "type": "uint256"
        },
        {
          "internalType": "uint256",
          "name": "totalBet",
          "type": "uint256"
        }
      ],
      "stateMutability": "view",
      "type": "function",
      "constant": true
    },
    {
      "inputs": [],
      "name": "minNumberPlayer",
      "outputs": [
        {
          "internalType": "uint256",
          "name": "",
          "type": "uint256"
        }
      ],
      "stateMutability": "view",
      "type": "function",
      "constant": true
    },
    {
      "inputs": [],
      "name": "minimumBet",
      "outputs": [
        {
          "internalType": "uint256",
          "name": "",
          "type": "uint256"
        }
      ],
      "stateMutability": "view",
      "type": "function",
      "constant": true
    },
    {
      "inputs": [],
      "name": "numberOfPlayers",
      "outputs": [
        {
          "internalType": "uint256",
          "name": "",
          "type": "uint256"
        }
      ],
      "stateMutability": "view",
      "type": "function",
      "constant": true
    },
    {
      "inputs": [],
      "name": "numberWinner",
      "outputs": [
        {
          "internalType": "uint256",
          "name": "",
          "type": "uint256"
        }
      ],
      "stateMutability": "view",
      "type": "function",
      "constant": true
    },
    {
      "inputs": [],
      "name": "owner",
      "outputs": [
        {
          "internalType": "address payable",
          "name": "",
          "type": "address"
        }
      ],
      "stateMutability": "view",
      "type": "function",
      "constant": true
    },
    {
      "inputs": [
        {
          "internalType": "uint256",
          "name": "",
          "type": "uint256"
        }
      ],
      "name": "players",
      "outputs": [
        {
          "internalType": "uint256",
          "name": "id",
          "type": "uint256"
        },
        {
          "internalType": "uint256",
          "name": "amountBet",
          "type": "uint256"
        },
        {
          "internalType": "uint256",
          "name": "numberSelected",
          "type": "uint256"
        },
        {
          "internalType": "address payable",
          "name": "playerAddress",
          "type": "address"
        }
      ],
      "stateMutability": "view",
      "type": "function",
      "constant": true
    },
    {
      "inputs": [],
      "name": "totalBet",
      "outputs": [
        {
          "internalType": "uint256",
          "name": "",
          "type": "uint256"
        }
      ],
      "stateMutability": "view",
      "type": "function",
      "constant": true
    },
    {
      "stateMutability": "payable",
      "type": "receive",
      "payable": true
    },
    {
      "inputs": [],
      "name": "kill",
      "outputs": [],
      "stateMutability": "nonpayable",
      "type": "function"
    },
    {
      "inputs": [
        {
          "internalType": "uint256",
          "name": "_amount",
          "type": "uint256"
        }
      ],
      "name": "withdraw",
      "outputs": [
        {
          "internalType": "bool",
          "name": "",
          "type": "bool"
        }
      ],
      "stateMutability": "nonpayable",
      "type": "function"
    },
    {
      "inputs": [
        {
          "internalType": "address",
          "name": "player",
          "type": "address"
        }
      ],
      "name": "checkPlayerExists",
      "outputs": [
        {
          "internalType": "bool",
          "name": "",
          "type": "bool"
        }
      ],
      "stateMutability": "view",
      "type": "function",
      "constant": true
    },
    {
      "inputs": [
        {
          "internalType": "uint256",
          "name": "_numberSelected",
          "type": "uint256"
        }
      ],
      "name": "bet",
      "outputs": [
        {
          "internalType": "bool",
          "name": "",
          "type": "bool"
        }
      ],
      "stateMutability": "payable",
      "type": "function",
      "payable": true
    },
    {
      "inputs": [],
      "name": "betEnd",
      "outputs": [],
      "stateMutability": "nonpayable",
      "type": "function"
    },
    {
      "inputs": [],
      "name": "generateNumberWinner",
      "outputs": [],
      "stateMutability": "nonpayable",
      "type": "function"
    },
    {
      "inputs": [
        {
          "internalType": "uint256",
          "name": "numberWin",
          "type": "uint256"
        }
      ],
      "name": "distributePrizes",
      "outputs": [],
      "stateMutability": "nonpayable",
      "type": "function"
    },
    {
      "inputs": [],
      "name": "resetData",
      "outputs": [],
      "stateMutability": "nonpayable",
      "type": "function"
    }
  ],
  "bytecode": "0x6080604052600260035560026004553480156200001b57600080fd5b506040516200148b3803806200148b8339818101604052810190620000419190620000b0565b336000806101000a81548173ffffffffffffffffffffffffffffffffffffffff021916908373ffffffffffffffffffffffffffffffffffffffff160217905550600081146200009257806001819055505b5062000100565b600081519050620000aa81620000e6565b92915050565b600060208284031215620000c357600080fd5b6000620000d38482850162000099565b91505092915050565b6000819050919050565b620000f181620000dc565b8114620000fd57600080fd5b50565b61137b80620001106000396000f3fe6080604052600436106100f75760003560e01c80636f4bda171161008a578063c38a8afd11610059578063c38a8afd14610302578063f61845be1461032d578063f71d96cb14610344578063fe5e185314610384576100fe565b80636f4bda17146102515780637365870b1461027c5780638da5cb5b146102ac5780639a6a68e9146102d7576100fe565b80634081d916116100c65780634081d916146101bd57806341c0e1b5146101fa578063478c4e0e146102115780636ca3fc3b14610228576100fe565b80630a50e3611461010057806316cbfc821461011757806322af00fa146101425780632e1a7d4d14610180576100fe565b366100fe57005b005b34801561010c57600080fd5b506101156103af565b005b34801561012357600080fd5b5061012c6103e2565b60405161013991906110c3565b60405180910390f35b34801561014e57600080fd5b5061016960048036038101906101649190610fab565b6103e8565b6040516101779291906110de565b60405180910390f35b34801561018c57600080fd5b506101a760048036038101906101a29190610fab565b61041c565b6040516101b4919061103a565b60405180910390f35b3480156101c957600080fd5b506101e460048036038101906101df9190610f82565b6104ce565b6040516101f1919061103a565b60405180910390f35b34801561020657600080fd5b5061020f6105bd565b005b34801561021d57600080fd5b5061022661064c565b005b34801561023457600080fd5b5061024f600480360381019061024a9190610fab565b6106c6565b005b34801561025d57600080fd5b50610266610c0c565b60405161027391906110c3565b60405180910390f35b61029660048036038101906102919190610fab565b610c12565b6040516102a3919061103a565b60405180910390f35b3480156102b857600080fd5b506102c1610d78565b6040516102ce919061101f565b60405180910390f35b3480156102e357600080fd5b506102ec610d9c565b6040516102f991906110c3565b60405180910390f35b34801561030e57600080fd5b50610317610da2565b60405161032491906110c3565b60405180910390f35b34801561033957600080fd5b50610342610da8565b005b34801561035057600080fd5b5061036b60048036038101906103669190610fab565b610e55565b60405161037b9493929190611107565b60405180910390f35b34801561039057600080fd5b50610399610eb5565b6040516103a691906110c3565b60405180910390f35b6000600260016024436103c29190611288565b6103cc919061114c565b6103d69190611288565b90508060048190555050565b60035481565b600781815481106103f857600080fd5b90600052602060002090600202016000915090508060000154908060010154905082565b60008060009054906101000a900473ffffffffffffffffffffffffffffffffffffffff1673ffffffffffffffffffffffffffffffffffffffff163373ffffffffffffffffffffffffffffffffffffffff161461047757600080fd5b60008211156104c4573373ffffffffffffffffffffffffffffffffffffffff166108fc839081150290604051600060405180830381858888f19350505050156104c357600190506104c9565b5b600090505b919050565b60008060068054905014156104e657600090506105b8565b60005b6006805490508110156105b2578273ffffffffffffffffffffffffffffffffffffffff1660068281548110610547577f4e487b7100000000000000000000000000000000000000000000000000000000600052603260045260246000fd5b906000526020600020906004020160030160009054906101000a900473ffffffffffffffffffffffffffffffffffffffff1673ffffffffffffffffffffffffffffffffffffffff16141561059f5760019150506105b8565b80806105aa9061123f565b9150506104e9565b50600090505b919050565b60008054906101000a900473ffffffffffffffffffffffffffffffffffffffff1673ffffffffffffffffffffffffffffffffffffffff163373ffffffffffffffffffffffffffffffffffffffff16141561064a5760008054906101000a900473ffffffffffffffffffffffffffffffffffffffff1673ffffffffffffffffffffffffffffffffffffffff16ff5b565b6006600061065a9190610ebb565b60076040518060400160405280600454815260200160025481525090806001815401808255809150506001900390600052602060002090600202016000909190919091506000820151816000015560208201518160010155505060006002819055506002600481905550565b6106ce610edf565b6106d6610edf565b60008060005b60068054905081101561094e57600060068281548110610725577f4e487b7100000000000000000000000000000000000000000000000000000000600052603260045260246000fd5b906000526020600020906004020160030160009054906101000a900473ffffffffffffffffffffffffffffffffffffffff1690508660068381548110610794577f4e487b7100000000000000000000000000000000000000000000000000000000600052603260045260246000fd5b906000526020600020906004020160020154141561083057808685606481106107e6577f4e487b7100000000000000000000000000000000000000000000000000000000600052603260045260246000fd5b602002019073ffffffffffffffffffffffffffffffffffffffff16908173ffffffffffffffffffffffffffffffffffffffff168152505083806108289061123f565b9450506108b0565b8085846064811061086a577f4e487b7100000000000000000000000000000000000000000000000000000000600052603260045260246000fd5b602002019073ffffffffffffffffffffffffffffffffffffffff16908173ffffffffffffffffffffffffffffffffffffffff168152505082806108ac9061123f565b9350505b600682815481106108ea577f4e487b7100000000000000000000000000000000000000000000000000000000600052603260045260246000fd5b9060005260206000209060040201600080820160009055600182016000905560028201600090556003820160006101000a81549073ffffffffffffffffffffffffffffffffffffffff021916905550505080806109469061123f565b9150506106dc565b5060008214610af95760008260025461096791906111a2565b905060005b83811015610af657600073ffffffffffffffffffffffffffffffffffffffff168682606481106109c5577f4e487b7100000000000000000000000000000000000000000000000000000000600052603260045260246000fd5b602002015173ffffffffffffffffffffffffffffffffffffffff1614610ae357858160648110610a1e577f4e487b7100000000000000000000000000000000000000000000000000000000600052603260045260246000fd5b602002015173ffffffffffffffffffffffffffffffffffffffff166108fc839081150290604051600060405180830381858888f19350505050158015610a68573d6000803e3d6000fd5b507fea7d9b91a9071528af290e91f77561555136fe4d4917c1eefb0868215ddc59386001878360648110610ac5577f4e487b7100000000000000000000000000000000000000000000000000000000600052603260045260246000fd5b602002015184604051610ada9392919061108c565b60405180910390a15b8080610aee9061123f565b91505061096c565b50505b60005b6064811015610c0457600073ffffffffffffffffffffffffffffffffffffffff16848260648110610b56577f4e487b7100000000000000000000000000000000000000000000000000000000600052603260045260246000fd5b602002015173ffffffffffffffffffffffffffffffffffffffff1614610bf1577fea7d9b91a9071528af290e91f77561555136fe4d4917c1eefb0868215ddc59386000858360648110610bd2577f4e487b7100000000000000000000000000000000000000000000000000000000600052603260045260246000fd5b60200201516000604051610be893929190611055565b60405180910390a15b8080610bfc9061123f565b915050610afc565b505050505050565b60055481565b6000610c1d336104ce565b15610c2757600080fd5b6001821115610c3557600080fd5b600154341015610c4457600080fd5b6006604051806080016040528060068054905081526020013481526020018481526020013373ffffffffffffffffffffffffffffffffffffffff16815250908060018154018082558091505060019003906000526020600020906004020160009091909190915060008201518160000155602082015181600101556040820151816002015560608201518160030160006101000a81548173ffffffffffffffffffffffffffffffffffffffff021916908373ffffffffffffffffffffffffffffffffffffffff16021790555050506006805490506005819055503460026000828254610d30919061114c565b925050819055507f6494f2cd0ebe926e766d1151c7660eba5baefbe16aab6837a4f060c4c36f97ca6001604051610d67919061103a565b60405180910390a160019050919050565b60008054906101000a900473ffffffffffffffffffffffffffffffffffffffff1681565b60045481565b60015481565b60008054906101000a900473ffffffffffffffffffffffffffffffffffffffff1673ffffffffffffffffffffffffffffffffffffffff163373ffffffffffffffffffffffffffffffffffffffff1614610e0057600080fd5b610e086103af565b610e136004546106c6565b610e1b61064c565b7f2df0b936b8d4b17610e33161ffadaeaf61b91cc2d2a1855c5f43f8febbc9dd046001604051610e4b919061103a565b60405180910390a1565b60068181548110610e6557600080fd5b90600052602060002090600402016000915090508060000154908060010154908060020154908060030160009054906101000a900473ffffffffffffffffffffffffffffffffffffffff16905084565b60025481565b5080546000825560040290600052602060002090810190610edc9190610f02565b50565b60405180610c800160405280606490602082028036833780820191505090505090565b5b80821115610f5457600080820160009055600182016000905560028201600090556003820160006101000a81549073ffffffffffffffffffffffffffffffffffffffff021916905550600401610f03565b5090565b600081359050610f6781611317565b92915050565b600081359050610f7c8161132e565b92915050565b600060208284031215610f9457600080fd5b6000610fa284828501610f58565b91505092915050565b600060208284031215610fbd57600080fd5b6000610fcb84828501610f6d565b91505092915050565b610fdd816111e5565b82525050565b610fec816111d3565b82525050565b610ffb816111f7565b82525050565b61100a8161122d565b82525050565b61101981611223565b82525050565b60006020820190506110346000830184610fd4565b92915050565b600060208201905061104f6000830184610ff2565b92915050565b600060608201905061106a6000830186610ff2565b6110776020830185610fe3565b6110846040830184611001565b949350505050565b60006060820190506110a16000830186610ff2565b6110ae6020830185610fe3565b6110bb6040830184611010565b949350505050565b60006020820190506110d86000830184611010565b92915050565b60006040820190506110f36000830185611010565b6111006020830184611010565b9392505050565b600060808201905061111c6000830187611010565b6111296020830186611010565b6111366040830185611010565b6111436060830184610fd4565b95945050505050565b600061115782611223565b915061116283611223565b9250827fffffffffffffffffffffffffffffffffffffffffffffffffffffffffffffffff03821115611197576111966112b9565b5b828201905092915050565b60006111ad82611223565b91506111b883611223565b9250826111c8576111c76112e8565b5b828204905092915050565b60006111de82611203565b9050919050565b60006111f082611203565b9050919050565b60008115159050919050565b600073ffffffffffffffffffffffffffffffffffffffff82169050919050565b6000819050919050565b600061123882611223565b9050919050565b600061124a82611223565b91507fffffffffffffffffffffffffffffffffffffffffffffffffffffffffffffffff82141561127d5761127c6112b9565b5b600182019050919050565b600061129382611223565b915061129e83611223565b9250826112ae576112ad6112e8565b5b828206905092915050565b7f4e487b7100000000000000000000000000000000000000000000000000000000600052601160045260246000fd5b7f4e487b7100000000000000000000000000000000000000000000000000000000600052601260045260246000fd5b611320816111d3565b811461132b57600080fd5b50565b61133781611223565b811461134257600080fd5b5056fea2646970667358221220772e694c4c35680a393e32cd73214eaa1c1c6c2de10d9d14694c790c55b3f37e64736f6c63430008000033",
  "immutableReferences": {},
  "source": "//SPDX-License-Identifier: UNLICENSED\npragma solidity ^0.8.0;\n\ncontract ChoHanCasino {\n    address payable public owner;\n    uint256 public minimumBet;\n    uint256 public totalBet;\n    uint256 public minNumberPlayer = 2;\n    uint256 public numberWinner = 2;\n    uint256 public numberOfPlayers;\n\n    struct Player {\n        uint256 id;\n        uint256 amountBet;\n        uint256 numberSelected;\n        address payable playerAddress;\n    }\n\n    struct Bet {\n        uint256 numberWinner;\n        uint256 totalBet;\n    }\n\n    Player[] public players;\n    Bet[] public bets;\n\n    event Won(bool _status, address _address, uint256 _amount);\n    event BetPlaced(bool _status);\n    event BetEnded(bool _status);\n\n    modifier onlyOwner() {\n        require(msg.sender == owner);\n        _;\n    }\n\n    constructor(uint256 _mininumBet) {\n        owner = payable(msg.sender);\n        if (_mininumBet != 0) minimumBet = _mininumBet;\n    }\n\n    fallback() external payable {}\n\n    receive() external payable {}\n\n    function kill() public {\n        if (msg.sender == owner) selfdestruct(owner);\n    }\n\n    function withdraw(uint256 _amount) public onlyOwner returns (bool) {\n        if (_amount > 0) {\n            if (payable(msg.sender).send(_amount)) {\n                return true;\n            }\n        }\n        return false;\n    }\n\n    function checkPlayerExists(address player) public view returns (bool) {\n        if (players.length == 0) return false;\n        for (uint256 i = 0; i < players.length; i++) {\n            if (players[i].playerAddress == player) return true;\n        }\n        return false;\n    }\n\n    function bet(uint256 _numberSelected) public payable returns (bool) {\n        //selected number has to be 1 or 0\n        // 1 for even 0 for odd\n        require(!checkPlayerExists(msg.sender));\n        require(_numberSelected <= 1);\n        require(msg.value >= minimumBet);\n\n        players.push(\n            Player(\n                players.length,\n                msg.value,\n                _numberSelected,\n                payable(msg.sender)\n            )\n        );\n        numberOfPlayers = players.length;\n\n        totalBet += msg.value;\n        emit BetPlaced(true);\n        return true;\n    }\n\n    function betEnd() public onlyOwner {\n        generateNumberWinner();\n        distributePrizes(numberWinner);\n        resetData();\n        emit BetEnded(true);\n    }\n\n    function generateNumberWinner() public {\n        uint256 numberGenerated = ((block.number % 36) + 1) % 2;\n        numberWinner = numberGenerated;\n    }\n\n    function distributePrizes(uint256 numberWin) public {\n        address[100] memory winners;\n        address[100] memory losers;\n        uint256 countWin = 0;\n        uint256 countLose = 0;\n\n        for (uint256 i = 0; i < players.length; i++) {\n            address playerAddress = players[i].playerAddress;\n            if (players[i].numberSelected == numberWin) {\n                winners[countWin] = playerAddress;\n                countWin++;\n            } else {\n                losers[countLose] = playerAddress;\n                countLose++;\n            }\n            delete players[i];\n        }\n\n        if (countWin != 0) {\n            uint256 winnerEtherAmount = totalBet / countWin;\n\n            for (uint256 j = 0; j < countWin; j++) {\n                if (winners[j] != address(0)) {\n                    payable(winners[j]).transfer(winnerEtherAmount);\n                    emit Won(true, winners[j], winnerEtherAmount);\n                }\n            }\n        }\n\n        for (uint256 l = 0; l < losers.length; l++) {\n            if (losers[l] != address(0)) emit Won(false, losers[l], 0);\n        }\n    }\n\n    function resetData() public {\n        delete players;\n        bets.push(Bet(numberWinner, totalBet));\n        totalBet = 0;\n        numberWinner = 2;\n    }\n}\n",
  "sourcePath": "/Volumes/Data/Projects/blocks/weave_test/contracts/ChoHanCasino.sol",
  "compiler": {
    "name": "solc",
    "version": "0.8.0+commit.c7dfd78e.Emscripten.clang"
  },
  "schemaVersion": "3.4.3",
  "updatedAt": "2021-10-05T03:53:49.240Z",
  "networkType": "ethereum",
  "devdoc": {
    "kind": "dev",
    "methods": {},
    "version": 1
  },
  "userdoc": {
    "kind": "user",
    "methods": {},
    "version": 1
  }
}