{
  "contractName": "ChoHanCasino",
  "abi": [
    {
      "inputs": [
        {
          "internalType": "uint256",
          "name": "_mininumBet",
          "type": "uint256"
        }
      ],
      "stateMutability": "nonpayable",
      "type": "constructor"
    },
    {
      "anonymous": false,
      "inputs": [
        {
          "components": [
            {
              "internalType": "uint256",
              "name": "id",
              "type": "uint256"
            },
            {
              "internalType": "enum ChoHanCasino.Pairity",
              "name": "pairity",
              "type": "uint8"
            },
            {
              "internalType": "uint256",
              "name": "totalBet",
              "type": "uint256"
            },
            {
              "internalType": "uint256",
              "name": "numberOfPlayers",
              "type": "uint256"
            },
            {
              "internalType": "bool",
              "name": "ended",
              "type": "bool"
            },
            {
              "components": [
                {
                  "internalType": "uint256",
                  "name": "dice1",
                  "type": "uint256"
                },
                {
                  "internalType": "uint256",
                  "name": "dice2",
                  "type": "uint256"
                }
              ],
              "internalType": "struct ChoHanCasino.Pair",
              "name": "pair",
              "type": "tuple"
            }
          ],
          "indexed": false,
          "internalType": "struct ChoHanCasino.Bet",
          "name": "lastBet",
          "type": "tuple"
        }
      ],
      "name": "BetEnded",
      "type": "event"
    },
    {
      "anonymous": false,
      "inputs": [
        {
          "components": [
            {
              "internalType": "uint256",
              "name": "id",
              "type": "uint256"
            },
            {
              "internalType": "enum ChoHanCasino.Pairity",
              "name": "pairity",
              "type": "uint8"
            },
            {
              "internalType": "uint256",
              "name": "totalBet",
              "type": "uint256"
            },
            {
              "internalType": "uint256",
              "name": "numberOfPlayers",
              "type": "uint256"
            },
            {
              "internalType": "bool",
              "name": "ended",
              "type": "bool"
            },
            {
              "components": [
                {
                  "internalType": "uint256",
                  "name": "dice1",
                  "type": "uint256"
                },
                {
                  "internalType": "uint256",
                  "name": "dice2",
                  "type": "uint256"
                }
              ],
              "internalType": "struct ChoHanCasino.Pair",
              "name": "pair",
              "type": "tuple"
            }
          ],
          "indexed": false,
          "internalType": "struct ChoHanCasino.Bet",
          "name": "lastBet",
          "type": "tuple"
        }
      ],
      "name": "BetPlaced",
      "type": "event"
    },
    {
      "anonymous": false,
      "inputs": [
        {
          "indexed": false,
          "internalType": "enum ChoHanCasino.Result",
          "name": "_status",
          "type": "uint8"
        },
        {
          "indexed": false,
          "internalType": "address",
          "name": "_address",
          "type": "address"
        },
        {
          "indexed": false,
          "internalType": "uint256",
          "name": "_amount",
          "type": "uint256"
        }
      ],
      "name": "BetResult",
      "type": "event"
    },
    {
      "stateMutability": "payable",
      "type": "fallback",
      "payable": true
    },
    {
      "inputs": [
        {
          "internalType": "uint256",
          "name": "",
          "type": "uint256"
        }
      ],
      "name": "bets",
      "outputs": [
        {
          "internalType": "uint256",
          "name": "id",
          "type": "uint256"
        },
        {
          "internalType": "enum ChoHanCasino.Pairity",
          "name": "pairity",
          "type": "uint8"
        },
        {
          "internalType": "uint256",
          "name": "totalBet",
          "type": "uint256"
        },
        {
          "internalType": "uint256",
          "name": "numberOfPlayers",
          "type": "uint256"
        },
        {
          "internalType": "bool",
          "name": "ended",
          "type": "bool"
        },
        {
          "components": [
            {
              "internalType": "uint256",
              "name": "dice1",
              "type": "uint256"
            },
            {
              "internalType": "uint256",
              "name": "dice2",
              "type": "uint256"
            }
          ],
          "internalType": "struct ChoHanCasino.Pair",
          "name": "pair",
          "type": "tuple"
        }
      ],
      "stateMutability": "view",
      "type": "function",
      "constant": true
    },
    {
      "inputs": [],
      "name": "currentBetId",
      "outputs": [
        {
          "internalType": "uint256",
          "name": "",
          "type": "uint256"
        }
      ],
      "stateMutability": "view",
      "type": "function",
      "constant": true
    },
    {
      "inputs": [],
      "name": "fee",
      "outputs": [
        {
          "internalType": "uint256",
          "name": "",
          "type": "uint256"
        }
      ],
      "stateMutability": "view",
      "type": "function",
      "constant": true
    },
    {
      "inputs": [],
      "name": "minNumberPlayer",
      "outputs": [
        {
          "internalType": "uint256",
          "name": "",
          "type": "uint256"
        }
      ],
      "stateMutability": "view",
      "type": "function",
      "constant": true
    },
    {
      "inputs": [],
      "name": "minimumBet",
      "outputs": [
        {
          "internalType": "uint256",
          "name": "",
          "type": "uint256"
        }
      ],
      "stateMutability": "view",
      "type": "function",
      "constant": true
    },
    {
      "inputs": [],
      "name": "numberOfPlayers",
      "outputs": [
        {
          "internalType": "uint256",
          "name": "",
          "type": "uint256"
        }
      ],
      "stateMutability": "view",
      "type": "function",
      "constant": true
    },
    {
      "inputs": [],
      "name": "owner",
      "outputs": [
        {
          "internalType": "address payable",
          "name": "",
          "type": "address"
        }
      ],
      "stateMutability": "view",
      "type": "function",
      "constant": true
    },
    {
      "inputs": [
        {
          "internalType": "uint256",
          "name": "",
          "type": "uint256"
        }
      ],
      "name": "players",
      "outputs": [
        {
          "internalType": "uint256",
          "name": "id",
          "type": "uint256"
        },
        {
          "internalType": "uint256",
          "name": "amountBet",
          "type": "uint256"
        },
        {
          "internalType": "enum ChoHanCasino.Pairity",
          "name": "pairity",
          "type": "uint8"
        },
        {
          "internalType": "address payable",
          "name": "playerAddress",
          "type": "address"
        }
      ],
      "stateMutability": "view",
      "type": "function",
      "constant": true
    },
    {
      "inputs": [
        {
          "internalType": "address",
          "name": "",
          "type": "address"
        }
      ],
      "name": "playersInfo",
      "outputs": [
        {
          "internalType": "uint256",
          "name": "id",
          "type": "uint256"
        },
        {
          "internalType": "uint256",
          "name": "amountBet",
          "type": "uint256"
        },
        {
          "internalType": "enum ChoHanCasino.Pairity",
          "name": "pairity",
          "type": "uint8"
        },
        {
          "internalType": "address payable",
          "name": "playerAddress",
          "type": "address"
        }
      ],
      "stateMutability": "view",
      "type": "function",
      "constant": true
    },
    {
      "stateMutability": "payable",
      "type": "receive",
      "payable": true
    },
    {
      "inputs": [],
      "name": "kill",
      "outputs": [],
      "stateMutability": "nonpayable",
      "type": "function"
    },
    {
      "inputs": [
        {
          "internalType": "uint256",
          "name": "_fee",
          "type": "uint256"
        }
      ],
      "name": "setFee",
      "outputs": [
        {
          "internalType": "uint256",
          "name": "",
          "type": "uint256"
        }
      ],
      "stateMutability": "nonpayable",
      "type": "function"
    },
    {
      "inputs": [
        {
          "internalType": "address payable",
          "name": "reciever",
          "type": "address"
        },
        {
          "internalType": "uint256",
          "name": "_amount",
          "type": "uint256"
        }
      ],
      "name": "withdraw",
      "outputs": [
        {
          "internalType": "bool",
          "name": "",
          "type": "bool"
        }
      ],
      "stateMutability": "nonpayable",
      "type": "function"
    },
    {
      "inputs": [
        {
          "internalType": "address",
          "name": "player",
          "type": "address"
        }
      ],
      "name": "checkPlayerExists",
      "outputs": [
        {
          "internalType": "bool",
          "name": "",
          "type": "bool"
        }
      ],
      "stateMutability": "view",
      "type": "function",
      "constant": true
    },
    {
      "inputs": [
        {
          "internalType": "enum ChoHanCasino.Pairity",
          "name": "_pairity",
          "type": "uint8"
        }
      ],
      "name": "bet",
      "outputs": [
        {
          "internalType": "bool",
          "name": "",
          "type": "bool"
        }
      ],
      "stateMutability": "payable",
      "type": "function",
      "payable": true
    },
    {
      "inputs": [],
      "name": "endBet",
      "outputs": [],
      "stateMutability": "nonpayable",
      "type": "function"
    },
    {
      "inputs": [],
      "name": "generatePairity",
      "outputs": [],
      "stateMutability": "nonpayable",
      "type": "function"
    },
    {
      "inputs": [
        {
          "internalType": "enum ChoHanCasino.Pairity",
          "name": "_pairity",
          "type": "uint8"
        }
      ],
      "name": "distributePrizes",
      "outputs": [],
      "stateMutability": "nonpayable",
      "type": "function"
    },
    {
      "inputs": [],
      "name": "resetData",
      "outputs": [],
      "stateMutability": "nonpayable",
      "type": "function"
    }
  ],
  "bytecode": "0x608060405260028055600380553480156200001957600080fd5b5060405162002cf738038062002cf783398181016040528101906200003f919062000211565b336000806101000a81548173ffffffffffffffffffffffffffffffffffffffff021916908373ffffffffffffffffffffffffffffffffffffffff160217905550600081146200009057806001819055505b60096040518060c0016040528060018152602001600280811115620000de577f4e487b7100000000000000000000000000000000000000000000000000000000600052602160045260246000fd5b81526020016000815260200160008152602001600015158152602001604051806040016040528060008152602001600081525081525090806001815401808255809150506001900390600052602060002090600702016000909190919091506000820151816000015560208201518160010160006101000a81548160ff0219169083600281111562000199577f4e487b7100000000000000000000000000000000000000000000000000000000600052602160045260246000fd5b0217905550604082015181600201556060820151816003015560808201518160040160006101000a81548160ff02191690831515021790555060a0820151816005016000820151816000015560208201518160010155505050505062000261565b6000815190506200020b8162000247565b92915050565b6000602082840312156200022457600080fd5b60006200023484828501620001fa565b91505092915050565b6000819050919050565b62000252816200023d565b81146200025e57600080fd5b50565b612a8680620002716000396000f3fe60806040526004361061010d5760003560e01c80636f4bda1711610095578063d0821b0e11610064578063d0821b0e14610357578063ddca3f4314610387578063f3fef3a3146103b2578063f5cdfab3146103ef578063f71d96cb1461040657610114565b80636f4bda17146102bf5780638da5cb5b146102ea5780639ada30ac14610315578063c38a8afd1461032c57610114565b806341c0e1b5116100dc57806341c0e1b514610200578063478c4e0e146102175780635b4a9b511461022e57806361edf9b21461025957806369fe0e2d1461028257610114565b80630e959dd71461011657806316cbfc821461015657806322af00fa146101815780634081d916146101c357610114565b3661011457005b005b34801561012257600080fd5b5061013d60048036038101906101389190612101565b610446565b60405161014d94939291906125ec565b60405180910390f35b34801561016257600080fd5b5061016b6104a3565b6040516101789190612570565b60405180910390f35b34801561018d57600080fd5b506101a860048036038101906101a3919061218f565b6104a9565b6040516101ba9695949392919061258b565b60405180910390f35b3480156101cf57600080fd5b506101ea60048036038101906101e59190612101565b61052d565b6040516101f7919061248c565b60405180910390f35b34801561020c57600080fd5b5061021561061c565b005b34801561022357600080fd5b5061022c6106ab565b005b34801561023a57600080fd5b506102436108a2565b6040516102509190612570565b60405180910390f35b34801561026557600080fd5b50610280600480360381019061027b9190612166565b6108a8565b005b34801561028e57600080fd5b506102a960048036038101906102a4919061218f565b611252565b6040516102b69190612570565b60405180910390f35b3480156102cb57600080fd5b506102d4611302565b6040516102e19190612570565b60405180910390f35b3480156102f657600080fd5b506102ff611308565b60405161030c9190612471565b60405180910390f35b34801561032157600080fd5b5061032a61132c565b005b34801561033857600080fd5b5061034161178c565b60405161034e9190612570565b60405180910390f35b610371600480360381019061036c9190612166565b611792565b60405161037e919061248c565b60405180910390f35b34801561039357600080fd5b5061039c611bad565b6040516103a99190612570565b60405180910390f35b3480156103be57600080fd5b506103d960048036038101906103d4919061212a565b611bb3565b6040516103e6919061248c565b60405180910390f35b3480156103fb57600080fd5b50610404611c66565b005b34801561041257600080fd5b5061042d6004803603810190610428919061218f565b611eaa565b60405161043d94939291906125ec565b60405180910390f35b60076020528060005260406000206000915090508060000154908060010154908060020160009054906101000a900460ff16908060020160019054906101000a900473ffffffffffffffffffffffffffffffffffffffff16905084565b60025481565b600981815481106104b957600080fd5b90600052602060002090600702016000915090508060000154908060010160009054906101000a900460ff16908060020154908060030154908060040160009054906101000a900460ff16908060050160405180604001604052908160008201548152602001600182015481525050905086565b60008060088054905014156105455760009050610617565b60005b600880549050811015610611578273ffffffffffffffffffffffffffffffffffffffff16600882815481106105a6577f4e487b7100000000000000000000000000000000000000000000000000000000600052603260045260246000fd5b906000526020600020906003020160020160019054906101000a900473ffffffffffffffffffffffffffffffffffffffff1673ffffffffffffffffffffffffffffffffffffffff1614156105fe576001915050610617565b8080610609906128b5565b915050610548565b50600090505b919050565b60008054906101000a900473ffffffffffffffffffffffffffffffffffffffff1673ffffffffffffffffffffffffffffffffffffffff163373ffffffffffffffffffffffffffffffffffffffff1614156106a95760008054906101000a900473ffffffffffffffffffffffffffffffffffffffff1673ffffffffffffffffffffffffffffffffffffffff16ff5b565b600860006106b99190611f83565b60016009600554815481106106f7577f4e487b7100000000000000000000000000000000000000000000000000000000600052603260045260246000fd5b906000526020600020906007020160040160006101000a81548160ff02191690831515021790555060096040518060c001604052806000815260200160028081111561076c577f4e487b7100000000000000000000000000000000000000000000000000000000600052602160045260246000fd5b81526020016000815260200160008152602001600015158152602001604051806040016040528060008152602001600081525081525090806001815401808255809150506001900390600052602060002090600702016000909190919091506000820151816000015560208201518160010160006101000a81548160ff02191690836002811115610826577f4e487b7100000000000000000000000000000000000000000000000000000000600052602160045260246000fd5b0217905550604082015181600201556060820151816003015560808201518160040160006101000a81548160ff02191690831515021790555060a08201518160050160008201518160000155602082015181600101555050505060056000815480929190610893906128b5565b91905055506000600481905550565b60055481565b6108b0611fa7565b6108b8611fa7565b6000806000805b600880549050811015610ec257866002811115610905577f4e487b7100000000000000000000000000000000000000000000000000000000600052602160045260246000fd5b6008828154811061093f577f4e487b7100000000000000000000000000000000000000000000000000000000600052603260045260246000fd5b906000526020600020906003020160020160009054906101000a900460ff166002811115610996577f4e487b7100000000000000000000000000000000000000000000000000000000600052602160045260246000fd5b1415610b8d57600881815481106109d6577f4e487b7100000000000000000000000000000000000000000000000000000000600052603260045260246000fd5b906000526020600020906003020160405180608001604052908160008201548152602001600182015481526020016002820160009054906101000a900460ff166002811115610a4e577f4e487b7100000000000000000000000000000000000000000000000000000000600052602160045260246000fd5b6002811115610a86577f4e487b7100000000000000000000000000000000000000000000000000000000600052602160045260246000fd5b81526020016002820160019054906101000a900473ffffffffffffffffffffffffffffffffffffffff1673ffffffffffffffffffffffffffffffffffffffff1673ffffffffffffffffffffffffffffffffffffffff1681525050868560648110610b19577f4e487b7100000000000000000000000000000000000000000000000000000000600052603260045260246000fd5b602002018190525060088181548110610b5b577f4e487b7100000000000000000000000000000000000000000000000000000000600052603260045260246000fd5b90600052602060002090600302016001015482610b789190612642565b91508380610b85906128b5565b945050610d21565b60088181548110610bc7577f4e487b7100000000000000000000000000000000000000000000000000000000600052603260045260246000fd5b906000526020600020906003020160405180608001604052908160008201548152602001600182015481526020016002820160009054906101000a900460ff166002811115610c3f577f4e487b7100000000000000000000000000000000000000000000000000000000600052602160045260246000fd5b6002811115610c77577f4e487b7100000000000000000000000000000000000000000000000000000000600052602160045260246000fd5b81526020016002820160019054906101000a900473ffffffffffffffffffffffffffffffffffffffff1673ffffffffffffffffffffffffffffffffffffffff1673ffffffffffffffffffffffffffffffffffffffff1681525050858460648110610d0a577f4e487b7100000000000000000000000000000000000000000000000000000000600052603260045260246000fd5b60200201819052508280610d1d906128b5565b9350505b6007600060088381548110610d5f577f4e487b7100000000000000000000000000000000000000000000000000000000600052603260045260246000fd5b906000526020600020906003020160020160019054906101000a900473ffffffffffffffffffffffffffffffffffffffff1673ffffffffffffffffffffffffffffffffffffffff1673ffffffffffffffffffffffffffffffffffffffff16815260200190815260200160002060008082016000905560018201600090556002820160006101000a81549060ff02191690556002820160016101000a81549073ffffffffffffffffffffffffffffffffffffffff0219169055505060088181548110610e53577f4e487b7100000000000000000000000000000000000000000000000000000000600052603260045260246000fd5b906000526020600020906003020160008082016000905560018201600090556002820160006101000a81549060ff02191690556002820160016101000a81549073ffffffffffffffffffffffffffffffffffffffff021916905550508080610eba906128b5565b9150506108bf565b506000606411156111375760005b8381101561113557600073ffffffffffffffffffffffffffffffffffffffff16868260648110610f29577f4e487b7100000000000000000000000000000000000000000000000000000000600052603260045260246000fd5b60200201516060015173ffffffffffffffffffffffffffffffffffffffff161461112257600060646003546064610f609190612723565b600960055481548110610f9c577f4e487b7100000000000000000000000000000000000000000000000000000000600052603260045260246000fd5b906000526020600020906007020160020154858a8660648110610fe8577f4e487b7100000000000000000000000000000000000000000000000000000000600052603260045260246000fd5b602002015160200151610ffb9190612698565b61100591906126c9565b61100f91906126c9565b6110199190612698565b9050868260648110611054577f4e487b7100000000000000000000000000000000000000000000000000000000600052603260045260246000fd5b60200201516060015173ffffffffffffffffffffffffffffffffffffffff166108fc829081150290604051600060405180830381858888f193505050501580156110a2573d6000803e3d6000fd5b507f08b35d83d81b7166a3dc576b6dc7d660a57432d174e092ea7f11670806dc951260008884606481106110ff577f4e487b7100000000000000000000000000000000000000000000000000000000600052603260045260246000fd5b60200201516060015183604051611118939291906124de565b60405180910390a1505b808061112d906128b5565b915050610ed0565b505b60005b8281101561124957600073ffffffffffffffffffffffffffffffffffffffff16858260648110611193577f4e487b7100000000000000000000000000000000000000000000000000000000600052603260045260246000fd5b60200201516060015173ffffffffffffffffffffffffffffffffffffffff1614611236577f08b35d83d81b7166a3dc576b6dc7d660a57432d174e092ea7f11670806dc95126001868360648110611213577f4e487b7100000000000000000000000000000000000000000000000000000000600052603260045260246000fd5b602002015160600151600060405161122d939291906124a7565b60405180910390a15b8080611241906128b5565b91505061113a565b50505050505050565b60008060009054906101000a900473ffffffffffffffffffffffffffffffffffffffff1673ffffffffffffffffffffffffffffffffffffffff163373ffffffffffffffffffffffffffffffffffffffff16146112ad57600080fd5b60648211156112f1576040517f08c379a00000000000000000000000000000000000000000000000000000000081526004016112e890612515565b60405180910390fd5b816003819055506003549050919050565b60045481565b60008054906101000a900473ffffffffffffffffffffffffffffffffffffffff1681565b60008054906101000a900473ffffffffffffffffffffffffffffffffffffffff1673ffffffffffffffffffffffffffffffffffffffff163373ffffffffffffffffffffffffffffffffffffffff161461138457600080fd5b6000600454116113c9576040517f08c379a00000000000000000000000000000000000000000000000000000000081526004016113c090612535565b60405180910390fd5b6001600454141561168a576114976008600081548110611412577f4e487b7100000000000000000000000000000000000000000000000000000000600052603260045260246000fd5b906000526020600020906003020160020160019054906101000a900473ffffffffffffffffffffffffffffffffffffffff16600960055481548110611480577f4e487b7100000000000000000000000000000000000000000000000000000000600052603260045260246000fd5b906000526020600020906007020160020154611bb3565b5060016009600554815481106114d6577f4e487b7100000000000000000000000000000000000000000000000000000000600052603260045260246000fd5b906000526020600020906007020160040160006101000a81548160ff0219169083151502179055506008600061150c9190611f83565b60096040518060c0016040528060008152602001600280811115611559577f4e487b7100000000000000000000000000000000000000000000000000000000600052602160045260246000fd5b81526020016000815260200160008152602001600015158152602001604051806040016040528060008152602001600081525081525090806001815401808255809150506001900390600052602060002090600702016000909190919091506000820151816000015560208201518160010160006101000a81548160ff02191690836002811115611613577f4e487b7100000000000000000000000000000000000000000000000000000000600052602160045260246000fd5b0217905550604082015181600201556060820151816003015560808201518160040160006101000a81548160ff02191690831515021790555060a08201518160050160008201518160000155602082015181600101555050505060056000815480929190611680906128b5565b91905055506116f6565b611692611c66565b6116f56009600554815481106116d1577f4e487b7100000000000000000000000000000000000000000000000000000000600052603260045260246000fd5b906000526020600020906007020160010160009054906101000a900460ff166108a8565b5b6116fe6106ab565b7fb6113214ff2bfaf835734897ae06c7903909e32cb55f630689c7127fcba775df600960016005546117309190612723565b81548110611767577f4e487b7100000000000000000000000000000000000000000000000000000000600052603260045260246000fd5b90600052602060002090600702016040516117829190612555565b60405180910390a1565b60015481565b600061179d3361052d565b156117a757600080fd5b60018260028111156117e2577f4e487b7100000000000000000000000000000000000000000000000000000000600052602160045260246000fd5b60ff1611156117f057600080fd5b6001543410156117ff57600080fd5b600060405180608001604052806008805490508152602001348152602001846002811115611856577f4e487b7100000000000000000000000000000000000000000000000000000000600052602160045260246000fd5b81526020013373ffffffffffffffffffffffffffffffffffffffff1681525090506008819080600181540180825580915050600190039060005260206000209060030201600090919091909150600082015181600001556020820151816001015560408201518160020160006101000a81548160ff02191690836002811115611908577f4e487b7100000000000000000000000000000000000000000000000000000000600052602160045260246000fd5b021790555060608201518160020160016101000a81548173ffffffffffffffffffffffffffffffffffffffff021916908373ffffffffffffffffffffffffffffffffffffffff160217905550505080600760003373ffffffffffffffffffffffffffffffffffffffff1673ffffffffffffffffffffffffffffffffffffffff168152602001908152602001600020600082015181600001556020820151816001015560408201518160020160006101000a81548160ff021916908360028111156119fb577f4e487b7100000000000000000000000000000000000000000000000000000000600052602160045260246000fd5b021790555060608201518160020160016101000a81548173ffffffffffffffffffffffffffffffffffffffff021916908373ffffffffffffffffffffffffffffffffffffffff160217905550905050600880549050600481905550600880549050600960055481548110611a98577f4e487b7100000000000000000000000000000000000000000000000000000000600052603260045260246000fd5b90600052602060002090600702016003016000828254611ab89190612642565b9250508190555034600960055481548110611afc577f4e487b7100000000000000000000000000000000000000000000000000000000600052603260045260246000fd5b90600052602060002090600702016002016000828254611b1c9190612642565b925050819055507f082a5907d5fd1318639350244338061545cae7b74579aee3efa80508e80408d9600960055481548110611b80577f4e487b7100000000000000000000000000000000000000000000000000000000600052603260045260246000fd5b9060005260206000209060070201604051611b9b9190612555565b60405180910390a16001915050919050565b60035481565b60008060009054906101000a900473ffffffffffffffffffffffffffffffffffffffff1673ffffffffffffffffffffffffffffffffffffffff163373ffffffffffffffffffffffffffffffffffffffff1614611c0e57600080fd5b6000821115611c5b578273ffffffffffffffffffffffffffffffffffffffff166108fc839081150290604051600060405180830381858888f1935050505015611c5a5760019050611c60565b5b600090505b92915050565b611c6e611f17565b600960055481548110611caa577f4e487b7100000000000000000000000000000000000000000000000000000000600052603260045260246000fd5b906000526020600020906007020160050160000181905550611cca611f17565b600960055481548110611d06577f4e487b7100000000000000000000000000000000000000000000000000000000600052603260045260246000fd5b9060005260206000209060070201600501600101819055506002600960055481548110611d5c577f4e487b7100000000000000000000000000000000000000000000000000000000600052603260045260246000fd5b906000526020600020906007020160050160010154600960055481548110611dad577f4e487b7100000000000000000000000000000000000000000000000000000000600052603260045260246000fd5b906000526020600020906007020160050160000154611dcc9190612642565b611dd69190612908565b6002811115611e0e577f4e487b7100000000000000000000000000000000000000000000000000000000600052602160045260246000fd5b600960055481548110611e4a577f4e487b7100000000000000000000000000000000000000000000000000000000600052603260045260246000fd5b906000526020600020906007020160010160006101000a81548160ff02191690836002811115611ea3577f4e487b7100000000000000000000000000000000000000000000000000000000600052602160045260246000fd5b0217905550565b60088181548110611eba57600080fd5b90600052602060002090600302016000915090508060000154908060010154908060020160009054906101000a900460ff16908060020160019054906101000a900473ffffffffffffffffffffffffffffffffffffffff16905084565b600080600160064244600654604051602001611f3593929190612434565b6040516020818303038152906040528051906020012060001c611f589190612908565b611f629190612642565b905060066000815480929190611f77906128b5565b91905055508091505090565b5080546000825560030290600052602060002090810190611fa49190611fd5565b50565b60405180610c8001604052806064905b611fbf612037565b815260200190600190039081611fb75790505090565b5b808211156120335760008082016000905560018201600090556002820160006101000a81549060ff02191690556002820160016101000a81549073ffffffffffffffffffffffffffffffffffffffff021916905550600301611fd6565b5090565b604051806080016040528060008152602001600081526020016000600281111561208a577f4e487b7100000000000000000000000000000000000000000000000000000000600052602160045260246000fd5b8152602001600073ffffffffffffffffffffffffffffffffffffffff1681525090565b6000813590506120bc816129fb565b92915050565b6000813590506120d181612a12565b92915050565b6000813590506120e681612a29565b92915050565b6000813590506120fb81612a39565b92915050565b60006020828403121561211357600080fd5b6000612121848285016120ad565b91505092915050565b6000806040838503121561213d57600080fd5b600061214b858286016120c2565b925050602061215c858286016120ec565b9150509250929050565b60006020828403121561217857600080fd5b6000612186848285016120d7565b91505092915050565b6000602082840312156121a157600080fd5b60006121af848285016120ec565b91505092915050565b6121c1816127fb565b82525050565b6121d08161278d565b82525050565b6121df8161279f565b82525050565b6121ee8161279f565b82525050565b6121fd8161280d565b82525050565b61220c8161280d565b82525050565b61221b8161281f565b82525050565b61222a81612831565b82525050565b600061223d602283612631565b91507f70657263656e746167652073686f756c64206265206c657373207468616e203160008301527f30300000000000000000000000000000000000000000000000000000000000006020830152604082019050919050565b60006122a3601c83612631565b91507f73686f756c64206265206d6f7265207468616e203120706c61796572000000006000830152602082019050919050565b60e0820160008083015490506122eb8161289b565b6122f860008601826123ff565b506001830154905061230981612881565b61231660208601826121f4565b50600283015490506123278161289b565b61233460408601826123ff565b50600383015490506123458161289b565b61235260608601826123ff565b506004830154905061236381612867565b61237060808601826121d6565b506005830161238260a08601826123b8565b5050505050565b60408201600082015161239f60008501826123ff565b5060208201516123b260208501826123ff565b50505050565b6040820160008083015490506123cd8161289b565b6123da60008601826123ff565b50600183015490506123eb8161289b565b6123f860208601826123ff565b5050505050565b612408816127f1565b82525050565b612417816127f1565b82525050565b61242e612429826127f1565b6128fe565b82525050565b6000612440828661241d565b602082019150612450828561241d565b602082019150612460828461241d565b602082019150819050949350505050565b600060208201905061248660008301846121c7565b92915050565b60006020820190506124a160008301846121e5565b92915050565b60006060820190506124bc6000830186612212565b6124c960208301856121b8565b6124d66040830184612221565b949350505050565b60006060820190506124f36000830186612212565b61250060208301856121b8565b61250d604083018461240e565b949350505050565b6000602082019050818103600083015261252e81612230565b9050919050565b6000602082019050818103600083015261254e81612296565b9050919050565b600060e08201905061256a60008301846122d6565b92915050565b6000602082019050612585600083018461240e565b92915050565b600060e0820190506125a0600083018961240e565b6125ad6020830188612203565b6125ba604083018761240e565b6125c7606083018661240e565b6125d460808301856121e5565b6125e160a0830184612389565b979650505050505050565b6000608082019050612601600083018761240e565b61260e602083018661240e565b61261b6040830185612203565b61262860608301846121c7565b95945050505050565b600082825260208201905092915050565b600061264d826127f1565b9150612658836127f1565b9250827fffffffffffffffffffffffffffffffffffffffffffffffffffffffffffffffff0382111561268d5761268c612939565b5b828201905092915050565b60006126a3826127f1565b91506126ae836127f1565b9250826126be576126bd612968565b5b828204905092915050565b60006126d4826127f1565b91506126df836127f1565b9250817fffffffffffffffffffffffffffffffffffffffffffffffffffffffffffffffff048311821515161561271857612717612939565b5b828202905092915050565b600061272e826127f1565b9150612739836127f1565b92508282101561274c5761274b612939565b5b828203905092915050565b600060ff82169050919050565b600060ff82169050919050565b6000819050919050565b6000612786826127d1565b9050919050565b6000612798826127d1565b9050919050565b60008115159050919050565b60008190506127b9826129d3565b919050565b60008190506127cc826129e7565b919050565b600073ffffffffffffffffffffffffffffffffffffffff82169050919050565b6000819050919050565b600061280682612843565b9050919050565b6000612818826127ab565b9050919050565b600061282a826127be565b9050919050565b600061283c826127f1565b9050919050565b600061284e82612855565b9050919050565b6000612860826127d1565b9050919050565b600061287a612875836129c6565b612757565b9050919050565b600061289461288f836129c6565b612764565b9050919050565b60006128ae6128a9836129c6565b612771565b9050919050565b60006128c0826127f1565b91507fffffffffffffffffffffffffffffffffffffffffffffffffffffffffffffffff8214156128f3576128f2612939565b5b600182019050919050565b6000819050919050565b6000612913826127f1565b915061291e836127f1565b92508261292e5761292d612968565b5b828206905092915050565b7f4e487b7100000000000000000000000000000000000000000000000000000000600052601160045260246000fd5b7f4e487b7100000000000000000000000000000000000000000000000000000000600052601260045260246000fd5b7f4e487b7100000000000000000000000000000000000000000000000000000000600052602160045260246000fd5b60008160001c9050919050565b600381106129e4576129e3612997565b5b50565b600281106129f8576129f7612997565b5b50565b612a048161277b565b8114612a0f57600080fd5b50565b612a1b8161278d565b8114612a2657600080fd5b50565b60038110612a3657600080fd5b50565b612a42816127f1565b8114612a4d57600080fd5b5056fea26469706673582212204ce01fba74d5d1fc813d0317aa56f2de1bfdea4e0b4b655faba0ddbb5ae93dc064736f6c63430008000033",
  "immutableReferences": {},
  "source": "//SPDX-License-Identifier: UNLICENSED\npragma solidity ^0.8.0;\n\ncontract ChoHanCasino {\n    address payable public owner;\n    uint256 public minimumBet;\n    uint256 public minNumberPlayer = 2;\n    uint256 public fee = 3; // percentage of winners\n    uint256 public numberOfPlayers;\n    uint256 public currentBetId; //also current bet\n    uint256 private nonce; // for generating random numbers\n\n    enum Pairity {\n        Even,\n        Odd,\n        Default\n    }\n\n    enum Result {\n        Won,\n        Lost\n    }\n\n    struct Pair {\n        uint256 dice1;\n        uint256 dice2;\n    }\n\n    struct Player {\n        uint256 id;\n        uint256 amountBet;\n        Pairity pairity;\n        address payable playerAddress;\n    }\n\n    struct Bet {\n        uint256 id;\n        Pairity pairity;\n        uint256 totalBet;\n        uint256 numberOfPlayers;\n        bool ended;\n        Pair pair;\n    }\n\n    mapping(address => Player) public playersInfo;\n    Player[] public players;\n    Bet[] public bets;\n\n    event BetResult(Result _status, address _address, uint256 _amount);\n    event BetPlaced(Bet lastBet);\n    event BetEnded(Bet lastBet);\n\n    modifier onlyOwner() {\n        require(msg.sender == owner);\n        _;\n    }\n\n    constructor(uint256 _mininumBet) {\n        owner = payable(msg.sender);\n        if (_mininumBet != 0) minimumBet = _mininumBet;\n        bets.push(Bet(1, Pairity.Default, 0, 0, false, Pair(0, 0)));\n    }\n\n    fallback() external payable {}\n\n    receive() external payable {}\n\n    function kill() public {\n        if (msg.sender == owner) selfdestruct(owner);\n    }\n\n    function setFee(uint256 _fee) public onlyOwner returns (uint256) {\n        require(_fee <= 100, \"percentage should be less than 100\");\n        fee = _fee;\n        return fee;\n    }\n\n    function withdraw(address payable reciever, uint256 _amount)\n        public\n        onlyOwner\n        returns (bool)\n    {\n        if (_amount > 0) {\n            if (reciever.send(_amount)) {\n                return true;\n            }\n        }\n        return false;\n    }\n\n    function checkPlayerExists(address player) public view returns (bool) {\n        if (players.length == 0) return false;\n        for (uint256 i = 0; i < players.length; i++) {\n            if (players[i].playerAddress == player) return true;\n        }\n        return false;\n    }\n\n    function bet(Pairity _pairity) public payable returns (bool) {\n        //selected number has to be 1 or 0\n        // 1 for even 0 for odd\n        require(!checkPlayerExists(msg.sender));\n        require(uint8(_pairity) <= 1);\n        require(msg.value >= minimumBet);\n\n        Player memory newPlayer = Player(\n            players.length,\n            msg.value,\n            _pairity,\n            payable(msg.sender)\n        );\n        players.push(newPlayer);\n        playersInfo[msg.sender] = newPlayer;\n        numberOfPlayers = players.length;\n        bets[currentBetId].numberOfPlayers += players.length;\n        bets[currentBetId].totalBet += msg.value;\n        emit BetPlaced(bets[currentBetId]);\n        return true;\n    }\n\n    function endBet() public onlyOwner {\n        require(numberOfPlayers > 0, \"should be more than 1 player\");\n\n        if (numberOfPlayers == 1) {\n            withdraw(players[0].playerAddress, bets[currentBetId].totalBet);\n            bets[currentBetId].ended = true;\n            delete players;\n            bets.push(Bet(0, Pairity.Default, 0, 0, false, Pair(0, 0)));\n            currentBetId++;\n        } else {\n            generatePairity();\n            distributePrizes(bets[currentBetId].pairity);\n        }\n        resetData();\n        emit BetEnded(bets[currentBetId - 1]);\n    }\n\n    function rollDice() internal returns (uint256) {\n        uint256 randomnumber = ((\n            uint256(\n                keccak256(\n                    abi.encodePacked(block.timestamp, block.difficulty, nonce)\n                )\n            )\n        ) % 6) + 1;\n        nonce++;\n        return randomnumber;\n    }\n\n    function generatePairity() public {\n        bets[currentBetId].pair.dice1 = rollDice();\n        bets[currentBetId].pair.dice2 = rollDice();\n        bets[currentBetId].pairity = Pairity(\n            (bets[currentBetId].pair.dice1 + bets[currentBetId].pair.dice2) % 2\n        );\n    }\n\n    function distributePrizes(Pairity _pairity) public {\n        Player[100] memory winners;\n        Player[100] memory losers;\n        uint256 numberOfWinners = 0;\n        uint256 numberOfLosers = 0;\n\n        uint256 totalAmountFromWinners = 0; //will be used for caculating weight\n\n        for (uint256 i = 0; i < players.length; i++) {\n            if (players[i].pairity == _pairity) {\n                winners[numberOfWinners] = players[i];\n                totalAmountFromWinners += players[i].amountBet;\n                numberOfWinners++;\n            } else {\n                losers[numberOfLosers] = players[i];\n                numberOfLosers++;\n            }\n            delete playersInfo[players[i].playerAddress];\n            delete players[i];\n        }\n\n        if (winners.length > 0) {\n            for (uint256 j = 0; j < numberOfWinners; j++) {\n                if (winners[j].playerAddress != address(0)) {\n                    uint256 winnerEtherAmount = ((winners[j].amountBet /\n                        totalAmountFromWinners) *\n                        bets[currentBetId].totalBet *\n                        (100 - fee)) / 100;\n\n                    payable(winners[j].playerAddress).transfer(\n                        winnerEtherAmount\n                    );\n                    emit BetResult(\n                        Result.Won,\n                        winners[j].playerAddress,\n                        winnerEtherAmount\n                    );\n                }\n            }\n        }\n\n        for (uint256 l = 0; l < numberOfLosers; l++) {\n            if (losers[l].playerAddress != address(0))\n                emit BetResult(Result.Lost, losers[l].playerAddress, 0);\n        }\n    }\n\n    function resetData() public {\n        delete players;\n        bets[currentBetId].ended = true;\n        bets.push(Bet(0, Pairity.Default, 0, 0, false, Pair(0, 0)));\n        currentBetId++;\n        numberOfPlayers = 0;\n    }\n}\n",
  "sourcePath": "/Volumes/Data/Projects/blocks/weave_test/contracts/ChoHanCasino.sol",
  "compiler": {
    "name": "solc",
    "version": "0.8.0+commit.c7dfd78e.Emscripten.clang"
  },
  "schemaVersion": "3.4.3",
  "updatedAt": "2021-10-08T04:17:26.862Z",
  "networkType": "ethereum",
  "devdoc": {
    "kind": "dev",
    "methods": {},
    "version": 1
  },
  "userdoc": {
    "kind": "user",
    "methods": {},
    "version": 1
  }
}