{
  "contractName": "ChoHanCasino",
  "abi": [
    {
      "inputs": [
        {
          "internalType": "uint256",
          "name": "_mininumBet",
          "type": "uint256"
        }
      ],
      "stateMutability": "nonpayable",
      "type": "constructor"
    },
    {
      "anonymous": false,
      "inputs": [
        {
          "indexed": false,
          "internalType": "bool",
          "name": "_status",
          "type": "bool"
        }
      ],
      "name": "BetPlaced",
      "type": "event"
    },
    {
      "anonymous": false,
      "inputs": [
        {
          "indexed": false,
          "internalType": "bool",
          "name": "_status",
          "type": "bool"
        },
        {
          "indexed": false,
          "internalType": "address",
          "name": "_address",
          "type": "address"
        },
        {
          "indexed": false,
          "internalType": "uint256",
          "name": "_amount",
          "type": "uint256"
        }
      ],
      "name": "Won",
      "type": "event"
    },
    {
      "stateMutability": "payable",
      "type": "fallback"
    },
    {
      "inputs": [
        {
          "internalType": "uint256",
          "name": "",
          "type": "uint256"
        }
      ],
      "name": "bets",
      "outputs": [
        {
          "internalType": "uint256",
          "name": "numberWinner",
          "type": "uint256"
        },
        {
          "internalType": "uint256",
          "name": "totalBet",
          "type": "uint256"
        }
      ],
      "stateMutability": "view",
      "type": "function"
    },
    {
      "inputs": [],
      "name": "minNumberPlayer",
      "outputs": [
        {
          "internalType": "uint256",
          "name": "",
          "type": "uint256"
        }
      ],
      "stateMutability": "view",
      "type": "function"
    },
    {
      "inputs": [],
      "name": "minimumBet",
      "outputs": [
        {
          "internalType": "uint256",
          "name": "",
          "type": "uint256"
        }
      ],
      "stateMutability": "view",
      "type": "function"
    },
    {
      "inputs": [],
      "name": "numberWinner",
      "outputs": [
        {
          "internalType": "uint256",
          "name": "",
          "type": "uint256"
        }
      ],
      "stateMutability": "view",
      "type": "function"
    },
    {
      "inputs": [],
      "name": "owner",
      "outputs": [
        {
          "internalType": "address payable",
          "name": "",
          "type": "address"
        }
      ],
      "stateMutability": "view",
      "type": "function"
    },
    {
      "inputs": [
        {
          "internalType": "uint256",
          "name": "",
          "type": "uint256"
        }
      ],
      "name": "players",
      "outputs": [
        {
          "internalType": "uint256",
          "name": "id",
          "type": "uint256"
        },
        {
          "internalType": "uint256",
          "name": "amountBet",
          "type": "uint256"
        },
        {
          "internalType": "uint256",
          "name": "numberSelected",
          "type": "uint256"
        },
        {
          "internalType": "address payable",
          "name": "playerAddress",
          "type": "address"
        }
      ],
      "stateMutability": "view",
      "type": "function"
    },
    {
      "inputs": [],
      "name": "totalBet",
      "outputs": [
        {
          "internalType": "uint256",
          "name": "",
          "type": "uint256"
        }
      ],
      "stateMutability": "view",
      "type": "function"
    },
    {
      "stateMutability": "payable",
      "type": "receive"
    },
    {
      "inputs": [],
      "name": "kill",
      "outputs": [],
      "stateMutability": "nonpayable",
      "type": "function"
    },
    {
      "inputs": [],
      "name": "withdraw",
      "outputs": [
        {
          "internalType": "bool",
          "name": "",
          "type": "bool"
        }
      ],
      "stateMutability": "nonpayable",
      "type": "function"
    },
    {
      "inputs": [
        {
          "internalType": "address",
          "name": "player",
          "type": "address"
        }
      ],
      "name": "checkPlayerExists",
      "outputs": [
        {
          "internalType": "bool",
          "name": "",
          "type": "bool"
        }
      ],
      "stateMutability": "view",
      "type": "function"
    },
    {
      "inputs": [
        {
          "internalType": "uint256",
          "name": "_numberSelected",
          "type": "uint256"
        }
      ],
      "name": "bet",
      "outputs": [
        {
          "internalType": "bool",
          "name": "",
          "type": "bool"
        }
      ],
      "stateMutability": "payable",
      "type": "function"
    },
    {
      "inputs": [],
      "name": "betEnd",
      "outputs": [],
      "stateMutability": "nonpayable",
      "type": "function"
    },
    {
      "inputs": [],
      "name": "generateNumberWinner",
      "outputs": [],
      "stateMutability": "nonpayable",
      "type": "function"
    },
    {
      "inputs": [
        {
          "internalType": "uint256",
          "name": "numberWin",
          "type": "uint256"
        }
      ],
      "name": "distributePrizes",
      "outputs": [],
      "stateMutability": "nonpayable",
      "type": "function"
    },
    {
      "inputs": [],
      "name": "resetData",
      "outputs": [],
      "stateMutability": "nonpayable",
      "type": "function"
    }
  ],
  "bytecode": "0x6080604052600260035560026004553480156200001b57600080fd5b5060405162001410380380620014108339818101604052810190620000419190620000b0565b336000806101000a81548173ffffffffffffffffffffffffffffffffffffffff021916908373ffffffffffffffffffffffffffffffffffffffff160217905550600081146200009257806001819055505b5062000100565b600081519050620000aa81620000e6565b92915050565b600060208284031215620000c357600080fd5b6000620000d38482850162000099565b91505092915050565b6000819050919050565b620000f181620000dc565b8114620000fd57600080fd5b50565b61130080620001106000396000f3fe6080604052600436106100ec5760003560e01c80636ca3fc3b1161008a578063c38a8afd11610059578063c38a8afd146102ba578063f61845be146102e5578063f71d96cb146102fc578063fe5e18531461033c576100f3565b80636ca3fc3b1461020b5780637365870b146102345780638da5cb5b146102645780639a6a68e91461028f576100f3565b80633ccfd60b116100c65780633ccfd60b146101755780634081d916146101a057806341c0e1b5146101dd578063478c4e0e146101f4576100f3565b80630a50e361146100f557806316cbfc821461010c57806322af00fa14610137576100f3565b366100f357005b005b34801561010157600080fd5b5061010a610367565b005b34801561011857600080fd5b5061012161039a565b60405161012e9190611048565b60405180910390f35b34801561014357600080fd5b5061015e60048036038101906101599190610f30565b6103a0565b60405161016c929190611063565b60405180910390f35b34801561018157600080fd5b5061018a6103d4565b6040516101979190610fbf565b60405180910390f35b3480156101ac57600080fd5b506101c760048036038101906101c29190610f07565b61049d565b6040516101d49190610fbf565b60405180910390f35b3480156101e957600080fd5b506101f261058c565b005b34801561020057600080fd5b5061020961061b565b005b34801561021757600080fd5b50610232600480360381019061022d9190610f30565b610695565b005b61024e60048036038101906102499190610f30565b610bdb565b60405161025b9190610fbf565b60405180910390f35b34801561027057600080fd5b50610279610d35565b6040516102869190610fa4565b60405180910390f35b34801561029b57600080fd5b506102a4610d59565b6040516102b19190611048565b60405180910390f35b3480156102c657600080fd5b506102cf610d5f565b6040516102dc9190611048565b60405180910390f35b3480156102f157600080fd5b506102fa610d65565b005b34801561030857600080fd5b50610323600480360381019061031e9190610f30565b610dda565b604051610333949392919061108c565b60405180910390f35b34801561034857600080fd5b50610351610e3a565b60405161035e9190611048565b60405180910390f35b60006002600160244361037a919061120d565b61038491906110d1565b61038e919061120d565b90508060048190555050565b60035481565b600781815481106103b057600080fd5b90600052602060002090600202016000915090508060000154908060010154905082565b60008060009054906101000a900473ffffffffffffffffffffffffffffffffffffffff1673ffffffffffffffffffffffffffffffffffffffff163373ffffffffffffffffffffffffffffffffffffffff161461042f57600080fd5b60008054906101000a900473ffffffffffffffffffffffffffffffffffffffff1673ffffffffffffffffffffffffffffffffffffffff166108fc479081150290604051600060405180830381858888f19350505050158015610495573d6000803e3d6000fd5b506001905090565b60008060068054905014156104b55760009050610587565b60005b600680549050811015610581578273ffffffffffffffffffffffffffffffffffffffff1660068281548110610516577f4e487b7100000000000000000000000000000000000000000000000000000000600052603260045260246000fd5b906000526020600020906004020160030160009054906101000a900473ffffffffffffffffffffffffffffffffffffffff1673ffffffffffffffffffffffffffffffffffffffff16141561056e576001915050610587565b8080610579906111c4565b9150506104b8565b50600090505b919050565b60008054906101000a900473ffffffffffffffffffffffffffffffffffffffff1673ffffffffffffffffffffffffffffffffffffffff163373ffffffffffffffffffffffffffffffffffffffff1614156106195760008054906101000a900473ffffffffffffffffffffffffffffffffffffffff1673ffffffffffffffffffffffffffffffffffffffff16ff5b565b600660006106299190610e40565b60076040518060400160405280600454815260200160025481525090806001815401808255809150506001900390600052602060002090600202016000909190919091506000820151816000015560208201518160010155505060006002819055506002600481905550565b61069d610e64565b6106a5610e64565b60008060005b60068054905081101561091d576000600682815481106106f4577f4e487b7100000000000000000000000000000000000000000000000000000000600052603260045260246000fd5b906000526020600020906004020160030160009054906101000a900473ffffffffffffffffffffffffffffffffffffffff1690508660068381548110610763577f4e487b7100000000000000000000000000000000000000000000000000000000600052603260045260246000fd5b90600052602060002090600402016002015414156107ff57808685606481106107b5577f4e487b7100000000000000000000000000000000000000000000000000000000600052603260045260246000fd5b602002019073ffffffffffffffffffffffffffffffffffffffff16908173ffffffffffffffffffffffffffffffffffffffff168152505083806107f7906111c4565b94505061087f565b80858460648110610839577f4e487b7100000000000000000000000000000000000000000000000000000000600052603260045260246000fd5b602002019073ffffffffffffffffffffffffffffffffffffffff16908173ffffffffffffffffffffffffffffffffffffffff1681525050828061087b906111c4565b9350505b600682815481106108b9577f4e487b7100000000000000000000000000000000000000000000000000000000600052603260045260246000fd5b9060005260206000209060040201600080820160009055600182016000905560028201600090556003820160006101000a81549073ffffffffffffffffffffffffffffffffffffffff02191690555050508080610915906111c4565b9150506106ab565b5060008214610ac8576000826002546109369190611127565b905060005b83811015610ac557600073ffffffffffffffffffffffffffffffffffffffff16868260648110610994577f4e487b7100000000000000000000000000000000000000000000000000000000600052603260045260246000fd5b602002015173ffffffffffffffffffffffffffffffffffffffff1614610ab2578581606481106109ed577f4e487b7100000000000000000000000000000000000000000000000000000000600052603260045260246000fd5b602002015173ffffffffffffffffffffffffffffffffffffffff166108fc839081150290604051600060405180830381858888f19350505050158015610a37573d6000803e3d6000fd5b507fea7d9b91a9071528af290e91f77561555136fe4d4917c1eefb0868215ddc59386001878360648110610a94577f4e487b7100000000000000000000000000000000000000000000000000000000600052603260045260246000fd5b602002015184604051610aa993929190611011565b60405180910390a15b8080610abd906111c4565b91505061093b565b50505b60005b6064811015610bd357600073ffffffffffffffffffffffffffffffffffffffff16848260648110610b25577f4e487b7100000000000000000000000000000000000000000000000000000000600052603260045260246000fd5b602002015173ffffffffffffffffffffffffffffffffffffffff1614610bc0577fea7d9b91a9071528af290e91f77561555136fe4d4917c1eefb0868215ddc59386000858360648110610ba1577f4e487b7100000000000000000000000000000000000000000000000000000000600052603260045260246000fd5b60200201516000604051610bb793929190610fda565b60405180910390a15b8080610bcb906111c4565b915050610acb565b505050505050565b6000610be63361049d565b15610bf057600080fd5b6001821115610bfe57600080fd5b600154341015610c0d57600080fd5b6006604051806080016040528060068054905081526020013481526020018481526020013373ffffffffffffffffffffffffffffffffffffffff16815250908060018154018082558091505060019003906000526020600020906004020160009091909190915060008201518160000155602082015181600101556040820151816002015560608201518160030160006101000a81548173ffffffffffffffffffffffffffffffffffffffff021916908373ffffffffffffffffffffffffffffffffffffffff16021790555050503460026000828254610ced91906110d1565b925050819055507f6494f2cd0ebe926e766d1151c7660eba5baefbe16aab6837a4f060c4c36f97ca6001604051610d249190610fbf565b60405180910390a160019050919050565b60008054906101000a900473ffffffffffffffffffffffffffffffffffffffff1681565b60045481565b60015481565b60008054906101000a900473ffffffffffffffffffffffffffffffffffffffff1673ffffffffffffffffffffffffffffffffffffffff163373ffffffffffffffffffffffffffffffffffffffff1614610dbd57600080fd5b610dc5610367565b610dd0600454610695565b610dd861061b565b565b60068181548110610dea57600080fd5b90600052602060002090600402016000915090508060000154908060010154908060020154908060030160009054906101000a900473ffffffffffffffffffffffffffffffffffffffff16905084565b60025481565b5080546000825560040290600052602060002090810190610e619190610e87565b50565b60405180610c800160405280606490602082028036833780820191505090505090565b5b80821115610ed957600080820160009055600182016000905560028201600090556003820160006101000a81549073ffffffffffffffffffffffffffffffffffffffff021916905550600401610e88565b5090565b600081359050610eec8161129c565b92915050565b600081359050610f01816112b3565b92915050565b600060208284031215610f1957600080fd5b6000610f2784828501610edd565b91505092915050565b600060208284031215610f4257600080fd5b6000610f5084828501610ef2565b91505092915050565b610f628161116a565b82525050565b610f7181611158565b82525050565b610f808161117c565b82525050565b610f8f816111b2565b82525050565b610f9e816111a8565b82525050565b6000602082019050610fb96000830184610f59565b92915050565b6000602082019050610fd46000830184610f77565b92915050565b6000606082019050610fef6000830186610f77565b610ffc6020830185610f68565b6110096040830184610f86565b949350505050565b60006060820190506110266000830186610f77565b6110336020830185610f68565b6110406040830184610f95565b949350505050565b600060208201905061105d6000830184610f95565b92915050565b60006040820190506110786000830185610f95565b6110856020830184610f95565b9392505050565b60006080820190506110a16000830187610f95565b6110ae6020830186610f95565b6110bb6040830185610f95565b6110c86060830184610f59565b95945050505050565b60006110dc826111a8565b91506110e7836111a8565b9250827fffffffffffffffffffffffffffffffffffffffffffffffffffffffffffffffff0382111561111c5761111b61123e565b5b828201905092915050565b6000611132826111a8565b915061113d836111a8565b92508261114d5761114c61126d565b5b828204905092915050565b600061116382611188565b9050919050565b600061117582611188565b9050919050565b60008115159050919050565b600073ffffffffffffffffffffffffffffffffffffffff82169050919050565b6000819050919050565b60006111bd826111a8565b9050919050565b60006111cf826111a8565b91507fffffffffffffffffffffffffffffffffffffffffffffffffffffffffffffffff8214156112025761120161123e565b5b600182019050919050565b6000611218826111a8565b9150611223836111a8565b9250826112335761123261126d565b5b828206905092915050565b7f4e487b7100000000000000000000000000000000000000000000000000000000600052601160045260246000fd5b7f4e487b7100000000000000000000000000000000000000000000000000000000600052601260045260246000fd5b6112a581611158565b81146112b057600080fd5b50565b6112bc816111a8565b81146112c757600080fd5b5056fea26469706673582212202310e1a7e54ab674e17935ed7c42b9606a6b117049c666b4bded60b182f11bdb64736f6c63430008000033",
  "immutableReferences": {},
  "source": "//SPDX-License-Identifier: UNLICENSED\npragma solidity ^0.8.0;\n\ncontract ChoHanCasino {\n    address payable public owner;\n    uint256 public minimumBet;\n    uint256 public totalBet;\n    uint256 public minNumberPlayer = 2;\n    uint256 public numberWinner = 2;\n    bool ended;\n\n    struct Player {\n        uint256 id;\n        uint256 amountBet;\n        uint256 numberSelected;\n        address payable playerAddress;\n    }\n\n    struct Bet {\n        uint256 numberWinner;\n        uint256 totalBet;\n    }\n\n    Player[] public players;\n    Bet[] public bets;\n\n    event Won(bool _status, address _address, uint256 _amount);\n    event BetPlaced(bool _status);\n\n    modifier onlyOwner() {\n        require(msg.sender == owner);\n        _;\n    }\n\n    constructor(uint256 _mininumBet) {\n        owner = payable(msg.sender);\n        if (_mininumBet != 0) minimumBet = _mininumBet;\n    }\n\n    fallback() external payable {}\n\n    receive() external payable {}\n\n    function kill() public {\n        if (msg.sender == owner) selfdestruct(owner);\n    }\n\n    function withdraw() public onlyOwner returns (bool) {\n        owner.transfer(address(this).balance);\n        return true;\n    }\n\n    function checkPlayerExists(address player) public view returns (bool) {\n        if (players.length == 0) return false;\n        for (uint256 i = 0; i < players.length; i++) {\n            if (players[i].playerAddress == player) return true;\n        }\n        return false;\n    }\n\n    function bet(uint256 _numberSelected) public payable returns (bool) {\n        //selected number has to be 1 or 0\n        // 1 for even 0 for odd\n        require(!checkPlayerExists(msg.sender));\n        require(_numberSelected <= 1);\n        require(msg.value >= minimumBet);\n\n        players.push(\n            Player(\n                players.length,\n                msg.value,\n                _numberSelected,\n                payable(msg.sender)\n            )\n        );\n\n        totalBet += msg.value;\n        emit BetPlaced(true);\n        return true;\n    }\n\n    function betEnd() public onlyOwner {\n        generateNumberWinner();\n        distributePrizes(numberWinner);\n        resetData();\n    }\n\n    function generateNumberWinner() public {\n        uint256 numberGenerated = ((block.number % 36) + 1) % 2;\n        numberWinner = numberGenerated;\n    }\n\n    function distributePrizes(uint256 numberWin) public {\n        address[100] memory winners;\n        address[100] memory losers;\n        uint256 countWin = 0;\n        uint256 countLose = 0;\n\n        for (uint256 i = 0; i < players.length; i++) {\n            address playerAddress = players[i].playerAddress;\n            if (players[i].numberSelected == numberWin) {\n                winners[countWin] = playerAddress;\n                countWin++;\n            } else {\n                losers[countLose] = playerAddress;\n                countLose++;\n            }\n            delete players[i];\n        }\n\n        if (countWin != 0) {\n            uint256 winnerEtherAmount = totalBet / countWin;\n\n            for (uint256 j = 0; j < countWin; j++) {\n                if (winners[j] != address(0)) {\n                    payable(winners[j]).transfer(winnerEtherAmount);\n                    emit Won(true, winners[j], winnerEtherAmount);\n                }\n            }\n        }\n\n        for (uint256 l = 0; l < losers.length; l++) {\n            if (losers[l] != address(0)) emit Won(false, losers[l], 0);\n        }\n    }\n\n    function resetData() public {\n        delete players;\n        bets.push(Bet(numberWinner, totalBet));\n        totalBet = 0;\n        numberWinner = 2;\n    }\n}\n",
  "sourcePath": "/Volumes/Data/Projects/blocks/weave_test/contracts/ChoHanCasino.sol",
  "compiler": {
    "name": "solc",
    "version": "0.8.0+commit.c7dfd78e.Emscripten.clang"
  },
  "schemaVersion": "3.4.0",
  "updatedAt": "2021-10-04T14:49:49.464Z",
  "devdoc": {
    "kind": "dev",
    "methods": {},
    "version": 1
  },
  "userdoc": {
    "kind": "user",
    "methods": {},
    "version": 1
  }
}