{
  "contractName": "ChoHanCasino",
  "abi": [
    {
      "inputs": [
        {
          "internalType": "uint256",
          "name": "_mininumBet",
          "type": "uint256"
        }
      ],
      "stateMutability": "nonpayable",
      "type": "constructor"
    },
    {
      "anonymous": false,
      "inputs": [
        {
          "indexed": false,
          "internalType": "bool",
          "name": "_status",
          "type": "bool"
        }
      ],
      "name": "BetEnded",
      "type": "event"
    },
    {
      "anonymous": false,
      "inputs": [
        {
          "indexed": false,
          "internalType": "bool",
          "name": "_status",
          "type": "bool"
        },
        {
          "indexed": false,
          "internalType": "uint256",
          "name": "totalBet",
          "type": "uint256"
        },
        {
          "indexed": false,
          "internalType": "uint256",
          "name": "numberOfPlayers",
          "type": "uint256"
        }
      ],
      "name": "BetPlaced",
      "type": "event"
    },
    {
      "anonymous": false,
      "inputs": [
        {
          "indexed": false,
          "internalType": "enum ChoHanCasino.Result",
          "name": "_status",
          "type": "uint8"
        },
        {
          "indexed": false,
          "internalType": "address",
          "name": "_address",
          "type": "address"
        },
        {
          "indexed": false,
          "internalType": "uint256",
          "name": "_amount",
          "type": "uint256"
        }
      ],
      "name": "BetResult",
      "type": "event"
    },
    {
      "stateMutability": "payable",
      "type": "fallback"
    },
    {
      "inputs": [
        {
          "internalType": "address",
          "name": "",
          "type": "address"
        }
      ],
      "name": "PlayersInfo",
      "outputs": [
        {
          "internalType": "uint256",
          "name": "id",
          "type": "uint256"
        },
        {
          "internalType": "uint256",
          "name": "amountBet",
          "type": "uint256"
        },
        {
          "internalType": "enum ChoHanCasino.Pairity",
          "name": "pairity",
          "type": "uint8"
        },
        {
          "internalType": "address payable",
          "name": "playerAddress",
          "type": "address"
        }
      ],
      "stateMutability": "view",
      "type": "function"
    },
    {
      "inputs": [
        {
          "internalType": "uint256",
          "name": "",
          "type": "uint256"
        }
      ],
      "name": "bets",
      "outputs": [
        {
          "internalType": "uint256",
          "name": "id",
          "type": "uint256"
        },
        {
          "internalType": "enum ChoHanCasino.Pairity",
          "name": "pairity",
          "type": "uint8"
        },
        {
          "internalType": "uint256",
          "name": "totalBet",
          "type": "uint256"
        },
        {
          "internalType": "uint256",
          "name": "numberOfPlayers",
          "type": "uint256"
        },
        {
          "internalType": "bool",
          "name": "ended",
          "type": "bool"
        },
        {
          "components": [
            {
              "internalType": "uint256",
              "name": "dice1",
              "type": "uint256"
            },
            {
              "internalType": "uint256",
              "name": "dice2",
              "type": "uint256"
            }
          ],
          "internalType": "struct ChoHanCasino.Pair",
          "name": "pair",
          "type": "tuple"
        }
      ],
      "stateMutability": "view",
      "type": "function"
    },
    {
      "inputs": [],
      "name": "currentBetId",
      "outputs": [
        {
          "internalType": "uint256",
          "name": "",
          "type": "uint256"
        }
      ],
      "stateMutability": "view",
      "type": "function"
    },
    {
      "inputs": [],
      "name": "fee",
      "outputs": [
        {
          "internalType": "uint256",
          "name": "",
          "type": "uint256"
        }
      ],
      "stateMutability": "view",
      "type": "function"
    },
    {
      "inputs": [],
      "name": "minNumberPlayer",
      "outputs": [
        {
          "internalType": "uint256",
          "name": "",
          "type": "uint256"
        }
      ],
      "stateMutability": "view",
      "type": "function"
    },
    {
      "inputs": [],
      "name": "minimumBet",
      "outputs": [
        {
          "internalType": "uint256",
          "name": "",
          "type": "uint256"
        }
      ],
      "stateMutability": "view",
      "type": "function"
    },
    {
      "inputs": [],
      "name": "numberOfPlayers",
      "outputs": [
        {
          "internalType": "uint256",
          "name": "",
          "type": "uint256"
        }
      ],
      "stateMutability": "view",
      "type": "function"
    },
    {
      "inputs": [],
      "name": "owner",
      "outputs": [
        {
          "internalType": "address payable",
          "name": "",
          "type": "address"
        }
      ],
      "stateMutability": "view",
      "type": "function"
    },
    {
      "inputs": [
        {
          "internalType": "uint256",
          "name": "",
          "type": "uint256"
        }
      ],
      "name": "players",
      "outputs": [
        {
          "internalType": "uint256",
          "name": "id",
          "type": "uint256"
        },
        {
          "internalType": "uint256",
          "name": "amountBet",
          "type": "uint256"
        },
        {
          "internalType": "enum ChoHanCasino.Pairity",
          "name": "pairity",
          "type": "uint8"
        },
        {
          "internalType": "address payable",
          "name": "playerAddress",
          "type": "address"
        }
      ],
      "stateMutability": "view",
      "type": "function"
    },
    {
      "stateMutability": "payable",
      "type": "receive"
    },
    {
      "inputs": [],
      "name": "kill",
      "outputs": [],
      "stateMutability": "nonpayable",
      "type": "function"
    },
    {
      "inputs": [
        {
          "internalType": "uint256",
          "name": "_fee",
          "type": "uint256"
        }
      ],
      "name": "setFee",
      "outputs": [
        {
          "internalType": "uint256",
          "name": "",
          "type": "uint256"
        }
      ],
      "stateMutability": "nonpayable",
      "type": "function"
    },
    {
      "inputs": [
        {
          "internalType": "address payable",
          "name": "reciever",
          "type": "address"
        },
        {
          "internalType": "uint256",
          "name": "_amount",
          "type": "uint256"
        }
      ],
      "name": "withdraw",
      "outputs": [
        {
          "internalType": "bool",
          "name": "",
          "type": "bool"
        }
      ],
      "stateMutability": "nonpayable",
      "type": "function"
    },
    {
      "inputs": [
        {
          "internalType": "address",
          "name": "player",
          "type": "address"
        }
      ],
      "name": "checkPlayerExists",
      "outputs": [
        {
          "internalType": "bool",
          "name": "",
          "type": "bool"
        }
      ],
      "stateMutability": "view",
      "type": "function"
    },
    {
      "inputs": [
        {
          "internalType": "enum ChoHanCasino.Pairity",
          "name": "_pairity",
          "type": "uint8"
        }
      ],
      "name": "bet",
      "outputs": [
        {
          "internalType": "bool",
          "name": "",
          "type": "bool"
        }
      ],
      "stateMutability": "payable",
      "type": "function"
    },
    {
      "inputs": [],
      "name": "endBet",
      "outputs": [],
      "stateMutability": "nonpayable",
      "type": "function"
    },
    {
      "inputs": [],
      "name": "generatePairity",
      "outputs": [],
      "stateMutability": "nonpayable",
      "type": "function"
    },
    {
      "inputs": [
        {
          "internalType": "enum ChoHanCasino.Pairity",
          "name": "_pairity",
          "type": "uint8"
        }
      ],
      "name": "distributePrizes",
      "outputs": [],
      "stateMutability": "nonpayable",
      "type": "function"
    },
    {
      "inputs": [],
      "name": "resetData",
      "outputs": [],
      "stateMutability": "nonpayable",
      "type": "function"
    }
  ],
  "bytecode": "0x608060405260028055600380553480156200001957600080fd5b5060405162002b3338038062002b3383398181016040528101906200003f919062000211565b336000806101000a81548173ffffffffffffffffffffffffffffffffffffffff021916908373ffffffffffffffffffffffffffffffffffffffff160217905550600081146200009057806001819055505b60096040518060c0016040528060018152602001600280811115620000de577f4e487b7100000000000000000000000000000000000000000000000000000000600052602160045260246000fd5b81526020016000815260200160008152602001600015158152602001604051806040016040528060008152602001600081525081525090806001815401808255809150506001900390600052602060002090600702016000909190919091506000820151816000015560208201518160010160006101000a81548160ff0219169083600281111562000199577f4e487b7100000000000000000000000000000000000000000000000000000000600052602160045260246000fd5b0217905550604082015181600201556060820151816003015560808201518160040160006101000a81548160ff02191690831515021790555060a0820151816005016000820151816000015560208201518160010155505050505062000261565b6000815190506200020b8162000247565b92915050565b6000602082840312156200022457600080fd5b60006200023484828501620001fa565b91505092915050565b6000819050919050565b62000252816200023d565b81146200025e57600080fd5b50565b6128c280620002716000396000f3fe60806040526004361061010d5760003560e01c80638da5cb5b11610095578063ddca3f4311610064578063ddca3f4314610347578063f3fef3a314610372578063f5cdfab3146103af578063f71d96cb146103c6578063fa7ae9fe1461040657610114565b80638da5cb5b146102aa5780639ada30ac146102d5578063c38a8afd146102ec578063d0821b0e1461031757610114565b8063478c4e0e116100dc578063478c4e0e146101d75780635b4a9b51146101ee57806361edf9b21461021957806369fe0e2d146102425780636f4bda171461027f57610114565b806316cbfc821461011657806322af00fa146101415780634081d9161461018357806341c0e1b5146101c057610114565b3661011457005b005b34801561012257600080fd5b5061012b610446565b604051610138919061242b565b60405180910390f35b34801561014d57600080fd5b5061016860048036038101906101639190612146565b61044c565b60405161017a96959493929190612446565b60405180910390f35b34801561018f57600080fd5b506101aa60048036038101906101a591906120b8565b6104d0565b6040516101b7919061232b565b60405180910390f35b3480156101cc57600080fd5b506101d56105bf565b005b3480156101e357600080fd5b506101ec61064e565b005b3480156101fa57600080fd5b50610203610845565b604051610210919061242b565b60405180910390f35b34801561022557600080fd5b50610240600480360381019061023b919061211d565b61084b565b005b34801561024e57600080fd5b5061026960048036038101906102649190612146565b6111f5565b604051610276919061242b565b60405180910390f35b34801561028b57600080fd5b506102946112a5565b6040516102a1919061242b565b60405180910390f35b3480156102b657600080fd5b506102bf6112ab565b6040516102cc9190612310565b60405180910390f35b3480156102e157600080fd5b506102ea6112cf565b005b3480156102f857600080fd5b506103016116db565b60405161030e919061242b565b60405180910390f35b610331600480360381019061032c919061211d565b6116e1565b60405161033e919061232b565b60405180910390f35b34801561035357600080fd5b5061035c611b07565b604051610369919061242b565b60405180910390f35b34801561037e57600080fd5b50610399600480360381019061039491906120e1565b611b0d565b6040516103a6919061232b565b60405180910390f35b3480156103bb57600080fd5b506103c4611bc0565b005b3480156103d257600080fd5b506103ed60048036038101906103e89190612146565b611e04565b6040516103fd94939291906124a7565b60405180910390f35b34801561041257600080fd5b5061042d600480360381019061042891906120b8565b611e71565b60405161043d94939291906124a7565b60405180910390f35b60025481565b6009818154811061045c57600080fd5b90600052602060002090600702016000915090508060000154908060010160009054906101000a900460ff16908060020154908060030154908060040160009054906101000a900460ff16908060050160405180604001604052908160008201548152602001600182015481525050905086565b60008060088054905014156104e857600090506105ba565b60005b6008805490508110156105b4578273ffffffffffffffffffffffffffffffffffffffff1660088281548110610549577f4e487b7100000000000000000000000000000000000000000000000000000000600052603260045260246000fd5b906000526020600020906003020160020160019054906101000a900473ffffffffffffffffffffffffffffffffffffffff1673ffffffffffffffffffffffffffffffffffffffff1614156105a15760019150506105ba565b80806105ac906126fe565b9150506104eb565b50600090505b919050565b60008054906101000a900473ffffffffffffffffffffffffffffffffffffffff1673ffffffffffffffffffffffffffffffffffffffff163373ffffffffffffffffffffffffffffffffffffffff16141561064c5760008054906101000a900473ffffffffffffffffffffffffffffffffffffffff1673ffffffffffffffffffffffffffffffffffffffff16ff5b565b6008600061065c9190611f3a565b600160096005548154811061069a577f4e487b7100000000000000000000000000000000000000000000000000000000600052603260045260246000fd5b906000526020600020906007020160040160006101000a81548160ff02191690831515021790555060096040518060c001604052806000815260200160028081111561070f577f4e487b7100000000000000000000000000000000000000000000000000000000600052602160045260246000fd5b81526020016000815260200160008152602001600015158152602001604051806040016040528060008152602001600081525081525090806001815401808255809150506001900390600052602060002090600702016000909190919091506000820151816000015560208201518160010160006101000a81548160ff021916908360028111156107c9577f4e487b7100000000000000000000000000000000000000000000000000000000600052602160045260246000fd5b0217905550604082015181600201556060820151816003015560808201518160040160006101000a81548160ff02191690831515021790555060a08201518160050160008201518160000155602082015181600101555050505060056000815480929190610836906126fe565b91905055506000600481905550565b60055481565b610853611f5e565b61085b611f5e565b6000806000805b600880549050811015610e65578660028111156108a8577f4e487b7100000000000000000000000000000000000000000000000000000000600052602160045260246000fd5b600882815481106108e2577f4e487b7100000000000000000000000000000000000000000000000000000000600052603260045260246000fd5b906000526020600020906003020160020160009054906101000a900460ff166002811115610939577f4e487b7100000000000000000000000000000000000000000000000000000000600052602160045260246000fd5b1415610b305760088181548110610979577f4e487b7100000000000000000000000000000000000000000000000000000000600052603260045260246000fd5b906000526020600020906003020160405180608001604052908160008201548152602001600182015481526020016002820160009054906101000a900460ff1660028111156109f1577f4e487b7100000000000000000000000000000000000000000000000000000000600052602160045260246000fd5b6002811115610a29577f4e487b7100000000000000000000000000000000000000000000000000000000600052602160045260246000fd5b81526020016002820160019054906101000a900473ffffffffffffffffffffffffffffffffffffffff1673ffffffffffffffffffffffffffffffffffffffff1673ffffffffffffffffffffffffffffffffffffffff1681525050868560648110610abc577f4e487b7100000000000000000000000000000000000000000000000000000000600052603260045260246000fd5b602002018190525060088181548110610afe577f4e487b7100000000000000000000000000000000000000000000000000000000600052603260045260246000fd5b90600052602060002090600302016001015482610b1b91906124fd565b91508380610b28906126fe565b945050610cc4565b60088181548110610b6a577f4e487b7100000000000000000000000000000000000000000000000000000000600052603260045260246000fd5b906000526020600020906003020160405180608001604052908160008201548152602001600182015481526020016002820160009054906101000a900460ff166002811115610be2577f4e487b7100000000000000000000000000000000000000000000000000000000600052602160045260246000fd5b6002811115610c1a577f4e487b7100000000000000000000000000000000000000000000000000000000600052602160045260246000fd5b81526020016002820160019054906101000a900473ffffffffffffffffffffffffffffffffffffffff1673ffffffffffffffffffffffffffffffffffffffff1673ffffffffffffffffffffffffffffffffffffffff1681525050858460648110610cad577f4e487b7100000000000000000000000000000000000000000000000000000000600052603260045260246000fd5b60200201819052508280610cc0906126fe565b9350505b6007600060088381548110610d02577f4e487b7100000000000000000000000000000000000000000000000000000000600052603260045260246000fd5b906000526020600020906003020160020160019054906101000a900473ffffffffffffffffffffffffffffffffffffffff1673ffffffffffffffffffffffffffffffffffffffff1673ffffffffffffffffffffffffffffffffffffffff16815260200190815260200160002060008082016000905560018201600090556002820160006101000a81549060ff02191690556002820160016101000a81549073ffffffffffffffffffffffffffffffffffffffff0219169055505060088181548110610df6577f4e487b7100000000000000000000000000000000000000000000000000000000600052603260045260246000fd5b906000526020600020906003020160008082016000905560018201600090556002820160006101000a81549060ff02191690556002820160016101000a81549073ffffffffffffffffffffffffffffffffffffffff021916905550508080610e5d906126fe565b915050610862565b506000606411156110da5760005b838110156110d857600073ffffffffffffffffffffffffffffffffffffffff16868260648110610ecc577f4e487b7100000000000000000000000000000000000000000000000000000000600052603260045260246000fd5b60200201516060015173ffffffffffffffffffffffffffffffffffffffff16146110c557600060646003546064610f0391906125de565b600960055481548110610f3f577f4e487b7100000000000000000000000000000000000000000000000000000000600052603260045260246000fd5b906000526020600020906007020160020154858a8660648110610f8b577f4e487b7100000000000000000000000000000000000000000000000000000000600052603260045260246000fd5b602002015160200151610f9e9190612553565b610fa89190612584565b610fb29190612584565b610fbc9190612553565b9050868260648110610ff7577f4e487b7100000000000000000000000000000000000000000000000000000000600052603260045260246000fd5b60200201516060015173ffffffffffffffffffffffffffffffffffffffff166108fc829081150290604051600060405180830381858888f19350505050158015611045573d6000803e3d6000fd5b507f08b35d83d81b7166a3dc576b6dc7d660a57432d174e092ea7f11670806dc951260008884606481106110a2577f4e487b7100000000000000000000000000000000000000000000000000000000600052603260045260246000fd5b602002015160600151836040516110bb939291906123b4565b60405180910390a1505b80806110d0906126fe565b915050610e73565b505b60005b828110156111ec57600073ffffffffffffffffffffffffffffffffffffffff16858260648110611136577f4e487b7100000000000000000000000000000000000000000000000000000000600052603260045260246000fd5b60200201516060015173ffffffffffffffffffffffffffffffffffffffff16146111d9577f08b35d83d81b7166a3dc576b6dc7d660a57432d174e092ea7f11670806dc951260018683606481106111b6577f4e487b7100000000000000000000000000000000000000000000000000000000600052603260045260246000fd5b60200201516060015160006040516111d09392919061237d565b60405180910390a15b80806111e4906126fe565b9150506110dd565b50505050505050565b60008060009054906101000a900473ffffffffffffffffffffffffffffffffffffffff1673ffffffffffffffffffffffffffffffffffffffff163373ffffffffffffffffffffffffffffffffffffffff161461125057600080fd5b6064821115611294576040517f08c379a000000000000000000000000000000000000000000000000000000000815260040161128b906123eb565b60405180910390fd5b816003819055506003549050919050565b60045481565b60008054906101000a900473ffffffffffffffffffffffffffffffffffffffff1681565b60008054906101000a900473ffffffffffffffffffffffffffffffffffffffff1673ffffffffffffffffffffffffffffffffffffffff163373ffffffffffffffffffffffffffffffffffffffff161461132757600080fd5b60006004541161136c576040517f08c379a00000000000000000000000000000000000000000000000000000000081526004016113639061240b565b60405180910390fd5b6001600454141561162d5761143a60086000815481106113b5577f4e487b7100000000000000000000000000000000000000000000000000000000600052603260045260246000fd5b906000526020600020906003020160020160019054906101000a900473ffffffffffffffffffffffffffffffffffffffff16600960055481548110611423577f4e487b7100000000000000000000000000000000000000000000000000000000600052603260045260246000fd5b906000526020600020906007020160020154611b0d565b506001600960055481548110611479577f4e487b7100000000000000000000000000000000000000000000000000000000600052603260045260246000fd5b906000526020600020906007020160040160006101000a81548160ff021916908315150217905550600860006114af9190611f3a565b60096040518060c00160405280600081526020016002808111156114fc577f4e487b7100000000000000000000000000000000000000000000000000000000600052602160045260246000fd5b81526020016000815260200160008152602001600015158152602001604051806040016040528060008152602001600081525081525090806001815401808255809150506001900390600052602060002090600702016000909190919091506000820151816000015560208201518160010160006101000a81548160ff021916908360028111156115b6577f4e487b7100000000000000000000000000000000000000000000000000000000600052602160045260246000fd5b0217905550604082015181600201556060820151816003015560808201518160040160006101000a81548160ff02191690831515021790555060a08201518160050160008201518160000155602082015181600101555050505060056000815480929190611623906126fe565b9190505550611699565b611635611bc0565b611698600960055481548110611674577f4e487b7100000000000000000000000000000000000000000000000000000000600052603260045260246000fd5b906000526020600020906007020160010160009054906101000a900460ff1661084b565b5b6116a161064e565b7f2df0b936b8d4b17610e33161ffadaeaf61b91cc2d2a1855c5f43f8febbc9dd0460016040516116d1919061232b565b60405180910390a1565b60015481565b60006116ec336104d0565b156116f657600080fd5b6001826002811115611731577f4e487b7100000000000000000000000000000000000000000000000000000000600052602160045260246000fd5b60ff16111561173f57600080fd5b60015434101561174e57600080fd5b6000604051806080016040528060088054905081526020013481526020018460028111156117a5577f4e487b7100000000000000000000000000000000000000000000000000000000600052602160045260246000fd5b81526020013373ffffffffffffffffffffffffffffffffffffffff1681525090506008819080600181540180825580915050600190039060005260206000209060030201600090919091909150600082015181600001556020820151816001015560408201518160020160006101000a81548160ff02191690836002811115611857577f4e487b7100000000000000000000000000000000000000000000000000000000600052602160045260246000fd5b021790555060608201518160020160016101000a81548173ffffffffffffffffffffffffffffffffffffffff021916908373ffffffffffffffffffffffffffffffffffffffff160217905550505080600760003373ffffffffffffffffffffffffffffffffffffffff1673ffffffffffffffffffffffffffffffffffffffff168152602001908152602001600020600082015181600001556020820151816001015560408201518160020160006101000a81548160ff0219169083600281111561194a577f4e487b7100000000000000000000000000000000000000000000000000000000600052602160045260246000fd5b021790555060608201518160020160016101000a81548173ffffffffffffffffffffffffffffffffffffffff021916908373ffffffffffffffffffffffffffffffffffffffff1602179055509050506008805490506004819055506008805490506009600554815481106119e7577f4e487b7100000000000000000000000000000000000000000000000000000000600052603260045260246000fd5b90600052602060002090600702016003016000828254611a0791906124fd565b9250508190555034600960055481548110611a4b577f4e487b7100000000000000000000000000000000000000000000000000000000600052603260045260246000fd5b90600052602060002090600702016002016000828254611a6b91906124fd565b925050819055507f73f48c8b3a6136b86375970c55bc7990989b4fc0fc7cc26eccdca9e464f9e2b86001600960055481548110611ad1577f4e487b7100000000000000000000000000000000000000000000000000000000600052603260045260246000fd5b906000526020600020906007020160020154600454604051611af593929190612346565b60405180910390a16001915050919050565b60035481565b60008060009054906101000a900473ffffffffffffffffffffffffffffffffffffffff1673ffffffffffffffffffffffffffffffffffffffff163373ffffffffffffffffffffffffffffffffffffffff1614611b6857600080fd5b6000821115611bb5578273ffffffffffffffffffffffffffffffffffffffff166108fc839081150290604051600060405180830381858888f1935050505015611bb45760019050611bba565b5b600090505b92915050565b611bc8611ece565b600960055481548110611c04577f4e487b7100000000000000000000000000000000000000000000000000000000600052603260045260246000fd5b906000526020600020906007020160050160000181905550611c24611ece565b600960055481548110611c60577f4e487b7100000000000000000000000000000000000000000000000000000000600052603260045260246000fd5b9060005260206000209060070201600501600101819055506002600960055481548110611cb6577f4e487b7100000000000000000000000000000000000000000000000000000000600052603260045260246000fd5b906000526020600020906007020160050160010154600960055481548110611d07577f4e487b7100000000000000000000000000000000000000000000000000000000600052603260045260246000fd5b906000526020600020906007020160050160000154611d2691906124fd565b611d309190612751565b6002811115611d68577f4e487b7100000000000000000000000000000000000000000000000000000000600052602160045260246000fd5b600960055481548110611da4577f4e487b7100000000000000000000000000000000000000000000000000000000600052603260045260246000fd5b906000526020600020906007020160010160006101000a81548160ff02191690836002811115611dfd577f4e487b7100000000000000000000000000000000000000000000000000000000600052602160045260246000fd5b0217905550565b60088181548110611e1457600080fd5b90600052602060002090600302016000915090508060000154908060010154908060020160009054906101000a900460ff16908060020160019054906101000a900473ffffffffffffffffffffffffffffffffffffffff16905084565b60076020528060005260406000206000915090508060000154908060010154908060020160009054906101000a900460ff16908060020160019054906101000a900473ffffffffffffffffffffffffffffffffffffffff16905084565b600080600160064244600654604051602001611eec939291906122d3565b6040516020818303038152906040528051906020012060001c611f0f9190612751565b611f1991906124fd565b905060066000815480929190611f2e906126fe565b91905055508091505090565b5080546000825560030290600052602060002090810190611f5b9190611f8c565b50565b60405180610c8001604052806064905b611f76611fee565b815260200190600190039081611f6e5790505090565b5b80821115611fea5760008082016000905560018201600090556002820160006101000a81549060ff02191690556002820160016101000a81549073ffffffffffffffffffffffffffffffffffffffff021916905550600301611f8d565b5090565b6040518060800160405280600081526020016000815260200160006002811115612041577f4e487b7100000000000000000000000000000000000000000000000000000000600052602160045260246000fd5b8152602001600073ffffffffffffffffffffffffffffffffffffffff1681525090565b60008135905061207381612837565b92915050565b6000813590506120888161284e565b92915050565b60008135905061209d81612865565b92915050565b6000813590506120b281612875565b92915050565b6000602082840312156120ca57600080fd5b60006120d884828501612064565b91505092915050565b600080604083850312156120f457600080fd5b600061210285828601612079565b9250506020612113858286016120a3565b9150509250929050565b60006020828403121561212f57600080fd5b600061213d8482850161208e565b91505092915050565b60006020828403121561215857600080fd5b6000612166848285016120a3565b91505092915050565b61217881612692565b82525050565b61218781612624565b82525050565b61219681612636565b82525050565b6121a5816126a4565b82525050565b6121b4816126b6565b82525050565b6121c3816126c8565b82525050565b60006121d66022836124ec565b91507f70657263656e746167652073686f756c64206265206c657373207468616e203160008301527f30300000000000000000000000000000000000000000000000000000000000006020830152604082019050919050565b600061223c601c836124ec565b91507f73686f756c64206265206d6f7265207468616e203120706c61796572000000006000830152602082019050919050565b604082016000820151612285600085018261229e565b506020820151612298602085018261229e565b50505050565b6122a781612688565b82525050565b6122b681612688565b82525050565b6122cd6122c882612688565b612747565b82525050565b60006122df82866122bc565b6020820191506122ef82856122bc565b6020820191506122ff82846122bc565b602082019150819050949350505050565b6000602082019050612325600083018461217e565b92915050565b6000602082019050612340600083018461218d565b92915050565b600060608201905061235b600083018661218d565b61236860208301856122ad565b61237560408301846122ad565b949350505050565b600060608201905061239260008301866121ab565b61239f602083018561216f565b6123ac60408301846121ba565b949350505050565b60006060820190506123c960008301866121ab565b6123d6602083018561216f565b6123e360408301846122ad565b949350505050565b60006020820190508181036000830152612404816121c9565b9050919050565b600060208201905081810360008301526124248161222f565b9050919050565b600060208201905061244060008301846122ad565b92915050565b600060e08201905061245b60008301896122ad565b612468602083018861219c565b61247560408301876122ad565b61248260608301866122ad565b61248f608083018561218d565b61249c60a083018461226f565b979650505050505050565b60006080820190506124bc60008301876122ad565b6124c960208301866122ad565b6124d6604083018561219c565b6124e3606083018461217e565b95945050505050565b600082825260208201905092915050565b600061250882612688565b915061251383612688565b9250827fffffffffffffffffffffffffffffffffffffffffffffffffffffffffffffffff0382111561254857612547612782565b5b828201905092915050565b600061255e82612688565b915061256983612688565b925082612579576125786127b1565b5b828204905092915050565b600061258f82612688565b915061259a83612688565b9250817fffffffffffffffffffffffffffffffffffffffffffffffffffffffffffffffff04831182151516156125d3576125d2612782565b5b828202905092915050565b60006125e982612688565b91506125f483612688565b92508282101561260757612606612782565b5b828203905092915050565b600061261d82612668565b9050919050565b600061262f82612668565b9050919050565b60008115159050919050565b60008190506126508261280f565b919050565b600081905061266382612823565b919050565b600073ffffffffffffffffffffffffffffffffffffffff82169050919050565b6000819050919050565b600061269d826126da565b9050919050565b60006126af82612642565b9050919050565b60006126c182612655565b9050919050565b60006126d382612688565b9050919050565b60006126e5826126ec565b9050919050565b60006126f782612668565b9050919050565b600061270982612688565b91507fffffffffffffffffffffffffffffffffffffffffffffffffffffffffffffffff82141561273c5761273b612782565b5b600182019050919050565b6000819050919050565b600061275c82612688565b915061276783612688565b925082612777576127766127b1565b5b828206905092915050565b7f4e487b7100000000000000000000000000000000000000000000000000000000600052601160045260246000fd5b7f4e487b7100000000000000000000000000000000000000000000000000000000600052601260045260246000fd5b7f4e487b7100000000000000000000000000000000000000000000000000000000600052602160045260246000fd5b600381106128205761281f6127e0565b5b50565b60028110612834576128336127e0565b5b50565b61284081612612565b811461284b57600080fd5b50565b61285781612624565b811461286257600080fd5b50565b6003811061287257600080fd5b50565b61287e81612688565b811461288957600080fd5b5056fea2646970667358221220c47f9477fa579c9ef6414d2804cb1d4ba77fb84dc9f9ede804d7584e0e1a3ad364736f6c63430008000033",
  "immutableReferences": {},
  "source": "//SPDX-License-Identifier: UNLICENSED\npragma solidity ^0.8.0;\n\ncontract ChoHanCasino {\n    address payable public owner;\n    uint256 public minimumBet;\n    uint256 public minNumberPlayer = 2;\n    uint256 public fee = 3; // percentage of winners\n    uint256 public numberOfPlayers;\n    uint256 public currentBetId; //also current bet\n    uint256 private nonce; // for generating random numbers\n\n    enum Pairity {\n        Even,\n        Odd,\n        Default\n    }\n\n    enum Result {\n        Won,\n        Lost\n    }\n\n    struct Pair {\n        uint256 dice1;\n        uint256 dice2;\n    }\n\n    struct Player {\n        uint256 id;\n        uint256 amountBet;\n        Pairity pairity;\n        address payable playerAddress;\n    }\n\n    struct Bet {\n        uint256 id;\n        Pairity pairity;\n        uint256 totalBet;\n        uint256 numberOfPlayers;\n        bool ended;\n        Pair pair;\n    }\n\n    mapping(address => Player) public PlayersInfo;\n    Player[] public players;\n    Bet[] public bets;\n\n    event BetResult(Result _status, address _address, uint256 _amount);\n    event BetPlaced(bool _status, uint256 totalBet, uint256 numberOfPlayers);\n    event BetEnded(bool _status);\n\n    modifier onlyOwner() {\n        require(msg.sender == owner);\n        _;\n    }\n\n    constructor(uint256 _mininumBet) {\n        owner = payable(msg.sender);\n        if (_mininumBet != 0) minimumBet = _mininumBet;\n        bets.push(Bet(1, Pairity.Default, 0, 0, false, Pair(0, 0)));\n    }\n\n    fallback() external payable {}\n\n    receive() external payable {}\n\n    function kill() public {\n        if (msg.sender == owner) selfdestruct(owner);\n    }\n\n    function setFee(uint256 _fee) public onlyOwner returns (uint256) {\n        require(_fee <= 100, \"percentage should be less than 100\");\n        fee = _fee;\n        return fee;\n    }\n\n    function withdraw(address payable reciever, uint256 _amount)\n        public\n        onlyOwner\n        returns (bool)\n    {\n        if (_amount > 0) {\n            if (reciever.send(_amount)) {\n                return true;\n            }\n        }\n        return false;\n    }\n\n    function checkPlayerExists(address player) public view returns (bool) {\n        if (players.length == 0) return false;\n        for (uint256 i = 0; i < players.length; i++) {\n            if (players[i].playerAddress == player) return true;\n        }\n        return false;\n    }\n\n    function bet(Pairity _pairity) public payable returns (bool) {\n        //selected number has to be 1 or 0\n        // 1 for even 0 for odd\n        require(!checkPlayerExists(msg.sender));\n        require(uint8(_pairity) <= 1);\n        require(msg.value >= minimumBet);\n\n        Player memory newPlayer = Player(\n            players.length,\n            msg.value,\n            _pairity,\n            payable(msg.sender)\n        );\n        players.push(newPlayer);\n        PlayersInfo[msg.sender] = newPlayer;\n        numberOfPlayers = players.length;\n        bets[currentBetId].numberOfPlayers += players.length;\n        bets[currentBetId].totalBet += msg.value;\n        emit BetPlaced(true, bets[currentBetId].totalBet, numberOfPlayers);\n        return true;\n    }\n\n    function endBet() public onlyOwner {\n        require(numberOfPlayers > 0, \"should be more than 1 player\");\n\n        if (numberOfPlayers == 1) {\n            withdraw(players[0].playerAddress, bets[currentBetId].totalBet);\n            bets[currentBetId].ended = true;\n            delete players;\n            bets.push(Bet(0, Pairity.Default, 0, 0, false, Pair(0, 0)));\n            currentBetId++;\n        } else {\n            generatePairity();\n            distributePrizes(bets[currentBetId].pairity);\n        }\n        resetData();\n        emit BetEnded(true);\n    }\n\n    function rollDice() internal returns (uint256) {\n        uint256 randomnumber = ((\n            uint256(\n                keccak256(\n                    abi.encodePacked(block.timestamp, block.difficulty, nonce)\n                )\n            )\n        ) % 6) + 1;\n        nonce++;\n        return randomnumber;\n    }\n\n    function generatePairity() public {\n        bets[currentBetId].pair.dice1 = rollDice();\n        bets[currentBetId].pair.dice2 = rollDice();\n        bets[currentBetId].pairity = Pairity(\n            (bets[currentBetId].pair.dice1 + bets[currentBetId].pair.dice2) % 2\n        );\n    }\n\n    function distributePrizes(Pairity _pairity) public {\n        Player[100] memory winners;\n        Player[100] memory losers;\n        uint256 numberOfWinners = 0;\n        uint256 numberOfLosers = 0;\n\n        uint256 totalAmountFromWinners = 0; //will be used for caculating weight\n\n        for (uint256 i = 0; i < players.length; i++) {\n            if (players[i].pairity == _pairity) {\n                winners[numberOfWinners] = players[i];\n                totalAmountFromWinners += players[i].amountBet;\n                numberOfWinners++;\n            } else {\n                losers[numberOfLosers] = players[i];\n                numberOfLosers++;\n            }\n            delete PlayersInfo[players[i].playerAddress];\n            delete players[i];\n        }\n\n        if (winners.length > 0) {\n            for (uint256 j = 0; j < numberOfWinners; j++) {\n                if (winners[j].playerAddress != address(0)) {\n                    uint256 winnerEtherAmount = ((winners[j].amountBet /\n                        totalAmountFromWinners) *\n                        bets[currentBetId].totalBet *\n                        (100 - fee)) / 100;\n\n                    payable(winners[j].playerAddress).transfer(\n                        winnerEtherAmount\n                    );\n                    emit BetResult(\n                        Result.Won,\n                        winners[j].playerAddress,\n                        winnerEtherAmount\n                    );\n                }\n            }\n        }\n\n        for (uint256 l = 0; l < numberOfLosers; l++) {\n            if (losers[l].playerAddress != address(0))\n                emit BetResult(Result.Lost, losers[l].playerAddress, 0);\n        }\n    }\n\n    function resetData() public {\n        delete players;\n        bets[currentBetId].ended = true;\n        bets.push(Bet(0, Pairity.Default, 0, 0, false, Pair(0, 0)));\n        currentBetId++;\n        numberOfPlayers = 0;\n    }\n}\n",
  "sourcePath": "/Volumes/Data/Projects/blocks/weave_test/contracts/ChoHanCasino.sol",
  "compiler": {
    "name": "solc",
    "version": "0.8.0+commit.c7dfd78e.Emscripten.clang"
  },
  "schemaVersion": "3.4.3",
  "updatedAt": "2021-10-07T04:38:03.807Z",
  "devdoc": {
    "kind": "dev",
    "methods": {},
    "version": 1
  },
  "userdoc": {
    "kind": "user",
    "methods": {},
    "version": 1
  }
}