{
  "contractName": "ChoHanCasino",
  "abi": [
    {
      "inputs": [
        {
          "internalType": "uint256",
          "name": "_mininumBet",
          "type": "uint256"
        }
      ],
      "stateMutability": "payable",
      "type": "constructor",
      "payable": true
    },
    {
      "anonymous": false,
      "inputs": [
        {
          "indexed": false,
          "internalType": "bool",
          "name": "_status",
          "type": "bool"
        },
        {
          "indexed": false,
          "internalType": "address",
          "name": "_address",
          "type": "address"
        },
        {
          "indexed": false,
          "internalType": "uint256",
          "name": "_amount",
          "type": "uint256"
        }
      ],
      "name": "Won",
      "type": "event"
    },
    {
      "stateMutability": "payable",
      "type": "fallback",
      "payable": true
    },
    {
      "inputs": [
        {
          "internalType": "uint256",
          "name": "",
          "type": "uint256"
        }
      ],
      "name": "betList",
      "outputs": [
        {
          "internalType": "uint256",
          "name": "numberWinner",
          "type": "uint256"
        },
        {
          "internalType": "uint256",
          "name": "totalBet",
          "type": "uint256"
        }
      ],
      "stateMutability": "view",
      "type": "function",
      "constant": true
    },
    {
      "inputs": [],
      "name": "minNumberPlayer",
      "outputs": [
        {
          "internalType": "uint256",
          "name": "",
          "type": "uint256"
        }
      ],
      "stateMutability": "view",
      "type": "function",
      "constant": true
    },
    {
      "inputs": [],
      "name": "minimumBet",
      "outputs": [
        {
          "internalType": "uint256",
          "name": "",
          "type": "uint256"
        }
      ],
      "stateMutability": "view",
      "type": "function",
      "constant": true
    },
    {
      "inputs": [],
      "name": "numberOfPlayers",
      "outputs": [
        {
          "internalType": "uint256",
          "name": "",
          "type": "uint256"
        }
      ],
      "stateMutability": "view",
      "type": "function",
      "constant": true
    },
    {
      "inputs": [],
      "name": "numberWinner",
      "outputs": [
        {
          "internalType": "uint256",
          "name": "",
          "type": "uint256"
        }
      ],
      "stateMutability": "view",
      "type": "function",
      "constant": true
    },
    {
      "inputs": [],
      "name": "owner",
      "outputs": [
        {
          "internalType": "address payable",
          "name": "",
          "type": "address"
        }
      ],
      "stateMutability": "view",
      "type": "function",
      "constant": true
    },
    {
      "inputs": [
        {
          "internalType": "address",
          "name": "",
          "type": "address"
        }
      ],
      "name": "playerInfo",
      "outputs": [
        {
          "internalType": "uint256",
          "name": "amountBet",
          "type": "uint256"
        },
        {
          "internalType": "uint256",
          "name": "numberSelected",
          "type": "uint256"
        }
      ],
      "stateMutability": "view",
      "type": "function",
      "constant": true
    },
    {
      "inputs": [
        {
          "internalType": "uint256",
          "name": "",
          "type": "uint256"
        }
      ],
      "name": "players",
      "outputs": [
        {
          "internalType": "address",
          "name": "",
          "type": "address"
        }
      ],
      "stateMutability": "view",
      "type": "function",
      "constant": true
    },
    {
      "inputs": [],
      "name": "totalBet",
      "outputs": [
        {
          "internalType": "uint256",
          "name": "",
          "type": "uint256"
        }
      ],
      "stateMutability": "view",
      "type": "function",
      "constant": true
    },
    {
      "stateMutability": "payable",
      "type": "receive",
      "payable": true
    },
    {
      "inputs": [],
      "name": "kill",
      "outputs": [],
      "stateMutability": "nonpayable",
      "type": "function"
    },
    {
      "inputs": [],
      "name": "withdraw",
      "outputs": [
        {
          "internalType": "bool",
          "name": "",
          "type": "bool"
        }
      ],
      "stateMutability": "nonpayable",
      "type": "function"
    },
    {
      "inputs": [
        {
          "internalType": "address",
          "name": "player",
          "type": "address"
        }
      ],
      "name": "checkPlayerExists",
      "outputs": [
        {
          "internalType": "bool",
          "name": "",
          "type": "bool"
        }
      ],
      "stateMutability": "view",
      "type": "function",
      "constant": true
    },
    {
      "inputs": [
        {
          "internalType": "uint256",
          "name": "numberSelected",
          "type": "uint256"
        }
      ],
      "name": "bet",
      "outputs": [],
      "stateMutability": "payable",
      "type": "function",
      "payable": true
    },
    {
      "inputs": [],
      "name": "generateNumberWinner",
      "outputs": [],
      "stateMutability": "nonpayable",
      "type": "function"
    },
    {
      "inputs": [
        {
          "internalType": "uint256",
          "name": "numberWin",
          "type": "uint256"
        }
      ],
      "name": "distributePrizes",
      "outputs": [],
      "stateMutability": "nonpayable",
      "type": "function"
    },
    {
      "inputs": [],
      "name": "resetData",
      "outputs": [],
      "stateMutability": "nonpayable",
      "type": "function"
    }
  ],
  "bytecode": "0x6080604052600260045560405161131e38038061131e833981810160405281019061002a9190610095565b336000806101000a81548173ffffffffffffffffffffffffffffffffffffffff021916908373ffffffffffffffffffffffffffffffffffffffff1602179055506000811461007a57806001819055505b506100df565b60008151905061008f816100c8565b92915050565b6000602082840312156100a757600080fd5b60006100b584828501610080565b91505092915050565b6000819050919050565b6100d1816100be565b81146100dc57600080fd5b50565b611230806100ee6000396000f3fe6080604052600436106100f75760003560e01c80636f4bda171161008a578063c38a8afd11610059578063c38a8afd146102dc578063dbe6043814610307578063f71d96cb14610345578063fe5e185314610382576100fe565b80636f4bda171461023f5780637365870b1461026a5780638da5cb5b146102865780639a6a68e9146102b1576100fe565b806341c0e1b5116100c657806341c0e1b5146101aa578063478c4e0e146101c15780634b114691146101d85780636ca3fc3b14610216576100fe565b80630a50e3611461010057806316cbfc82146101175780633ccfd60b146101425780634081d9161461016d576100fe565b366100fe57005b005b34801561010c57600080fd5b506101156103ad565b005b34801561012357600080fd5b5061012c6103dd565b6040516101399190610fbd565b60405180910390f35b34801561014e57600080fd5b506101576103e3565b6040516101649190610f34565b60405180910390f35b34801561017957600080fd5b50610194600480360381019061018f9190610e61565b6104ac565b6040516101a19190610f34565b60405180910390f35b3480156101b657600080fd5b506101bf610581565b005b3480156101cd57600080fd5b506101d6610610565b005b3480156101e457600080fd5b506101ff60048036038101906101fa9190610e61565b61068a565b60405161020d929190610fd8565b60405180910390f35b34801561022257600080fd5b5061023d60048036038101906102389190610e8a565b6106ae565b005b34801561024b57600080fd5b50610254610bb4565b6040516102619190610fbd565b60405180910390f35b610284600480360381019061027f9190610e8a565b610bba565b005b34801561029257600080fd5b5061029b610d2d565b6040516102a89190610f19565b60405180910390f35b3480156102bd57600080fd5b506102c6610d51565b6040516102d39190610fbd565b60405180910390f35b3480156102e857600080fd5b506102f1610d57565b6040516102fe9190610fbd565b60405180910390f35b34801561031357600080fd5b5061032e60048036038101906103299190610e8a565b610d5d565b60405161033c929190610fd8565b60405180910390f35b34801561035157600080fd5b5061036c60048036038101906103679190610e8a565b610d91565b6040516103799190610efe565b60405180910390f35b34801561038e57600080fd5b50610397610dd0565b6040516103a49190610fbd565b60405180910390f35b600060016024436103be919061113d565b6103c89190611001565b9050806006819055506103da816106ae565b50565b60045481565b60008060009054906101000a900473ffffffffffffffffffffffffffffffffffffffff1673ffffffffffffffffffffffffffffffffffffffff163373ffffffffffffffffffffffffffffffffffffffff161461043e57600080fd5b60008054906101000a900473ffffffffffffffffffffffffffffffffffffffff1673ffffffffffffffffffffffffffffffffffffffff166108fc479081150290604051600060405180830381858888f193505050501580156104a4573d6000803e3d6000fd5b506001905090565b600080600090505b600580549050811015610576578273ffffffffffffffffffffffffffffffffffffffff1660058281548110610512577f4e487b7100000000000000000000000000000000000000000000000000000000600052603260045260246000fd5b9060005260206000200160009054906101000a900473ffffffffffffffffffffffffffffffffffffffff1673ffffffffffffffffffffffffffffffffffffffff16141561056357600191505061057c565b808061056e906110f4565b9150506104b4565b50600090505b919050565b60008054906101000a900473ffffffffffffffffffffffffffffffffffffffff1673ffffffffffffffffffffffffffffffffffffffff163373ffffffffffffffffffffffffffffffffffffffff16141561060e5760008054906101000a900473ffffffffffffffffffffffffffffffffffffffff1673ffffffffffffffffffffffffffffffffffffffff16ff5b565b6005600061061e9190610dd6565b60086040518060400160405280600654815260200160025481525090806001815401808255809150506001900390600052602060002090600202016000909190919091506000820151816000015560208201518160010155505060006002819055506000600381905550565b60076020528060005260406000206000915090508060000154908060010154905082565b6106b6610df7565b6106be610df7565b60008060005b6005805490508110156108ee5760006005828154811061070d577f4e487b7100000000000000000000000000000000000000000000000000000000600052603260045260246000fd5b9060005260206000200160009054906101000a900473ffffffffffffffffffffffffffffffffffffffff16905086600760008373ffffffffffffffffffffffffffffffffffffffff1673ffffffffffffffffffffffffffffffffffffffff16815260200190815260200160002060010154141561080857808685606481106107be577f4e487b7100000000000000000000000000000000000000000000000000000000600052603260045260246000fd5b602002019073ffffffffffffffffffffffffffffffffffffffff16908173ffffffffffffffffffffffffffffffffffffffff16815250508380610800906110f4565b945050610888565b80858460648110610842577f4e487b7100000000000000000000000000000000000000000000000000000000600052603260045260246000fd5b602002019073ffffffffffffffffffffffffffffffffffffffff16908173ffffffffffffffffffffffffffffffffffffffff16815250508280610884906110f4565b9350505b600760008273ffffffffffffffffffffffffffffffffffffffff1673ffffffffffffffffffffffffffffffffffffffff168152602001908152602001600020600080820160009055600182016000905550505080806108e6906110f4565b9150506106c4565b5060008214610a99576000826002546109079190611057565b905060005b83811015610a9657600073ffffffffffffffffffffffffffffffffffffffff16868260648110610965577f4e487b7100000000000000000000000000000000000000000000000000000000600052603260045260246000fd5b602002015173ffffffffffffffffffffffffffffffffffffffff1614610a83578581606481106109be577f4e487b7100000000000000000000000000000000000000000000000000000000600052603260045260246000fd5b602002015173ffffffffffffffffffffffffffffffffffffffff166108fc839081150290604051600060405180830381858888f19350505050158015610a08573d6000803e3d6000fd5b507fea7d9b91a9071528af290e91f77561555136fe4d4917c1eefb0868215ddc59386001878360648110610a65577f4e487b7100000000000000000000000000000000000000000000000000000000600052603260045260246000fd5b602002015184604051610a7a93929190610f86565b60405180910390a15b8080610a8e906110f4565b91505061090c565b50505b60005b6064811015610ba457600073ffffffffffffffffffffffffffffffffffffffff16848260648110610af6577f4e487b7100000000000000000000000000000000000000000000000000000000600052603260045260246000fd5b602002015173ffffffffffffffffffffffffffffffffffffffff1614610b91577fea7d9b91a9071528af290e91f77561555136fe4d4917c1eefb0868215ddc59386000858360648110610b72577f4e487b7100000000000000000000000000000000000000000000000000000000600052603260045260246000fd5b60200201516000604051610b8893929190610f4f565b60405180910390a15b8080610b9c906110f4565b915050610a9c565b50610bad610610565b5050505050565b60035481565b610bc3336104ac565b15610bcd57600080fd5b6001811480610bdc5750600081145b610be557600080fd5b600154341015610bf457600080fd5b34600760003373ffffffffffffffffffffffffffffffffffffffff1673ffffffffffffffffffffffffffffffffffffffff1681526020019081526020016000206000018190555080600760003373ffffffffffffffffffffffffffffffffffffffff1673ffffffffffffffffffffffffffffffffffffffff1681526020019081526020016000206001018190555060036000815480929190610c95906110f4565b91905055506005339080600181540180825580915050600190039060005260206000200160009091909190916101000a81548173ffffffffffffffffffffffffffffffffffffffff021916908373ffffffffffffffffffffffffffffffffffffffff1602179055503460026000828254610d0f9190611001565b9250508190555060045460035410610d2a57610d296103ad565b5b50565b60008054906101000a900473ffffffffffffffffffffffffffffffffffffffff1681565b60065481565b60015481565b60088181548110610d6d57600080fd5b90600052602060002090600202016000915090508060000154908060010154905082565b60058181548110610da157600080fd5b906000526020600020016000915054906101000a900473ffffffffffffffffffffffffffffffffffffffff1681565b60025481565b5080546000825590600052602060002090810190610df49190610e1a565b50565b60405180610c800160405280606490602082028036833780820191505090505090565b5b80821115610e33576000816000905550600101610e1b565b5090565b600081359050610e46816111cc565b92915050565b600081359050610e5b816111e3565b92915050565b600060208284031215610e7357600080fd5b6000610e8184828501610e37565b91505092915050565b600060208284031215610e9c57600080fd5b6000610eaa84828501610e4c565b91505092915050565b610ebc8161109a565b82525050565b610ecb81611088565b82525050565b610eda816110ac565b82525050565b610ee9816110e2565b82525050565b610ef8816110d8565b82525050565b6000602082019050610f136000830184610ec2565b92915050565b6000602082019050610f2e6000830184610eb3565b92915050565b6000602082019050610f496000830184610ed1565b92915050565b6000606082019050610f646000830186610ed1565b610f716020830185610ec2565b610f7e6040830184610ee0565b949350505050565b6000606082019050610f9b6000830186610ed1565b610fa86020830185610ec2565b610fb56040830184610eef565b949350505050565b6000602082019050610fd26000830184610eef565b92915050565b6000604082019050610fed6000830185610eef565b610ffa6020830184610eef565b9392505050565b600061100c826110d8565b9150611017836110d8565b9250827fffffffffffffffffffffffffffffffffffffffffffffffffffffffffffffffff0382111561104c5761104b61116e565b5b828201905092915050565b6000611062826110d8565b915061106d836110d8565b92508261107d5761107c61119d565b5b828204905092915050565b6000611093826110b8565b9050919050565b60006110a5826110b8565b9050919050565b60008115159050919050565b600073ffffffffffffffffffffffffffffffffffffffff82169050919050565b6000819050919050565b60006110ed826110d8565b9050919050565b60006110ff826110d8565b91507fffffffffffffffffffffffffffffffffffffffffffffffffffffffffffffffff8214156111325761113161116e565b5b600182019050919050565b6000611148826110d8565b9150611153836110d8565b9250826111635761116261119d565b5b828206905092915050565b7f4e487b7100000000000000000000000000000000000000000000000000000000600052601160045260246000fd5b7f4e487b7100000000000000000000000000000000000000000000000000000000600052601260045260246000fd5b6111d581611088565b81146111e057600080fd5b50565b6111ec816110d8565b81146111f757600080fd5b5056fea26469706673582212202f99a321875ff6f564f53adc1fa7fab8ad7ce5ea92641887360e3a1ccdda98ce64736f6c63430008000033",
  "immutableReferences": {},
  "source": "//SPDX-License-Identifier: UNLICENSED\npragma solidity ^0.8.0;\n\ncontract ChoHanCasino {\n  address payable public owner;\n  uint256 public minimumBet;\n  uint256 public totalBet;\n  uint256 public numberOfPlayers;\n  uint256 public minNumberPlayer = 2;\n  address[] public players;\n  uint public numberWinner;\n\n  struct Player {\n    uint256 amountBet;\n    uint256 numberSelected;\n  }\n\n  struct Bet {\n    uint numberWinner;\n    uint totalBet;\n  }\n\n  mapping(address => Player) public playerInfo;\n  Bet[] public betList;\n  event Won(bool _status, address _address, uint _amount);\n\n  modifier onlyOwner() {\n    require(msg.sender == owner);\n    _;\n  }\n\n  constructor(uint256 _mininumBet) payable {\n    owner = payable(msg.sender);\n    if (_mininumBet != 0) \n      minimumBet = _mininumBet;\n  }\n\n  fallback() external payable {}\n  receive() external payable {}\n\n  function kill() public {\n    if (msg.sender == owner)\n      selfdestruct(owner);\n  }\n\n  function withdraw() public onlyOwner returns(bool) {\n    owner.transfer(address(this).balance);\n    return true;\n  }\n\n  function checkPlayerExists(address player) public view returns(bool) {\n    for (uint256 i = 0; i < players.length; i++) {\n      if (players[i] == player)\n        return true;\n    }\n    return false;\n  }\n\n  function bet(uint256 numberSelected) public payable {\n    require(!checkPlayerExists(msg.sender));\n    require(numberSelected == 1 || numberSelected == 0);\n    require(msg.value >= minimumBet);\n\n    playerInfo[msg.sender].amountBet = msg.value;\n    playerInfo[msg.sender].numberSelected = numberSelected;\n    numberOfPlayers++;\n    players.push(msg.sender);\n    totalBet += msg.value;\n    if (numberOfPlayers >= minNumberPlayer)\n      generateNumberWinner();\n  }\n\n   function generateNumberWinner() public {\n    uint256 numberGenerated = block.number % 36 + 1;\n    numberWinner = numberGenerated;\n    distributePrizes(numberGenerated);\n  }\n\n  function distributePrizes(uint256 numberWin) public {\n    address[100] memory winners;\n    address[100] memory losers;\n    uint256 countWin = 0;\n    uint256 countLose = 0;\n\n    for (uint256 i = 0; i < players.length; i++) {\n      address playerAddress = players[i];\n      if (playerInfo[playerAddress].numberSelected == numberWin) {\n        winners[countWin] = playerAddress;\n        countWin++;\n      } else {\n        losers[countLose] = playerAddress;\n        countLose++;\n      }\n      delete playerInfo[playerAddress];\n    }\n\n    if (countWin !=0) {\n      uint256 winnerEtherAmount = totalBet/countWin;\n\n      for (uint256 j = 0; j < countWin; j++) {\n        if (winners[j] != address(0)) {\n          payable(winners[j]).transfer(winnerEtherAmount);\n          emit Won(true, winners[j], winnerEtherAmount);\n        }\n      }\n    }\n\n    for (uint256 l =0; l < losers.length; l++) {\n      if (losers[l] != address(0))\n        emit Won(false, losers[l], 0);\n    }\n    resetData();\n  }\n\n\n  function resetData() public {\n    delete players;\n    betList.push(Bet(numberWinner, totalBet));\n    totalBet = 0;\n    numberOfPlayers = 0;\n  }\n}\n\n",
  "sourcePath": "/Volumes/Data/Projects/blocks/weave_test/contracts/ChoHanCasino.sol",
  "compiler": {
    "name": "solc",
    "version": "0.8.0+commit.c7dfd78e.Emscripten.clang"
  },
  "schemaVersion": "3.4.0",
  "updatedAt": "2021-09-25T14:33:54.884Z",
  "networkType": "ethereum",
  "devdoc": {
    "kind": "dev",
    "methods": {},
    "version": 1
  },
  "userdoc": {
    "kind": "user",
    "methods": {},
    "version": 1
  }
}